:10001E00D3900021E09400900020E0940022E4753B
:0B002E00F001121226D3900021E02206
:10200400758921758CCF758AFFD2A9D28C758DF014
:08201400758BF0D2ABD28E22D5
:03000B0002214D82
:0A214D00758CCF758AFF755F0132B3
:03001B000217BD0C
:1017BD00C0E0C0F0C083C082C0D075D000C000E5CD
:1017CD0036604DD29330922DC3900021E094641277
:1017DD000025504412002C9463120025403AE56513
:1017ED0064017034756502753228F563F564F53D55
:1017FD00753E05802312001E400774FFF5F012128E
:10180D0026900020E07002A3E0700D756501800840
:10181D00C293E5327002C285D000D0D0D082D08381
:05182D00D0F0D0E03214
:0C211200758F1FD2A8D289D288D2B822C3
:0C211E00758E1ED2AAD28BD28AD2BA22B1
:0C212A00E4F5C075FB9DD2E843F90122EA
:101D2B007F04121A339080007402F0A3F0A3F0A387
:101D3B00F0D2A9D28CD2ABD28ED284753228D28576
:101D4B00E4F52DF546F547F54AF541F536752F01C6
:061D5B007530F4F5602272
:03000300021CAD2F
:101CAD00C0E0C0F0C083C082C0D075D000C000C0FD
:101CBD0001C002C003C004C005C006C007E5336003
:101CCD0003121D2BD007D006D005D004D003D002AF
:0F1CDD00D001D000D0D0D082D083D0F0D0E03270
:03001300021CECE0
:101CEC00C0E0C0F0C083C082C0D075D000C000C0BE
:101CFC0001C002C003C004C005C006C007E53360C4
:101D0C0003121D2BD007D006D005D004D003D0026F
:0F1D1C00D001D000D0D0D082D083D0F0D0E03230
:03003B00021C1F85
:101C1F00C0E0C0F0C083C082C0D075D000C000C08B
:101C2F0001C002C003C004C005C006C007E5FA30FA
:101C3F00E00A75FA01E5336003121D2BD007D006B9
:101C4F00D005D004D003D002D001D000D0D0D082A4
:071C5F00D083D0F0D0E03289
:101A9100D285D293309228C3900021E0940612009F
:101AA10025504712002C9405120025403DE5656440
:101AB100017037F560756502E533602E021D2BD389
:101AC100900021E094061200254006E4F0A374067C
:101AD100F012001E400774FFF5F01212269000204C
:0B1AE100E07002A3E0700375650122B5
:0300630002190679
:10190600C0E0C0F0C083C082C0D075D000C000C0A7
:0D19160001C002C003C004C005C006C00728
:10192300E5AA30E12975AAA5E560B401217508147B
:10193300AF081508EF6008121A9175AAA580F1E5A2
:0E19430060B4010AC285C29375AAA5121DFBED
:10195100D007D006D005D004D003D002D001D000EA
:0B196100D0D0D082D083D0F0D0E03294
:101832007F04121A3312189F1219D0E4FBFD7F01A4
:10184200121B8D122033121AEC7F021220B01220CA
:101852000412211212211E12212A1217477B1F7A0B
:1018620000E4FD7F04122105120016D2ED753FFF40
:101872007540FE753D00753E05756502E4F560D262
:10188200AFE56070FCE55F600F1220751200761202
:0D18920019D0121AECE4F55F12001680E484
:101D6100E4F5B1F5A190FC00E04440F0E58654F0C3
:101D71004404F5861220D0EF60FAA2AF9201C2AFFF
:101D810075600112215FE58654F0440BF58675AA52
:031D9100A5D2AF29
:011D9400222C
:07215F00438702000000228B
:0E20D000E5FF7004E5FE60037F00227F012221
:1014D4000E030DED0DD70DC00DA80D900D770D5D0C
:1014E4000D420D270D0A0CED0CCF0CB10C920C72B1
:1014F4000C510C300C0E0BEC0BCA0BA70B840B60BD
:101504000B3D0B190AF50AD10AAD0A890A650A616D
:101514000A500A350A1209E909BB098B0959092637
:1015240008F208BF088D085D082D080007D307A836
:10153400077F07570730070A06E506C1069E067BA4
:1015440006590637061605F505D405B40594057441
:1015540005550535051704F804DA04BD04A0048311
:101564000466044A042E041203F703DB03BF03A337
:101574000386037A036B035A034803350321030DDF
:1015840002F802E402D002BD02AB0299028802779B
:1015940002680259024B023D023102240218020D74
:1015A400020201F701EC01E201D701CD01C201B849
:1015B40001AD01A30198018D01820178016D0163E0
:0215C4000158CC
:0A1E2A0002460000014A00014100D9
:101B4100E546C4F854F0C868F548E547C4540F4861
:101B5100F549E4F54AF546F54705412212215712A8
:101B6100000E121F2EEF2547F547EE3546F54605C7
:101B71004AE54AC39410227C007D640211897C00ED
:0C1B810012119BC3227C0012119BC32296
:101EB200EDC4333354C0441C4FF5B975BAF0BB01BD
:101EC2000DE519C4333354C04423F5BB800375BBFD
:0A1ED20023BD0102D2E843B920222B
:08215700E5BA54F04FF5BA227D
:04000E0043B9802250
:101F2E00E5B930E5FB43B920AFBDEFFEADBC7C009B
:101F3E00E42DFFEC3EC4F854F0C868FEEFC4540F15
:021F4E0048FF4A
:011F5000226E
:101EDC00E4FFEF25E024D4F582E43414F583D374C5
:101EEC0001939549E4939548500BEF24ECF539E4B4
:091EFC0034FFF538220FBF79D93B
:011F050022B9
:10003E007F02121B5D4003121B41E541D394024027
:10004E0012E4F541121EDC752D01E4F519FBFDFFDE
:03005E00121EB2BD
:01006100227C
:101D95007F05121B5D4003121B41E541D3940240B0
:101DA50021E4F54185484485494575270130840F6F
:101DB500752D0243D830F519FBFD7F01021EB2E4F3
:021DC500F52DFA
:011DC70022F9
:02135D008D0BF6
:10135F00C3EF9488EE941340077A007BC80214A65B
:10136F00C3EF9428EE940A40097D30121B7F74302E
:10137F00805CC3EF9414EE940540097D1A121B7F15
:10138F00745E804AC3EF9476EE940240117C007D28
:10139F000A1211897D8612119BC3748D8030C3EFA1
:1013AF009436EE940140177C007D0A121189EF7874
:1013BF0006CEC313CE13D8F9FFC374C08010C3EF8A
:1013CF0094A0EE940040107D03121B8674F79FFBD0
:1013DF0074019EFA0214A6C3EF9457EE9400400DC9
:1013EF00121B787D9212119BC374308040C3EF940F
:1013FF0031EE9400400D121B787D4C12119BC3747B
:10140F0066802AC3EF941FEE9400400D121B787D67
:10141F002412119BC374AE8014C3EF9414EE940086
:10142F004013121B787D1612119BC374E59FFB743A
:10143F00029EFA8062C3EF940DEE9400400D121BD2
:10144F00787D0E12119BC374198046C3EF9408EE7A
:10145F00940040107C037DE81211897D5C121B867D
:10146F007449802DC3EF9406EE940040137C037DE6
:10147F00E81211897C007D3612119BC3748A80118A
:10148F00121B78EF7802CEC313CE13D8F9FFC374B3
:10149F00CA9FFB74039EFAE50BD394285015E50BF6
:1014AF0075F002A4FFEB2432FDE43ACDC39FFBEDB0
:1014BF0095F0FAC3EB94E7EA940340047A037BE7D1
:0414CF00AF03AE02B7
:0114D30022F6
:10196C007F01121B5D4003121B41E541D3940240E1
:10197C0052E4F541854842854943AE42AF43FC7D74
:10198C002F121330C006C007C3E49543FF741095A3
:10199C0042AB07FAE4F9F8D007D006121278C3E587
:1019AC0038648094805007E4F509F50A8006853880
:1019BC000985390AAD0A12135D8E3A8F3B53D8CF85
:0319CC00E4F52D12
:0119CF0022F5
:03007300021BD796
:101BD700C0E0C0F0C083C082C0D075D000C000C0D4
:101BE70001C002C003C004C005C006C007E5D43069
:101BF700E30B75D408E52DB4020312196CD007D096
:101C070006D005D004D003D002D001D000D0D0D068
:081C170082D083D0F0D0E0324E
:10204A00EF1FAA0670011E4A600BE4FDEDC3940F50
:05205A0050EE0D80F7BF
:01205F00225E
:10209E00AC07AF041CEF60097F507E0012204A800F
:0220AE00F1221D
:1020B000AB07AF031BEF60077FF412209E80F32273
:101E5800751B08121F54751A0E751B04121F54D2D5
:101E68008022751B08121F74751A0E751B04121F29
:0E1E780074D28322D281E51AC313F51A0F2209
:031F5100751B08F5
:101F5400C280E4FFEFC3951B5012C281E51A30E042
:0C1F640004D2828002C282121E7C80E83F
:011F7000224E
:031F7100751B08D5
:101F7400C283E4FFEFC3951B5012C281E51A30E01F
:0C1F840004D2828002C282121E7C80E81F
:011F9000222E
:1019D0009080007402F0908001F0908002F090807E
:1019E00003F0D280D281751AC1121E58751A0112E5
:1019F0001F51751A0C121E61751A01121E58751AA4
:101A0000A1121E58751A39121E58D283D281751A26
:101A1000C1121E6A751A01121F71751A0C121E73FB
:101A2000751A01121E6A751AA1121E6A751A3912E8
:031A30001E6A2209
:101AEC00751A05121F51E4F51A751B01121F54E4E7
:101AFC00FE74002EF582E43400F583E0F51A751BB4
:101B0C0008121F540EBE10E9D280751A05121F71EF
:101B1C00E4F51A751B01121F74E4FE74102EF58285
:101B2C00E43400F583E0F51A751B08121F740EBE21
:041B3C000AE9D2835D
:011B40002282
:0D20DE00ED33333354F8FFE5DB54F04F22AF
:101F91008FC0EF30E0071220DE451180041220DEF1
:101FA1004BF5DBE50FC433333354804510F5DC22A8
:0B2142008FC08CDE8DDD8AD18BDF2288
:030066008FD9220D
:05000600E5D970FC22A9
:101E86008FC0EDC43333335480FFE5DB540F4FFF6F
:101E9600EBC4333354C04FFFE50FC43354E04FFF58
:0C1EA600E510C454F04FF5DB8511DA2282
:10174700750F01E4F510F5117B017D01FF1217B349
:101757007511017F011217B3F5117F04121F9175DF
:101767000F01E4F5107511017F05121F917B2C7A8B
:10177700017D587C02E4FF1221427F0312006612AA
:1017870000067B9A7A037D337C070F1221427F3054
:1017970012006612000643D830E4F50FF5107511F4
:1017A7000AFB7D017F04121E86D2EF22121F91755C
:0617B7000F01E4F5102211
:0D20F800001F1C1F1E1F1E1F1F1E1F1E1F6E
:101E3400015D17015C08015700015500015A1201A8
:051E44005805015B01DF
:03006B0002206010
:10206000C0E0E5EE30E10343EE02E5FA30E603437B
:05207000FA08D0E03287
:101B8D0043A108E5A130E2FBEFC43333335480FFAA
:101B9D00E5F1541F4FFFEDC4333354C04FFFEBC479
:101BAD003354E04FF5F17F17121FB17F3B121FD059
:101BBD007F1E1220C075F21E75F33B75F417AB5BDB
:0A1BCD00AD58AF5A1216CE8F592200
:1020C00043F1028FF27F647E0012204A53F1FD2219
:101FD0008F16121FD9121FD92243F1028516F37FE3
:0A1FE000647E0012204A53F1FD2236
:101FB1008F16121FBA121FBA2243F102E5F454E040
:0F1FC1004516F5F47F647E0012204A53F1FD228D
:0D20EB00EF24D0FFEF54037002D322C32274
:10201C00BD020D1220EB5008ED9020F89304FF2226
:07202C00ED9020F893FF2264
:0416CE008B16A905C9
:1016D2007E14E9D39402500FEF75F06484E5F07044
:1016E200011E1F740C29F9EF1313543FFDEF2DFD5A
:1016F200E433FCEE1313543F7A002DFDEA3CFCAFB9
:1017020006EF75F002A4FFC3ED9FFBEC95F0FAE93A
:101712002401FFE433FE7C007D1A1211897D0A1236
:10172200119BEF2BFFEE3AFE7C00EF2516FFEC3EFD
:10173200CF24C2CF3409FE7D0712119BAF05EF60A3
:0417420001227F07FA
:011746002280
:101C6600855C5DE55C703F055BAD58AF5A12201C84
:101C7600D3EF6480F8E55B648098401F0558755B78
:101C860001D3E5586480948C4011755801055AD3E8
:101C9600E55A648094E34003E4F55AAB5BAD58AF74
:071CA6005A1216CE8F5922DD
:10208A0085F25585F357E5F4541FF55C655D6003E9
:04209A00121C66228C
:021E4900C18254
:0C21360043A180E5A254F84401F5A22268
:101A3300EFC394024057EFD39408505130022BAEBA
:101A4300A143A1E0759306759240759188E5915481
:101A5300C070FA859795859694E5A254F84405F5E8
:101A6300A27591C8E59154C070FAEF24FE33333365
:101A730054F84480F5ADE5AD30E0FBE5A254F844FD
:0D1A830004F5A2300207EE4440F5A1C202B6
:011A90002233
:101FEA005F066B2F363D7D077F3F208058F560B630
:0A1FFA00F263D3D770F7F3020885F5
:0C1E4B000A4B0908070604050302010009
:102075007F10900000E4F0A3DFFC7F0A900010E4DD
:04208500F0A3DFFCE9
:012089002234
:102033007F1090000074FFF0A3DFFC7F0A90001074
:0620430074FFF0A3DFFCB6
:012049002274
:101DC800EF14244BF8E6FBEF64056003BF060974C3
:101DD800F72DF582741F800774EA2DF582741F3C75
:101DE800F583E493FE74102BF582E43400F583E068
:021DF8004EF0AB
:011DFA0022C6
:101F0600EF14244BF8E6FDEF64056003BF06059069
:101F160020028003901FF5E493FE74102DF582E4F1
:071F26003400F583E05EF0DA
:011F2D002291
:10165200E475F001021226D3900025E0942C90004C
:1016620024E0940122E55A75F00A021167753D00E3
:10167200753E0522D390001BE0940590001AE09479
:101682000022D390001DE0940590001CE0940022FB
:10169200D3900027E0941E900026E0940022D3907D
:1016A200001FE0940590001EE0940022D3900029D0
:1016B200E0941E900028E0940022AE14AF157C0046
:0C16C2007D0A0211F0750C0C750D0C2255
:10189F0090801D7401F090801EF090801FF090805A
:1018AF000AF090801A7403F090801BF090800874F7
:1018BF0005F0908009F090800CF090800D04F0906E
:1018CF00800EF0908006F0908007F09080047402F4
:1018DF00F0908005F090800BF0753301D284753253
:1018EF0028D285E4F525F52DF53C752F017530F4DB
:0718FF00F522F527F52E226A
:101DFB00E4908000F0908001F0908002F0908003DE
:101E0B00F0C2A9C28CC2ABC28EF527752E01F5D8D4
:0F1E1B0075AAA5122136E4F5AD75AAA5021D61C1
:1000760020B739121676500312165212165950032B
:10008600121652121659500302011F90002AE070F0
:100096000FE53370057533018003E4F53312166FEF
:1000A60090002A7401F075322802011F121676405C
:1000B6005712165A5052E533604130843EE52E7091
:1000C6003A0525E525B40108855C3785572C802B34
:1000D600E525B4040DAB5BAD58AF5A1216CE8F5959
:1000E6008019E525D394054012E4F525AF37121F94
:1000F600B1AF2C121FD0E4FF1220C0E53360061208
:10010600166F753228E4F52EE490001AF0A3F090ED
:10011600002AF0900024F0A3F0E53370030210DA11
:1001260030B60302020A1216845003121652121631
:1001360084500302021790002BE060030201D1E510
:100146002524FE601F14602E14605014605A240487
:100156007076C3E55A648094E35004055A8069E4D6
:10016600F55A8064C3E5586480948C500405588021
:10017600577558018052121153AF5BEF3395E0FE6D
:10018600EF2401FFE43EFED3EF950E7480F86E98DF
:100196005004055B8032755B01802DC3E5376480B2
:1001A6009497502105378020C3E52C648094BB507A
:1001B60004052C8013E4F52CC3E53764809497502E
:1001C6000405378003E4F53712166F90002B74018F
:1001D600F01216925003121652121692401EE52481
:1001E600941E500405240524900026E4F0A3E5247B
:1001F600F0E490002BF090001CF0A3F0753228E498
:10020600F52E800DE490001CF0A3F090002BF0F585
:100216002430B5030202E31216A05003121652123E
:1002260016A050030202F090002CE07077E525241A
:10023600FE601A14602914603B1460452404706142
:10024600D3E55A648094804058155A8054D3E558B3
:100256006480948140041558804775580C8042127A
:100266001153D3E55B648094814004155B8032852D
:100276000E5B802DD3E5376480948040211537804E
:1002860020D3E52C648094804004152C8013752CB3
:100296003BD3E53764809480400415378003753777
:1002A6001712166F90002C7401F01216AE5003123E
:1002B60016521216AE401EE531941E500405310545
:1002C60031900028E4F0A3E531F0E490002CF090A2
:1002D600001EF0A3F0753228E4F52E800DE4F5310A
:1002E60090001EF0A3F090002CF0900019E04480DE
:1002F600F0900016E04480F0900012E04480F0A3F5
:10030600E04480F0900008E04401F04408F0440422
:10031600F00526E526D394324012E4F526E556602C
:1003260005E4F556800375560175230112208AE50A
:1003360022700D121667F50C12166785F00D8003F4
:100346001216C77F011211387F02121141E5227081
:1003560011E558121669F50CE55812166985F00D67
:1003660080031216C7E50CB401028007900018E05E
:100376004480F0900017E04480F07F03121141E5BD
:10038600227011E55B121669F50CE55B121669859C
:10039600F00D80031216C77F0412114AE50DFD7C8D
:1003A600007F05121DC8E559FD3395E0FC7F061256
:1003B6001DC8E5257012C3E55C6480948C4004E595
:1003C6005C8010855C11801BC3E5376480948C408B
:1003D60008E53724F4F511800A853711900008E006
:1003E60054FBF0E525700585570F8003852C0FE536
:1003F60025B40407B40408E55660047F0180027F33
:1004060000AD07E51112130A04360004820104CE7A
:1004160002051A0305660405B20505FE06064A0727
:1004260006960806E209072D0A077F0B000007D586
:10043600E50FC3940C5009ED600690000102075ABF
:10044600E50FC394185009ED600690000102076D90
:10045600E50FC394245009ED600690000102077968
:10046600E50FC394305009ED600690000102078C39
:10047600ED70030207D590000C0207D1E50FC39477
:100486000C5009ED600690000C0207C5E50FC394F9
:10049600185009ED600690000C0207B2E50FC394F0
:1004A600245009ED600690000C02079FE50FC394E7
:1004B600305009ED600690000E02078CED700302C5
:1004C60007D590000E020779E50FC3940C5009ED8D
:1004D600600690000E02076DE50FC394185009EDF3
:1004E600600690000E02075AE50FC394245009EDEA
:1004F600600690000E0207D1E50FC394305009ED57
:10050600600690000E0207C5ED70030207D5900045
:100516000E0207B2E50FC3940C5009ED6006900079
:100526000E02079FE50FC394185009ED6006900070
:100536000B02079FE50FC394245009ED6006900057
:100546000B0207B2E50FC394305009ED6006900028
:100556000B0207C5ED70030207D590000B0207D109
:10056600E50FC3940C5009ED600690000B02075A84
:10057600E50FC394185009ED600690000B02076D55
:10058600E50FC394245009ED600690000B0207792D
:10059600E50FC394305009ED600690000B02078CFE
:1005A600ED70030207D590000902079FE50FC3947B
:1005B6000C5009ED60069000090207B2E50FC394DE
:1005C600185009ED60069000090207C5E50FC394AF
:1005D600245009ED60069000090207D1E50FC39487
:1005E600305009ED600690000902075AED700302CB
:1005F60007D590000902076DE50FC3940C5009ED6D
:100606006006900009020779E50FC394185009EDBA
:10061600600690000902078CE50FC394245009ED8B
:10062600600690000702078CE50FC394305009ED71
:100636006006900007020779ED70030207D5900067
:100646000702076DE50FC3940C5009ED6006900094
:100656000702075AE50FC394185009ED600690008B
:10066600040207D1E50FC394245009ED60069000FB
:10067600040207C5E50FC394305009ED60069000EB
:10068600040207B2ED70030207D590000402079F2B
:10069600E50FC3940C5009ED600690000602078C26
:1006A600E50FC394185009ED60069000060207791D
:1006B600E50FC394245009ED600690000602076D0D
:1006C600E50FC394305009ED600690000602075A04
:1006D600ED70030207D59000060207D1E50FC3941B
:1006E6000C5009ED60069000060207C5E50FC3949D
:1006F600185009ED60069000060207B2E50FC39494
:10070600245009ED600690000602079FE50FC3948A
:10071600305008ED6005900003807EED70030207FF
:10072600D59000030207B2E50FC3940C5009ED60A3
:10073600069000030207C5E50FC394185009ED6043
:10074600069000030207D1E50FC39424500CED6018
:1007560009900003E04401F08075E50FC394305022
:100766000CED6009900003E04402F08062ED605FEA
:10077600900003E04404F08056E50FC3940C500C3F
:10078600ED6009900003E04408F08043E50FC39450
:1007960018500CED6009900001E04480F08030E5CF
:1007A6000FC39424500CED6009900001E04440F022
:1007B600801DE50FC39430500CED6009900001E0F8
:1007C6004420F0800AED6007900001E04410F0E557
:1007D60025B40507B40508E55660047F0180027F4D
:1007E60000AD07E50F12130A08A60008B90108CCE8
:1007F6000208DF0308F204090305091406092507A0
:10080600093608094909095C0A096F0B09820C09AE
:10081600930D09A40E09B50F09C61009D91109ECE3
:100826001209FF130A12140A25150A38160A4B175D
:100836000A5E180A6F190A801A0A911B0AA21C0A74
:10084600B51D0AC81E0ADB1F0AEE200AFE210B0E82
:10085600220B1E230B2E240B3F250B50260B612744
:100866000B72280B86290B9A2A0BAE2B0BC22C0B6C
:10087600D52D0BE82E0BFB2F0C0E300C22310C3530
:10088600320C48330C5B340C71350C84360C9737BC
:100896000CAA380CBB390CCC3A0CDD3B00000CEC36
:1008A600ED7003020CEC900001E04401F090000CA6
:1008B600020CE8ED7003020CEC900001E04402F03B
:1008C60090000C020CD7ED7003020CEC900001E0D6
:1008D6004404F090000C020CC6ED7003020CEC9080
:1008E6000001E04408F090000C020CB5ED70030224
:1008F6000CEC90000CE04410F0A3020CE8ED700341
:10090600020CEC90000CE04420F0A3020CD7ED7032
:1009160003020CEC90000CE04440F0A3020CC6ED80
:100926007003020CEC90000CE04480F0A3020CB5BE
:10093600ED7003020CEC90000EE04408F090000D00
:10094600020B82ED7003020CEC90000EE04404F002
:1009560090000D020B96ED7003020CEC90000EE079
:100966004402F090000D020BAAED7003020CEC900D
:10097600000EE04401F090000D020BBEED70030284
:100986000CEC90000EE04410F0A3020CE8ED7003AE
:10099600020CEC90000EE04420F0A3020CD7ED70A0
:1009A60003020CEC90000EE04440F0A3020CC6EDEE
:1009B6007003020CEC90000EE04480F0A3020CB52C
:1009C600ED7003020CEC90000BE04480F090000FF9
:1009D600020B82ED7003020CEC90000BE04440F039
:1009E60090000F020B96ED7003020CEC90000BE0EA
:1009F6004420F090000F020BAAED7003020CEC905D
:100A0600000BE04410F090000F020BBEED700302E5
:100A16000CEC90000BE04401F090000A020BBEEDD6
:100A26007003020CEC90000BE04402F090000A0206
:100A36000BAAED7003020CEC90000BE04404F0905E
:100A4600000A020B96ED7003020CEC90000BE044DA
:100A560008F090000A020B82ED7003020CEC900085
:100A660009E04480F0A3020CB5ED7003020CEC9093
:100A76000009E04440F0A3020CC6ED7003020CEC42
:100A8600900009E04420F0A3020CD7ED7003020C9D
:100A9600EC900009E04410F0A3020CE8ED700302AC
:100AA6000CEC900009E04401F0900008020BBEED4A
:100AB6007003020CEC900009E04402F0900008027A
:100AC6000BAAED7003020CEC900009E04404F090D0
:100AD6000008020B96ED7003020CEC900009E0444E
:100AE60008F0900008020B82ED7003020CEC9000F7
:100AF60007E04408F0020CA5ED7003020CEC900030
:100B060007E04404F0020C92ED7003020CEC900036
:100B160007E04402F0020C7FED7003020CEC90003B
:100B260007E04401F0020C6CED7003020CEC90003F
:100B360004E04410F0A3020CE8ED7003020CEC9004
:100B46000004E04420F0A3020CD7ED7003020CEC85
:100B5600900004E04440F0A3020CC6ED7003020CC2
:100B6600EC900004E04480F0A3020CB5ED700302A3
:100B76000CEC900006E04408F0900005E0020CA59D
:100B8600ED7003020CEC900006E04404F0900005C2
:100B9600E0020C92ED7003020CEC900006E04402B9
:100BA600F0900005E0020C7FED7003020CEC900063
:100BB60006E04401F0900005E0020C6CED700302C3
:100BC6000CEC900006E04410F0900000020CE8EDFA
:100BD6007003020CEC900006E04420F09000000246
:100BE6000CD7ED7003020CEC900006E04440F09048
:100BF6000000020CC6ED7003020CEC900006E04407
:100C060080F0900000020CB5ED7003020CEC900031
:100C160003E04480F0900000E0020CA5ED700302B2
:100C26000CEC900003E04440F0900000E0805DEDA5
:100C36007003020CEC900003E04420F0900000E00A
:100C46008037ED7003020CEC900003E04410F09046
:100C56000000E08011ED7003020CEC900003E0440C
:100C660001F0900002E04410F0807BED6078900087
:100C760003E04402F0900002E04420F08068ED605A
:100C860065900003E04404F0900002E04440F080E8
:100C960055ED6052900003E04408F0900002E044F5
:100CA60080F08042ED603F900001E04480F0A3E0D8
:100CB6004408F08031ED602E900001E04440F0A33E
:100CC600E04404F08020ED601D900001E04420F037
:100CD600A3E04402F0800FED600C900001E04410A8
:100CE600F0A3E04401F0E52570058555108003E486
:100CF600F510E51012130A0DB5000DBB010DC1026A
:100D06000DC7030DCD040DD3050DD9060DDF070D57
:100D1600E5080DEB090DF10A0DF70B0DFD0C0E03A1
:100D26000D0E090E0E0F0F0E15100E1B110E2112B1
:100D36000E27130E2D140E33150E39160E3F170EF1
:100D460045180E4B190E511A0E571B0E5D1C0E62DE
:100D56001D0E681E0E6E1F0E74200E7A210E7F2247
:100D66000E84230E89240E8F250E95260E9A270EA5
:100D76009F280EA4290EA92A0EAE2B0EB32C0EB850
:100D86002D0EBD2E0EC22F0EC7300ECC310ED13217
:100D96000ED6330EDB340EE4350EED360EF6370E78
:100DA600FF380F08390F113A0F1A3B00000F219038
:100DB600000C020F1D90000C020F1490000C020F85
:100DC6000B90000C020F0290000D020F1D90000DFB
:100DD600020F1490000D020F0B90000D020F0290EF
:100DE600000D020EF990000D020EF090000D020E9D
:100DF600E790000D020EDE90000F020F1D90000F0F
:100E0600020F1490000F020F0B90000F020F0290BA
:100E1600000F020EF990000F020EF090000F020E66
:100E2600E790000F020EDE90000A020EDE90000A26
:100E3600020EE790000A020EF090000A020EF990E8
:100E4600000A020F0290000A020F0B90000A020F1E
:100E56001490000A020F1D900008807C9000080282
:100E66000EE7900008020EF0900008020EF99000BE
:100E760007020EF9900007807190000780639000CA
:100E8600078055900005020F1D900005020F149073
:100E960000058071900005806390000580559000E4
:100EA6000580479000058039900005802B90000052
:100EB6008065900000805790000080499000008077
:100EC6003B900000802D900000801F900000801154
:100ED6009000008003900002E04410F0803D9000F6
:100EE60002E04420F08034900002E04440F0802B81
:100EF600900002E04480F08022900002E04408F076
:100F06008019900002E04404F08010900002E04452
:100F160002F08007900002E04401F0E5392540F533
:100F260015E538353FF514C3648094805027C3E433
:100F36009515F513E49514F51212115DD3E5139486
:100F460009E5126480948040067D0A7C008043ADEA
:100F560013AC12803DD3E5159463E5146480948048
:100F6600400912115D7D0A7C008027D3E51594099E
:100F7600E5146480948040161216BC8F0C1216BCC1
:100F86008D0D7F07121138E50DFD7C008004AD152F
:100F9600AC147F08121DC8AE3AAF3B7C007D0A1226
:100FA600119B8F0EE50E75F00A84F50CE50E75F0B3
:100FB6000A8485F00D7F0912114AE50DFD7C007F3C
:100FC6000A121DC8E52D14600804700812003E8040
:100FD60003121D95E5566032E52524FE6010146067
:100FE6001F240270257F01121F067F0280199000C0
:100FF60018E0547FF0900017E0547FF07F038007DD
:101006007F04121F067F05121F06E527B40138D399
:10101600E5459422E54494084005E4F5228028D36A
:10102600E5459400E5449408500FE5459499E54458
:1010360094074005752201800ED3E5459477E54473
:1010460094075003752202E5236059E4F523E5224F
:101056007004F53C8018E522B4010EE53CC39414F7
:10106600500C053C12166F8005E4F53CF533E5653A
:10107600B40105E4F565F532E532D3940040061572
:1010860032D284D285E5327002C2840535E53570E8
:1010960002053430840BE536600280057536018022
:1010A60003E4F536D3E5649400E56394004008E56F
:1010B60064156470021563E532704EE530452F7095
:1010C60048E52D7044E536704020853DE53E453DBA
:1010D60070378032E4F525C284F53CF532F52DF5FE
:1010E60034F535F563F564C285F527E532701AE502
:1010F60030452F7014E52D7010E536700C208509EB
:10110600E53E453D7003121DFBD3E5309400E52F07
:1011160094004008E53015307002152FE53E453D38
:10112600600CE53E153E7002153D43D8032253D8A8
:01113600FCBC
:1011370022E50CFD7C00121DC822E50DFD7C001286
:101147001DC822E50CFD7C00121DC822AD58AF5A00
:1011570012201C8F0E227D0A7C007F07121DC822D9
:0D210500EFC43354E04DF5A98AAC8BAB223A
:0400160075AAA52200
:030000000215C620
:0C15C600787FE4F6D8FD75816502160DF3
:1015D200021832E493A3F8E493A34003F68001F2E5
:1015E20008DFF48029E493A3F85407240CC8C3331A
:1015F200C4540F4420C8834004F456800146F6DFE9
:10160200E4800B0102040810204080901E2AE47E30
:10161200019360BCA3FF543F30E509541FFEE493DD
:10162200A360010ECF54C025E060A840B8E493A3A4
:10163200FAE493A3F8E493A3C8C582C8CAC583CACF
:10164200F0A3C8C582C8CAC583CADFE9DEE780BE87
:011E5700008A
:10116700C2D530F707B2D563F0FF05F030E70CB210
:10117700D5F4048463F0FF05F080018430D502F4D0
:02118700042240
:10118900EF8DF0A4A8F0CF8CF0A428CE8DF0A42E7A
:02119900FE2234
:10119B00BC000BBE0029EF8DF084FFADF022E4CC38
:1011AB00F875F008EF2FFFEE33FEEC33FCEE9DEC01
:1011BB00984005FCEE9DFE0FD5F0E9E4CEFD22ED47
:1011CB00F8F5F0EE8420D21CFEADF075F008EF2F91
:1011DB00FFED33FD4007985006D5F0F222C398FD82
:0511EB000FD5F0EA221F
:1011F000C2D5EC30E709B2D5E4C39DFDE49CFCEE1A
:1012000030E715B2D5E4C39FFFE49EFE12119BC3E5
:10121000E49DFDE49CFC800312119B30D507C3E4E0
:061220009FFFE49EFE2288
:10122600C5F0F8A3E028F0C5F0F8E5821582700253
:061236001583E038F022F0
:10123C0075F008758200EF2FFFEE33FECD33CDCC69
:10124C0033CCC58233C5829BED9AEC99E5829840EC
:10125C000CF582EE9BFEED9AFDEC99FC0FD5F0D6C9
:10126C00E4CEFBE4CDFAE4CCF9A88222B800C1B9F3
:10127C000059BA002DEC8BF084CFCECDFCE5F0CB31
:10128C00F97818EF2FFFEE33FEED33FDEC33FCEB6A
:10129C0033FB10D703994004EB99FB0FD8E5E4F925
:1012AC00FA227818EF2FFFEE33FEED33FDEC33FC12
:1012BC00C933C910D7059BE99A4007EC9BFCE99A06
:1012CC00F90FD8E0E4C9FAE4CCFB2275F010EF2F4B
:1012DC00FFEE33FEED33FDCC33CCC833C810D7074B
:1012EC009BEC9AE899400AED9BFDEC9AFCE899F886
:0E12FC000FD5F0DAE4CDFBE4CCFAE4C8F92219
:10130A00D083D082F8E4937012740193700DA3A372
:10131A0093F8740193F5828883E473740293686086
:06132A00EFA3A3A380DF86
:10133000EC8EF0A4CCC5F0CCCDF8EFA4CEC5F02D4A
:10134000FDE43CFCE8A42EC8C5F03DFDE43CFCEF08
:0D135000A4FFE5F028FEE43DFDE43CFC2296
:00000001FF
