:041120008200000049
:1015CD00E5894410F589758DE8758B02D2ABD28E05
:0115DD0022EB
:03001B00021423A9
:10142300C0E0C083C082C0D0758DE8758B02900088
:10143300E7E004F0E0B4FF02E4F0D0D0D082D08340
:03144300D0E032C4
:10116F007F0412106C1215CD12165C7BFF7A087972
:10117F00001212BA7F007EC27D017C001207A312FB
:10118F00161E90801D7401F090800204F090801E56
:10119F00F0C2B6120F48C2827B087A077D017F0129
:0D11AF001215DED2AF12000E12001E80F8E5
:02112400C18286
:10106C00EFC394024057EFD39408505130022BAE8B
:10107C00A143A1E0759306759240759188E5915452
:10108C00C070FA859795859694E5A254F84405F5B9
:10109C00A27591C8E59154C070FAEF24FE33333336
:1010AC0054F84480F5ADE5AD30E0FBE5A254F844CE
:0D10BC0004F5A2300207EE4440F5A1C20287
:0110C9002204
:1015DE00EFC43354E04DF5A9EAF5ACAF038FAB225F
:04001E0075AAA522F8
:1012BA009080117441F0908008F0908009F090803D
:1012CA000AF090800BF090800CF090800DF09080E6
:1012DA000EF090800FF090801FF08B178A188919F2
:0412EA00750E0A2251
:1011BC00E4FFFE3097010F309604EF4402FF3095A8
:1011CC0004EF4404FF309404EF4408FF309004EF24
:1011DC004410FF309104EF4420FF309204EF444060
:1011EC00FF309304EF4480FF30A104EE4401FE3045
:0611FC00B704EE4402FE00
:0112020022C9
:0413D100AD07AC06B2
:1013D500E4FBFA74017E00A802088005C333CE330E
:1013E500CED8F9FFEE5CFEEF5D4E60010B0AEAB464
:0413F5000AE1AF0357
:0113F90022D1
:04134F00AD07AC0634
:10135300E4FBFA74017E00A802088005C333CE3390
:10136300CED8F9FFEE5CFEEF5D4E6004AB02800564
:071373000AEAB40ADEAF0331
:01137A002250
:100B4B001211BC8E138F14E51265147004E5116538
:100B5B001360148513118514121213D1BF0105757F
:100B6B000C018003E4F50CE50C601FAF14AE1312FF
:100B7B00134F8F0FE4F50AC3E51694B8E515940BE4
:100B8B0050080516E51670020515E516B42C1CE584
:100B9B0015B40117850F10750804E4F509750E0AD5
:100BAB00750D01750B017F01120006E50C703BD32F
:100BBB00E5169400E51594004030E50D7024E5161C
:100BCB009401E5159400401DE50E650F6005750950
:100BDB000180020509850F0E750A327F011200068E
:0A0BEB008003E4F50DE4F515F5169E
:010BF50022DD
:10124500E50AD394004033150AE50A702DE509B483
:1012550001057508018017E509B4020575080280C6
:101265000DE509B403057508038003E4F508E4F505
:0B12750009850E10750E0A750B012292
:10156C00E50C600DE50FB50708E508B40403AF0DF5
:04157C00227F0022A8
:0F15EE00E4FEE50B6007E510B50702AE08AF0697
:0115FD0022CB
:101467009000E7E0FF7803E26F6012EFF2120B4B98
:0D147700121245AA18A9191206CFE4F50BB0
:011484002245
:10158000000000000000000000000000000000005B
:041590000000000057
:10112600A02A0A00000000000000000000000000E5
:1011360000000000000000000000000000000000A9
:10114600000000000000000000000000000527006D
:10115600000000008134000621000000000000812C
:051166000400810900F6
:100A8A00781FE22401F218E23400F2E2FE08E2FFE3
:100A9A00E4FCFD7B0F7A27F9F8C302065EF218E23E
:100AAA0034FFF2E2FE08E2FFE4FCFDFBFAF9F8D3B8
:100ABA0002065E782C12066F782CEF2401FFE43EC2
:100ACA00FEE43DFDE43CFC0206887E00CFCDCFCE9D
:100ADA00CCCE1204D174482FF58274163EF583E405
:100AEA00932278B2E2FF04780AF2EF25E0240EF8A6
:100AFA00E2FE08E2FF781EEEF2FE08EFF2FF22782D
:100B0A000AE225E0240CF8E2FF08E2781ECFF20898
:100B1A00EFF22212066FE41202C47BA47A707955AE
:100B2A00784022781EE2FA08E2FBFFAE02227BFE40
:100B3A00E4F2087414F2227804E204F2E2D3941480
:010B4A002288
:100BF60078B47C007DFE7BFF7A1579807E007F14B9
:100C060012045378B474AAF2087455F2780EE2FF0F
:100C160008E278B6CFF208EFF27810E2FF08E27841
:100C2600B8CFF208EFF27812E2FF08E278BACFF214
:100C360008EFF27814E2FF08E278BCCFF208EFF290
:100C46007816E2FF08E278BECFF208EFF27818E2F3
:100C5600FF08E278C0CFF208EFF2781AE2FF08E266
:100C660078C2CFF208EFF2781CE2FF08E278C4CF30
:100C7600F208EFF2780AE2FF78C6E4F208EFF2E44F
:100C8600FF1215247A0079B478CD120B38E4FFFEF2
:030C960002132125
:100E55007A0079B478CD120B38E4FFFE1213FA78D4
:100E6500B6E2FF08E2780ECFF208EFF278B8E2FFBB
:100E750008E27810CFF208EFF278BAE2FF08E278DC
:100E850012CFF208EFF278BCE2FF08E27814CFF255
:100E950008EFF278BEE2FF08E27816CFF208EFF22B
:100EA50078C0E2FF08E27818CFF208EFF278C2E2E4
:100EB500FF08E2781ACFF208EFF278C4E2FF08E201
:0E0EC500781CCFF208EFF278C608E2780AF245
:010ED30022FC
:100F480090FC04747FF07BFE7A0079B278CDE4F2ED
:100F5800087402F2E4FFFE1213FA78B2E2B4AA06A9
:100F680008E264556043780EE4F2087405F208E478
:100F7800F208740FF208120B3A08E4F2087419F236
:100F880008E4F2087464F2087401F208742CF20898
:100F98007401F20874F4F2087404F20874B0F27878
:0F0FA8000A7401F2120BF68003120E55120B0998
:010FB7002217
:1014F300EF6011E5894401F589758CFB758A33D258
:09150300A9D28C22C2A9C28C22DB
:03000B00020C994B
:100C9900C0E0C0F0C083C082C0D075D000C000C021
:100CA90004C005C006C007782412066F7824120A0A
:100CB900C4758CFB758A3330B5317825E6700F78A9
:100CC90023E6B4010918E6C3940450027600782398
:100CD900E67012782106E6C3941C40097600782351
:100CE9007601120ABD78257601802F7825E6B401B0
:100CF9000F7823E6700A7821E6C39404500276003F
:100D09007823E6B401101806E6C3941C400876005F
:100D1900087600120ABD78257600D007D006D005DE
:0F0D2900D004D000D0D0D082D083D0F0D0E03230
:10148500EF601190801D7401F0758F1DD2A8D2896F
:0D149500C2888004C2A8C289D288D2B822C1
:0300030002001ADE
:01001A0032B3
:10080000E478B2F278B2E2FFC39408400201F61233
:1008100015EEEF6401703F780DE2700B18E2700581
:10082000120AEC806501E678B2E2FF2401FDE433B0
:10083000FC780AE2B50516E4B50412781EE2FC085D
:10084000E2FDEF25E0240EF8ECF208EDF2120BF6D3
:10085000E4780DF201EF78B2E2FF1215EEEF6402D8
:100860007060780DE2600201EF18E2705378B2E236
:10087000FF04780AF2EF25E0240EF909E325E0FFF2
:1008800019E333FE781EF208EFF2E4FCFD081206CD
:1008900088E4FF1214F31214857820120B1D120243
:1008A00027E4FBFAF9783F12002D12030278301288
:1008B0000688780C7401F2187464F2120BF6802F1B
:1008C000802478B2E2FF1215EEEF64047021780CF8
:1008D000E27013120AECE4FCFD08120688E4780CBE
:1008E000F20804F28009E4780CF278347464F27847
:1008F000B2E204F20104780DE2700221B77F08121F
:1009000015EEBF0107120A8A504421487F081215CC
:10091000EEBF020C781FE22402120A8F50308028AA
:100920007F081215EEBF030C781FE22403120A8F12
:10093000501C80147F0812156CEF6012120B41409E
:100940000DE4F2120A8A5006E4781EF208F27F09DA
:100950001215EEBF010C781FE224FF120AA7405BBC
:1009600080267F091215EEBF020C781FE224FE12CA
:100970000AA7404780127F091215EEBF0314781FA3
:10098000E224FD120AA74033781E7427F208740F80
:10099000F2227F0912156CEF6021120B41401CE41A
:1009A000F2781FE224FFF218E234FF120A94500B8F
:0B09B000E4781EF208F222E47804F262
:0109BB002219
:10159400E47824F67826F67821F608F67825F678A5
:0315A40023F62209
:1006D500780CE214601314604A24026002E1A2C29D
:1006E500B6E4FF1214F30214859000E7E0FF7805E5
:1006F500E26F7002E1A2EFF2780BE214F2E260021F
:10070500E1A2087402F27824120694000000007831
:100715002C120694000000007F011214F3121594A8
:03072500D2B62227
:10072800782C120B1D12011E12030278B2120688D1
:10073800782012066F78B212067BD312065E400A42
:10074800782012066F78B212068878B212066FAB5C
:1007580007AA06782012066FC3EF9B781FF2EE9A5D
:1007680018F2783012066FEF24FFFFEE34FFFEED2B
:1007780034FFFDEC34FFFC782C12067BC312065EB6
:100788004018C2B6E4FF1214F3121485E4780CF290
:0A079800781EF208F278347464F25F
:0107A2002234
:1009BC009000E7E0FF7807E26F70024189EFF218D0
:1009CC00E204F27834E2D394004003E214F27806A5
:1009DC00E2C3941450024189E4F2780DE2601C7871
:1009EC0008E204F2E2D394054022E4F208E2600447
:1009FC00E4F2801878097401F28011E47809F27835
:100A0C0034E27008780CE27003120B097C037DE869
:100A1C00120B2D120ADC7828F67C037DE8AF03AEAE
:100A2C00021204D17F64120AD47829F67C007D640A
:100A3C00120B2D1204D17F0A120AD4782AF67C00EC
:100A4C007D0AAF03AE021204D174482DF5827416E0
:100A5C003CF583E4937827F67809E2600690165209
:100A6C00E48006780AE290164893782BF67B007A9D
:0D0A7C0000792778B67405F2E4FF120FB878
:010A8900224A
:0C000E001214671206D51209BC02100083
:0B164800EB28737AB8DADB68FBFA00CD
:09165300C2817F147E000214AF75
:0F161E009080007402F0908001F07F010213A70A
:0D14A2007F147E001214AFD2817F287E00DF
:0E14AF00EF1FAC0670011E4C60030080F3229C
:1015A700D2801214A2C2801214ABC2817F287E009F
:0315B7000214AF6C
:10150C00C2811214ABC2801214A2D2801214ABC2CC
:08151C00817F287E000214AF5C
:10137B00AD07C280121655C281E4FB121653ED3035
:10138B00E004D2808002C2801214ABD281EDC31371
:0B139B00FD0BEBB408E5121653C280F6
:0113A6002224
:1013A700AD07D280121655D281ED70071215A77FAF
:1013B7008080101215A77F4012137B12150C12158F
:0A13C700A77F8A12137B12150C2277
:070FB80078B31206C6AD0775
:100FBF001215A7ED24C0FF12137BE478B7F278B6B1
:100FCF00E2FF3395E0FE08E2C39FEE6480F8748081
:100FDF0098501B78B31206AD78B7E2F5827583008F
:100FEF00120492FF12137B78B7E204F280D002153D
:010FFF000CE5
:03116B00813700C9
:07165C0090801C7482F02253
:101000007836E2FF9000E7E0FE6F605FEEF218E2F4
:1010100004F27837E214600D146017146021146034
:101020003E2404803D7835E2C3940F5003D2B422AD
:1010300080307835E2C394285003D2B422802378DC
:1010400035E2FFC3940F5003D2B422EFC3941E5075
:1010500003C2B422EFC3942D5003D2B4228003D232
:0B106000B422E47835F27837F2C2B415
:01106B002262
:050006007837EFF22243
:100D3800AC06E490FC01F0742A90FC03F0EC90FC03
:100D480006F090FC05EFF090FC0122784612068828
:100D5800784612066FE4FB7A01F9F8120526784600
:100D6800120688784612067B90FC02E0FFE4FCFD40
:100D7800FE1206437846020688F090FC02EDF0E485
:100D880090FC01F090FC0374AAF022AA06E490FCFF
:100D980001F090FC032290FC02E0FDE475F00102F2
:100DA80006B6E490FC01F0EF75F080A4FDACF0907D
:100DB800FC0322D3E29F18E29E22F090FC02E0FF9F
:010DC8002208
:10152400120DAA742AF0EC90FC06F0AF05120D4AD5
:071534007403F0E4120D8BBB
:01153B00228D
:1015FE00120D93742AF0EA120D467402120D812216
:0713210078CA1206C6AD07F1
:10132800120D387402F0E4FFFE78CE120DBB4013A4
:1013380078CA120DA312047990FC02F00FBF0001C5
:061348000E80E6120D8785
:01134E00227C
:0B163C00120D387401120DC2120D8750
:011647002280
:0513FA0078CA1206C6CE
:1013FF00120D387401F0E4FFFE78CE120DBB4010D1
:10140F0078CA120D9EED1204BF0FBF00010E80E9C6
:03141F00120D8724
:0114220022A7
:10153C00120DAA7429F0EC90FC06F0AF05120D4ABE
:07154C007407F0E4120D8B9F
:011553002275
:10160E00120D937429F0EA120D467406120D812202
:09128000783A1206C6AD07AC066F
:10128900E490FC01F07429120D417406F0E4FFFEAC
:10129900D3783EE29F18E29E4013783A120DA312CA
:1012A900047990FC02F00FBF00010E80E3120D8754
:0112B9002212
:0215BA00AC067D
:1015BC00120D957429120D447405120DC2120D876B
:0115CC0022FC
:0712EE0078411206C6AC06B0
:1012F500120D957429120D447405F0E4FFFED378A0
:1013050045E29F18E29E40107841120D9EED1204B1
:0B131500BF0FBF00010E80E6120D8725
:0113200022AA
:1010CA0090FC03742BF090FC017480F090FC067481
:1010DA0001F0E490FC05F090FC017481120DC2E469
:1010EA00FCFDFE120D53784612066FE4FB7A01F9F5
:1010FA00F81205267846120688784612067B90FC76
:10110A0002E0FFE4FCFDFE120643120D53120D87A6
:05111A00784612066F8B
:01111F0022AD
:0F162D0008E2FF24FFF218E2FE34FFF2EF4E2234
:10144600EF7802C333CE33CED8F9FFEF1FAA06706A
:10145600011E4A600BE4FDEDC3940F50EE0D80F7BC
:011466002263
:1014BD00784AEEF208EFF2784A12162D60097F5045
:0B14CD007E0012144680F075AAA522D4
:10155400784CEEF208EFF2784C12162D60097FF405
:081564007E011214BD80F0228B
:1014D800A3E004F0E075F06484E5F0F0E0244EF851
:0B14E8002224D1F582E43400F58322B9
:0507A30078B212068887
:1007A8009080197403F0908018F0E49000E5F0A3AD
:1007B800F09000CFF0A3F0C201C2007F20FEFDFC44
:1007C80078B212067B120526A804A905AA06AB076B
:1007D800E4FFFE7DE1FC1205B1C3E49FFFE49EAD9A
:1007E8000775C824F5CBAE058ECAF5CD8ECCD2CE12
:0507F800759850D2AC21
:0107FD0022D9
:101203009000E6E0FD9000E5E0FCC39D5006C3EDD1
:101213009CFE800DED2464FE9000E5E0FDC3EE9D91
:10122300FEEED3940140D9C2AC9000E51214D9EF7D
:10123300F220010BD2AC1214D8E2F599D20122D2DA
:01124300ACFE
:011244002287
:03002300020ED4F6
:100ED400C0E0C0F0C083C082C0D075D000C000C0E4
:100EE40007309836C2989000CFE075F01484E5F08E
:100EF400F0E0FF1214E9E599F074D02FF582E434A0
:100F040000F583E0B40D0D9000CFE01214E9E0B4D5
:100F14000A02D2009000CFE004F0309918C29990F0
:100F240000E6E0FF9000E5E06F60081214D8E2F5F7
:100F3400998002C201D007D000D0D0D082D083D013
:040F4400F0D0E032D7
:03000000020DC925
:0C0DC900787FE4F6D8FD75812B020E1037
:1000260002036EE86480F8E933E83360110460F097
:10003600ED33EC337009E8FCE9FDEAFEEBFF220440
:1000460060DED3EB9FEA9EE99DE8C2E78CF0C2F73B
:1000560095F0400CE8CCF8E9CDF9EACEFAEBCFFB07
:1000660012033985D0F05804700320D5B3E8047024
:10007600075002B2D502037892D5EC0460F7E4CCBF
:10008600C0E0C398F8603B94186008400DD0E0FBD0
:10009600020350E4FBFAC9FC8028E830E406E4C910
:1000A600FBE4CAFCE830E305E4C9CACBFCE8540724
:1000B6006010F8C3E913F9EA13FAEB13FBEC13FC2F
:1000C600D8F130F52FC3E49CFCEF9BFFEE9AFEEDD2
:1000D60099FDD0E0FBEF4E4D4C701222DB0302037C
:1000E60075EC2CFCEF33FFEE33FEED33FDED30E720
:1000F600EB020350EF2BFFEE3AFEED39FDD0E0FBAD
:1001060050130BBB0003020378ED13FDEE13FEEF55
:0801160013FFEC13FC0203507F
:10011E00EC4D6011E8497017ED33EC3304600DE4DB
:10012E00FCFFFEFD22E933E8330470F802036E1281
:10013E00033958046009E4CC248150062850090282
:10014E000378284003020375C0E0EB4A7044B9807F
:10015E0006D0E0FB020364EF4E701CBD8008EBFF7F
:10016E00EAFEE9FD80EBE98DF0A4FEE5F002020760
:10017E00E9CDF9EAFEEBFFEF89F0A4FCE5F0CE89BC
:10018E00F0A42EFFE435F0CD89F0A42DFEE435F079
:10019E008067EF4E7005BD80D780C3EF8BF0A4ACA7
:1001AE00F0EE8BF0A42CFCE435F0F8EF8AF0A42CE2
:1001BE00E5F038FCE433CB8DF0A42CFCE5F03BF8F5
:1001CE00EE8AF0A42CFCE5F038F8E433CF89F0A4E5
:1001DE002CFCE5F038CF3400CE89F0A42FFFE5F0EB
:1001EE003EFEE433C98DF0A42EFEE5F039CD8AF043
:1001FE00A42FFFE5F03EFEE43DFD33D0E0FB5007BB
:10020E000BBB000F020378EC2CFCEF33FFEE33FE3A
:06021E00ED33FD02035068
:10022400020378EC5D046005E85904700302036E70
:10023400120339580460F6EC4860F2EC7004FDFED9
:10024400FF22C860DB2481C85009C39860025006AD
:100254000203759850CAF582E9294B4A7005AB82AE
:1002640002036475F0007C1A7880C3EF9BEE9AED6C
:1002740099400DC3EF9BFFEE9AFEED99FDE842F025
:10028400DC23ACF0D0E0FFD0E0FED0E0FDAB822078
:10029400E7101BEB60BAEC2CFCEF33FFEE33FEED02
:1002A40033FD020350E803F830E705C0F075F000B1
:1002B400EF2FFFEE33FEED33FD40B830E7C280AAE6
:1002C40075F020800E75F010800575F0087D007EB5
:1002D400007F003392D530D503120650EC33401022
:1002E400EF33FFEE33FEED33FDEC33FCD5F0ED22BE
:0E02F400E5F0247EA2D513CC92E7CDCEFF22FA
:10030200EDD2E7CD33EC3392D524814006E4FFFEF3
:10031200FDFC22FCE4CFCECDCC24E0501174FF8052
:10032200EDC3CC13CCCD13CDCE13CECF13CF0470EF
:07033200F030D5DE02065099
:10033900E9D2E7C933E833F892D5EDD2E7CD33EC0A
:0703490033FC5002B2D52283
:10035000EC30E7100FBF000C0EBE00080DBD00040E
:100360000BEB6014A2D5EB13FCED92E7FD2274FFBA
:10037000FCFDFEFF22E480F8A2D574FF13FC7D8013
:03038000E480EF27
:100DD50002116FE493A3F8E493A34003F68001F2B4
:100DE50008DFF48029E493A3F85407240CC8C3331F
:100DF500C4540F4420C8834004F456800146F6DFEE
:100E0500E4800B0102040810204080901120E47E4C
:100E1500019360BCA3FF543F30E509541FFEE493E2
:100E2500A360010ECF54C025E060A840B8E493A3A9
:100E3500FAE493A3F8E493A3C8C582C8CAC583CAD4
:100E4500F0A3C8C582C8CAC583CADFE9DEE780BE8C
:01116E000080
:10038300E709F608DFFA8046E709F208DFFA803E5C
:1003930088828C83E709F0A3DFFA8032E309F60849
:1003A300DFFA8078E309F208DFFA807088828C83B1
:1003B300E309F0A3DFFA806489828A83E0A3F60865
:1003C300DFFA805889828A83E0A3F208DFFA804C3F
:1003D30080D280FA80C680D4806980F28033801016
:1003E30080A680EA809A80A880DA80E280CA80337F
:1003F30089828A83ECFAE493A3C8C582C8CCC583F7
:10040300CCF0A3C8C582C8CCC583CCDFE9DEE780C6
:100413000D89828A83E493A3F608DFF9ECFAA9F045
:10042300EDFB2289828A83ECFAE0A3C8C582C8CC9B
:10043300C583CCF0A3C8C582C8CCC583CCDFEADEB4
:10044300E880DB89828A83E493A3F208DFF980CC16
:1004530088F0EF60010E4E60C388F0ED2402B4040F
:100463000050B9F582EB2402B4040050AF232345B6
:0604730082239003D37305
:10047900BB010689828A83E0225002E722BBFE0281
:09048900E32289828A83E49322B4
:10049200BB010CE58229F582E5833AF583E022501F
:1004A20006E92582F8E622BBFE06E92582F8E22269
:0D04B200E58229F582E5833AF583E4932283
:1004BF00BB010689828A83F0225002F722BBFE011C
:0204CF00F32216
:1004D100BC000BBE0029EF8DF084FFADF022E4CC0F
:1004E100F875F008EF2FFFEE33FEEC33FCEE9DECD8
:1004F100984005FCEE9DFE0FD5F0E9E4CEFD22ED1E
:10050100F8F5F0EE8420D21CFEADF075F008EF2F67
:10051100FFED33FD4007985006D5F0F222C398FD58
:050521000FD5F0EA22F5
:10052600E88FF0A4CC8BF0A42CFCE98EF0A42CFC74
:100536008AF0EDA42CFCEA8EF0A4CDA8F08BF0A4F2
:100546002DCC3825F0FDE98FF0A42CCD35F0FCEB51
:100556008EF0A4FEA9F0EB8FF0A4CFC5F02ECD3916
:0F056600FEE43CFCEAA42DCE35F0FDE43CFC2283
:1005750075F008758200EF2FFFEE33FECD33CDCC3D
:1005850033CCC58233C5829BED9AEC99E5829840C0
:100595000CF582EE9BFEED9AFDEC99FC0FD5F0D69D
:1005A500E4CEFBE4CDFAE4CCF9A88222B800C1B9C7
:1005B5000059BA002DEC8BF084CFCECDFCE5F0CB05
:1005C500F97818EF2FFFEE33FEED33FDEC33FCEB3E
:1005D50033FB10D703994004EB99FB0FD8E5E4F9F9
:1005E500FA227818EF2FFFEE33FEED33FDEC33FCE6
:1005F500C933C910D7059BE99A4007EC9BFCE99ADA
:10060500F90FD8E0E4C9FAE4CCFB2275F010EF2F1E
:10061500FFEE33FEED33FDCC33CCC833C810D7071E
:100625009BEC9AE899400AED9BFDEC9AFCE899F859
:0E0635000FD5F0DAE4CDFBE4CCFAE4C8F922EC
:0D064300EF4BFFEE4AFEED49FDEC48FC22B6
:0E065000C3E49FFFE49EFEE49DFDE49CFC22BB
:10065E00EB9FF5F0EA9E42F0E99D42F0E89C45F0F2
:01066E002269
:0C066F00E2FC08E2FD08E2FE08E2FF22C7
:0D067B00E2FB08E2F908E2FA08E2CBF822FF
:0C068800ECF208EDF208EEF208EFF222AE
:10069400D083D082E493F208740193F20874029335
:0906A400F208740393F27404736C
:0906AD00E2FB08E2FA08E2F9227E
:1006B600FAE2FB0808E2F925F0F218E2CA3AF22259
:0906C600EBF208EAF208E9F22265
:0606CF008A838982E473B6
:00000001FF
