:040FAE0082000000BD
:10161100E5894410F589758DE8758B02D2ABD28EC0
:0116210022A6
:03001B0002144389
:10144300C0E0C083C082C0D0758DE8758B02900068
:10145300EEE004F0E0B4FF02E4F0D0D0D082D08319
:03146300D0E032A4
:101120007F0412106C1216111216A07BFF7A087938
:10113000001212B37F007EC27D017C001207A31251
:10114000166290801D7401F090800204F090801E61
:10115000F0C2B6120F3EC2827B087A077D017F0182
:0D116000121622D2AF12000E12001E80F8EF
:020FB200C182FA
:10106C00EFC394024057EFD39408505130022BAE8B
:10107C00A143A1E0759306759240759188E5915452
:10108C00C070FA859795859694E5A254F84405F5B9
:10109C00A27591C8E59154C070FAEF24FE33333336
:1010AC0054F84480F5ADE5AD30E0FBE5A254F844CE
:0D10BC0004F5A2300207EE4440F5A1C20287
:0110C9002204
:10162200EFC43354E04DF5A9EAF5ACAF038FAB221A
:04001E0075AAA522F8
:1012B3009080117441F0908008F0908009F0908044
:1012C3000AF090800BF090800CF090800DF09080ED
:1012D3000EF090800FF090801FF08B178A188919F9
:0412E300750E0A2258
:1011B500E4FFFE3097010F309604EF4402FF3095AF
:1011C50004EF4404FF309404EF4408FF309004EF2B
:1011D5004410FF309104EF4420FF309204EF444067
:1011E500FF309304EF4480FF30A104EE4401FE304C
:0611F500B704EE4402FE07
:0111FB0022D1
:0413CA00AD07AC06B9
:1013CE00E4FBFA74017E00A802088005C333CE3315
:1013DE00CED8F9FFEE5CFEEF5D4E60010B0AEAB46B
:0413EE000AE1AF035E
:0113F20022D8
:04134800AD07AC063B
:10134C00E4FBFA74017E00A802088005C333CE3397
:10135C00CED8F9FFEE5CFEEF5D4E6004AB0280056B
:07136C000AEAB40ADEAF0338
:011373002257
:100B41001211B58E138F14E51265147004E5116549
:100B51001360148513118514121213CABF01057590
:100B61000C018003E4F50CE50C601FAF14AE131209
:100B710013488F0FE4F50AC3E51694B8E515940BF5
:100B810050080516E51670020515E516B42C1CE58E
:100B910015B40117850F10750804E4F509750E0ADF
:100BA100750D01750B017F01120006E50C703BD339
:100BB100E5169400E51594004030E50D7024E51626
:100BC1009401E5159400401DE50E650F600575095A
:100BD1000180020509850F0E750A327F0112000698
:0A0BE1008003E4F50DE4F515F516A8
:010BEB0022E7
:10123E00E50AD394004033150AE50A702DE509B48A
:10124E0001057508018017E509B4020575080280CD
:10125E000DE509B403057508038003E4F508E4F50C
:0B126E0009850E10750E0A750B012299
:1015B000E50C600DE50FB50708E508B40403AF0DB1
:0415C000227F002264
:0F163200E4FEE50B6007E510B50702AE08AF0652
:011641002286
:1014AA009000EEE0FF7803E26F6012EFF2120B4158
:0D14BA0012123EAA18A9191206CFE4F50B74
:0114C7002202
:1015C4000000000000000000000000000000000017
:0415D4000000000013
:100FB400A02A110000000000000000000000000052
:100FC400000000000000000000000000000000001D
:100FD40000000000000000000000000000052700E1
:100FE40000000000813B0081100006210000000089
:080FF4000000810400810900E6
:100A84007826E22401F218E23400F2E2FE08E2FFE2
:100A9400E4FCFD7B0F7A27F9F8C302065EF218E244
:100AA40034FFF2E2FE08E2FFE4FCFDFBFAF9F8D3BE
:100AB40002065E783312066F7833EF2401FFE43EBA
:100AC400FEE43DFDE43CFC0206887E00CFCDCFCEA3
:100AD400CCCE1204D1748C2FF58274163EF583E4C7
:100AE400932278B9E2FF047811F2EF25E02415F897
:100AF400E2FE08E2FF7825EEF2FE08EFF2FF22782C
:100B040011E225E02413F8E2FF08E27825CFF20889
:100B1400EFF2227825E2FA08E2FBFFAE0222120687
:100B24006FE41202C4780B02067B7BFEE4F20874C5
:0D0B340014F2227804E204F2E2D3941422B9
:100BEC0078BB7C007DFE7BFF7A1579C47E007F1478
:100BFC0012045378BB74AAF2087455F27815E2FF0C
:100C0C0008E278BDCFF208EFF27817E2FF08E2783D
:100C1C00BFCFF208EFF27819E2FF08E278C1CFF209
:100C2C0008EFF2781BE2FF08E278C3CFF208EFF28C
:100C3C00781DE2FF08E278C5CFF208EFF2781FE2E8
:100C4C00FF08E278C7CFF208EFF27821E2FF08E262
:100C5C0078C9CFF208EFF27823E2FF08E278CBCF25
:100C6C00F208EFF27811E2FF78CDE4F208EFF2E44B
:100C7C00FF1215687A0079BB78D4120B2EE4FFFEB4
:030C8C0002131A36
:100E4B007A0079BB78D4120B2EE4FFFE1213F378E1
:100E5B00BDE2FF08E27815CFF208EFF278BFE2FFB0
:100E6B0008E27817CFF208EFF278C1E2FF08E278D8
:100E7B0019CFF208EFF278C3E2FF08E2781BCFF24A
:100E8B0008EFF278C5E2FF08E2781DCFF208EFF227
:100E9B0078C7E2FF08E2781FCFF208EFF278C9E2D9
:100EAB00FF08E27821CFF208EFF278CBE2FF08E2FD
:0E0EBB007823CFF208EFF278CD08E27811F23A
:010EC9002206
:100F3E0090FC04747FF07BFE7A0079B978D4E4F2E9
:100F4E00087402F2E4FFFE1213F378B9E2B4AA06B3
:100F5E0008E2645560437815E4F2087405F208E47B
:100F6E00F208740FF208120B3008E4F2087419F24A
:100F7E0008E4F2087464F2087401F208742CF208A2
:100F8E007401F20874F4F2087403F20874E8F2784B
:0F0F9E00117401F2120BEC8003120E4B120B03B5
:010FAD002221
:10153700EF6011E5894401F589758CFB758A33D213
:09154700A9D28C22C2A9C28C2297
:03000B00020C8F55
:100C8F00C0E0C0F0C083C082C0D075D000C000C02B
:100C9F0004C005C006C007782B12066F782B120A06
:100CAF00BE758CFB758A3330B5317825E6700F78B9
:100CBF0023E6B4010918E6C39403500276007823A3
:100CCF00E67012782106E6C3941E40097600782359
:100CDF007601120AB778257601802F7825E6B401C0
:100CEF000F7823E6700A7821E6C39403500276004A
:100CFF007823E6B401101806E6C3941E4008760068
:100D0F00087600120AB778257600D007D006D005EE
:0F0D1F00D004D000D0D0D082D083D0F0D0E0323A
:10146600EF601790801D7401F0758F1DD2A8D28988
:10147600C288E4780FF208F28004C2A8C289D28832
:03148600D2B822B7
:0300030002001ADE
:01001A0032B3
:1014C800D37826E2942C18E29401780B500812067F
:0E14D8009440523D71221206944050000022B2
:10141C00D37826E2943218E29400501A78371206E8
:10142C006FEF24FFFFEE34FFFEED34FFFDEC34FFD5
:07143C00FC7837120688223C
:10080000E478B9F278B9E2FFC39408400201FC121F
:100810001632EF6401703F7814E2700B18E2700535
:10082000120AE6806501EC78B9E2FF2401FDE433A9
:10083000FC7811E2B50516E4B504127825E2FC084F
:10084000E2FDEF25E02415F8ECF208EDF2120BECD6
:10085000E47814F201F578B9E2FF121632EF64027F
:1008600070667814E2600201F518E2705978B9E216
:10087000FF047811F2EF25E02415F909E325E0FFE4
:1008800019E333FE7825F208EFF2E4FCFD081206C6
:1008900088E4FF1215371214661214C87827120B59
:1008A00022120227E4FBFAF9783F12002D1203020C
:1008B000783712068812141C78137401F2187464C5
:1008C000F2120BEC802F802478B9E2FF121632EF7F
:1008D000640470217813E27013120AE6E4FCFD0848
:1008E000120688E47813F20804F28009E47813F21F
:1008F000783B7464F278B9E204F201047814E2708F
:100900000221BD7F08121632BF0107120A8450442B
:10091000214E7F08121632BF020C7826E224021202
:100920000A89503080287F08121632BF030C7826BF
:10093000E22403120A89501C80147F081215B0EFBC
:100940006012120B37400DE4F2120A845006E4786C
:1009500025F208F27F09121632BF010C7826E22434
:10096000FF120AA1405B80267F09121632BF020CDB
:100970007826E224FE120AA1404780127F0912164F
:1009800032BF03147826E224FD120AA140337825F1
:100990007427F208740FF2227F091215B0EF60215C
:1009A000120B37401CE4F27826E224FFF218E234FE
:1009B000FF120A8E500BE47825F208F222E4780444
:0109C000F244
:0109C1002213
:1015D800E47824F67826F67821F608F67825F67861
:0315E80023F622C5
:1009C2007813E214601314604E240260024183C261
:1009D200B6E4FF1215370214669000EEE0FF7805C8
:1009E200E26F70024183EFF27812E214F2E26002E7
:1009F2004183087402F2782B1206940000000078FA
:100A020033120694000000007F011215371F1214E2
:070A1200661215D8D2B622CE
:100A19007833120B2212011E12030278B9120688CA
:100A2900782712066F78B912067BD312065E400A40
:100A3900782712066F78B912068878B912066FAB53
:100A490007AA06782712066FC3EF9B7826F2EE9A5B
:100A590018F2783712066F783312067BC312065ED6
:100A69004018C2B6E4FF121537121466E47813F27F
:0A0A79007825F208F2783B7464F26D
:010A83002250
:1006D5009000EEE0FF7807E26F7002E1A2EFF218FA
:1006E500E204F2783BE2D394004003E214F2780688
:1006F500E2C394145002E1A2E4F27814E2601C789B
:1007050008E204F2E2D394054022E4F208E2600430
:10071500E4F2801878097401F28011E47809F2781E
:100725003BE270087813E27003120B037C037DE84B
:10073500120B17120AD67828F67C037DE8AF03AEB4
:10074500021204D17F64120ACE7829F67C007D64FA
:10075500120B171204D17F0A120ACE782AF67C00F2
:100765007D0AAF03AE021204D1748C2DF582741686
:100775003CF583E4937827F67809E26006901696AF
:10078500E480067811E290168C93782BF67B007A3C
:0D07950000792778BD7405F2E4FF12116DA4
:0107A2002234
:0C000E001214AA1209C21206D50210003A
:0B168C00EB28737AB8DADB68FBFA0089
:09169700C2817F147E000214F3ED
:0F1662009080007402F0908001F07F010213A0CD
:0D14E6007F147E001214F3D2817F287E0057
:0E14F300EF1FAC0670011E4C60030080F32258
:1015EB00D2801214E6C2801214EFC2817F287E00D3
:0315FB000214F3E4
:10155000C2811214EFC2801214E6D2801214EFC2BC
:08156000817F287E000214F3D4
:10137400AD07C280121699C281E4FB121697ED30B4
:10138400E004D2808002C2801214EFD281EDC31334
:0B139400FD0BEBB408E5121697C280B9
:01139F00222B
:1013A000AD07D280121699D281ED70071215EB7F2E
:1013B0008080101215EB7F40121374121550121515
:0A13C000EB7F8A12137412155022FD
:07116D0078BA1206C6AD07B7
:101174001215EBED24C0FF121374E478BEF278BDAF
:10118400E2FF3395E0FE08E2C39FEE6480F87480CA
:1011940098501B78BA1206AD78BEE2F582758300CA
:1011A400120492FF12137478BEE204F280D0021586
:0111B40050EA
:030FFC00813E0033
:0716A00090801C7482F0220F
:10100000783DE2FF9000EEE0FE6F605FEEF218E2E6
:1010100004F2783EE214600D14601714602114602D
:101020003E2404803D783CE2C3940F5003D2B422A6
:101030008030783CE2C394285003D2B422802378D5
:101040003CE2FFC3940F5003D2B422EFC3941E506E
:1010500003C2B422EFC3942D5003D2B4228003D232
:0B106000B422E4783CF2783EF2C2B407
:01106B002262
:05000600783EEFF2223C
:100D2E00AC06E490FC01F0742A90FC03F0EC90FC0D
:100D3E0006F090FC05EFF090FC0122784D1206882B
:100D4E00784D12066FE4FB7A01F9F8120526784DFC
:100D5E00120688784D12067B90FC02E0FFE4FCFD43
:100D6E00FE120643784D020688F090FC02EDF0E488
:100D7E0090FC01F090FC0374AAF022AA06E490FC09
:100D8E0001F090FC032290FC02E0FDE475F00102FC
:100D9E0006B6E490FC01F0EF75F080A4FDACF09087
:100DAE00FC0322D3E29F18E29E22F090FC02E0FFA9
:010DBE002212
:10156800120DA0742AF0EC90FC06F0AF05120D40A5
:071578007403F0E4120D8181
:01157F002249
:10164200120D89742AF0EA120D3C7402120D7722EF
:07131A0078D11206C6AD07F1
:10132100120D2E7402F0E4FFFE78D5120DB14013B8
:1013310078D1120D9912047990FC02F00FBF0001CF
:061341000E80E6120D7D96
:011347002283
:0B168000120D2E7401120DB8120D7D2A
:01168B00223C
:0513F30078D11206C6CE
:1013F800120D2E7401F0E4FFFE78D5120DB14010E5
:1014080078D1120D94ED1204BF0FBF00010E80E9D0
:03141800120D7D35
:01141B0022AE
:10158000120DA07429F0EC90FC06F0AF05120D408E
:071590007407F0E4120D8165
:011597002231
:10165200120D897429F0EA120D3C7406120D7722DC
:0912790078411206C6AD07AC066F
:10128200E490FC01F07429120D377406F0E4FFFEBD
:10129200D37845E29F18E29E40137841120D9912CD
:1012A200047990FC02F00FBF00010E80E3120D7D65
:0112B2002219
:0215FE00AC0639
:10160000120D8B7429120D3A7405120DB8120D7D4E
:0116100022B7
:0712E70078481206C6AC06B0
:1012EE00120D8B7429120D3A7405F0E4FFFED378BB
:1012FE004CE29F18E29E40107848120D94ED1204B5
:0B130E00BF0FBF00010E80E6120D7D36
:0113190022B1
:1010CA0090FC03742BF090FC017480F090FC067481
:1010DA0001F0E490FC05F090FC017481120DB8E473
:1010EA00FCFDFE120D49784D12066FE4FB7A01F9F8
:1010FA00F8120526784D120688784D12067B90FC68
:10110A0002E0FFE4FCFDFE120643120D49120D7DBA
:05111A00784D12066F84
:01111F0022AD
:0F16710008E2FF24FFF218E2FE34FFF2EF4E22F0
:10148900EF7802C333CE33CED8F9FFEF1FAA067027
:10149900011E4A600BE4FDEDC3940F50EE0D80F779
:0114A9002220
:101501007851EEF208EFF2785112167160097F50AE
:0B1511007E0012148980F075AAA5224C
:101598007853EEF208EFF2785312167160097FF46F
:0815A8007E0112150180F02202
:10151C00A3E004F0E075F06484E5F0F0E02455F805
:0B152C002224D8F582E43400F583226D
:0507A30078B912068880
:1007A8009080197403F0908018F0E49000ECF0A3A6
:1007B800F09000D6F0A3F0C201C2007F20FEFDFC3D
:1007C80078B912067B120526A804A905AA06AB0764
:1007D800E4FFFE7DE1FC1205B1C3E49FFFE49EAD9A
:1007E8000775C824F5CBAE058ECAF5CD8ECCD2CE12
:0507F800759850D2AC21
:0107FD0022D9
:1011FC009000EDE0FD9000ECE0FCC39D5006C3EDCB
:10120C009CFE800DED2464FE9000ECE0FDC3EE9D91
:10121C00FEEED3940140D9C2AC9000EC12151DEF38
:10122C00F220010BD2AC12151CE2F599D20122D29C
:01123C00AC05
:01123D00228E
:03002300020ECA00
:100ECA00C0E0C0F0C083C082C0D075D000C000C0EE
:100EDA0007309836C2989000D6E075F01484E5F091
:100EEA00F0E0FF12152DE599F074D72FF582E4345E
:100EFA0000F583E0B40D0D9000D6E012152DE0B494
:100F0A000A02D2009000D6E004F0309918C29990F3
:100F1A0000EDE0FF9000ECE06F600812151CE2F5AE
:100F2A00998002C201D007D000D0D0D082D083D01D
:040F3A00F0D0E032E1
:03000000020DBF2F
:0C0DBF00787FE4F6D8FD75812B020E064B
:1000260002036EE86480F8E933E83360110460F097
:10003600ED33EC337009E8FCE9FDEAFEEBFF220440
:1000460060DED3EB9FEA9EE99DE8C2E78CF0C2F73B
:1000560095F0400CE8CCF8E9CDF9EACEFAEBCFFB07
:1000660012033985D0F05804700320D5B3E8047024
:10007600075002B2D502037892D5EC0460F7E4CCBF
:10008600C0E0C398F8603B94186008400DD0E0FBD0
:10009600020350E4FBFAC9FC8028E830E406E4C910
:1000A600FBE4CAFCE830E305E4C9CACBFCE8540724
:1000B6006010F8C3E913F9EA13FAEB13FBEC13FC2F
:1000C600D8F130F52FC3E49CFCEF9BFFEE9AFEEDD2
:1000D60099FDD0E0FBEF4E4D4C701222DB0302037C
:1000E60075EC2CFCEF33FFEE33FEED33FDED30E720
:1000F600EB020350EF2BFFEE3AFEED39FDD0E0FBAD
:1001060050130BBB0003020378ED13FDEE13FEEF55
:0801160013FFEC13FC0203507F
:10011E00EC4D6011E8497017ED33EC3304600DE4DB
:10012E00FCFFFEFD22E933E8330470F802036E1281
:10013E00033958046009E4CC248150062850090282
:10014E000378284003020375C0E0EB4A7044B9807F
:10015E0006D0E0FB020364EF4E701CBD8008EBFF7F
:10016E00EAFEE9FD80EBE98DF0A4FEE5F002020760
:10017E00E9CDF9EAFEEBFFEF89F0A4FCE5F0CE89BC
:10018E00F0A42EFFE435F0CD89F0A42DFEE435F079
:10019E008067EF4E7005BD80D780C3EF8BF0A4ACA7
:1001AE00F0EE8BF0A42CFCE435F0F8EF8AF0A42CE2
:1001BE00E5F038FCE433CB8DF0A42CFCE5F03BF8F5
:1001CE00EE8AF0A42CFCE5F038F8E433CF89F0A4E5
:1001DE002CFCE5F038CF3400CE89F0A42FFFE5F0EB
:1001EE003EFEE433C98DF0A42EFEE5F039CD8AF043
:1001FE00A42FFFE5F03EFEE43DFD33D0E0FB5007BB
:10020E000BBB000F020378EC2CFCEF33FFEE33FE3A
:06021E00ED33FD02035068
:10022400020378EC5D046005E85904700302036E70
:10023400120339580460F6EC4860F2EC7004FDFED9
:10024400FF22C860DB2481C85009C39860025006AD
:100254000203759850CAF582E9294B4A7005AB82AE
:1002640002036475F0007C1A7880C3EF9BEE9AED6C
:1002740099400DC3EF9BFFEE9AFEED99FDE842F025
:10028400DC23ACF0D0E0FFD0E0FED0E0FDAB822078
:10029400E7101BEB60BAEC2CFCEF33FFEE33FEED02
:1002A40033FD020350E803F830E705C0F075F000B1
:1002B400EF2FFFEE33FEED33FD40B830E7C280AAE6
:1002C40075F020800E75F010800575F0087D007EB5
:1002D400007F003392D530D503120650EC33401022
:1002E400EF33FFEE33FEED33FDEC33FCD5F0ED22BE
:0E02F400E5F0247EA2D513CC92E7CDCEFF22FA
:10030200EDD2E7CD33EC3392D524814006E4FFFEF3
:10031200FDFC22FCE4CFCECDCC24E0501174FF8052
:10032200EDC3CC13CCCD13CDCE13CECF13CF0470EF
:07033200F030D5DE02065099
:10033900E9D2E7C933E833F892D5EDD2E7CD33EC0A
:0703490033FC5002B2D52283
:10035000EC30E7100FBF000C0EBE00080DBD00040E
:100360000BEB6014A2D5EB13FCED92E7FD2274FFBA
:10037000FCFDFEFF22E480F8A2D574FF13FC7D8013
:03038000E480EF27
:100DCB00021120E493A3F8E493A34003F68001F20D
:100DDB0008DFF48029E493A3F85407240CC8C33329
:100DEB00C4540F4420C8834004F456800146F6DFF8
:100DFB00E4800B0102040810204080900FAEE47ECB
:100E0B00019360BCA3FF543F30E509541FFEE493EC
:100E1B00A360010ECF54C025E060A840B8E493A3B3
:100E2B00FAE493A3F8E493A3C8C582C8CAC583CADE
:100E3B00F0A3C8C582C8CAC583CADFE9DEE780BE96
:010FFF0000F1
:10038300E709F608DFFA8046E709F208DFFA803E5C
:1003930088828C83E709F0A3DFFA8032E309F60849
:1003A300DFFA8078E309F208DFFA807088828C83B1
:1003B300E309F0A3DFFA806489828A83E0A3F60865
:1003C300DFFA805889828A83E0A3F208DFFA804C3F
:1003D30080D280FA80C680D4806980F28033801016
:1003E30080A680EA809A80A880DA80E280CA80337F
:1003F30089828A83ECFAE493A3C8C582C8CCC583F7
:10040300CCF0A3C8C582C8CCC583CCDFE9DEE780C6
:100413000D89828A83E493A3F608DFF9ECFAA9F045
:10042300EDFB2289828A83ECFAE0A3C8C582C8CC9B
:10043300C583CCF0A3C8C582C8CCC583CCDFEADEB4
:10044300E880DB89828A83E493A3F208DFF980CC16
:1004530088F0EF60010E4E60C388F0ED2402B4040F
:100463000050B9F582EB2402B4040050AF232345B6
:0604730082239003D37305
:10047900BB010689828A83E0225002E722BBFE0281
:09048900E32289828A83E49322B4
:10049200BB010CE58229F582E5833AF583E022501F
:1004A20006E92582F8E622BBFE06E92582F8E22269
:0D04B200E58229F582E5833AF583E4932283
:1004BF00BB010689828A83F0225002F722BBFE011C
:0204CF00F32216
:1004D100BC000BBE0029EF8DF084FFADF022E4CC0F
:1004E100F875F008EF2FFFEE33FEEC33FCEE9DECD8
:1004F100984005FCEE9DFE0FD5F0E9E4CEFD22ED1E
:10050100F8F5F0EE8420D21CFEADF075F008EF2F67
:10051100FFED33FD4007985006D5F0F222C398FD58
:050521000FD5F0EA22F5
:10052600E88FF0A4CC8BF0A42CFCE98EF0A42CFC74
:100536008AF0EDA42CFCEA8EF0A4CDA8F08BF0A4F2
:100546002DCC3825F0FDE98FF0A42CCD35F0FCEB51
:100556008EF0A4FEA9F0EB8FF0A4CFC5F02ECD3916
:0F056600FEE43CFCEAA42DCE35F0FDE43CFC2283
:1005750075F008758200EF2FFFEE33FECD33CDCC3D
:1005850033CCC58233C5829BED9AEC99E5829840C0
:100595000CF582EE9BFEED9AFDEC99FC0FD5F0D69D
:1005A500E4CEFBE4CDFAE4CCF9A88222B800C1B9C7
:1005B5000059BA002DEC8BF084CFCECDFCE5F0CB05
:1005C500F97818EF2FFFEE33FEED33FDEC33FCEB3E
:1005D50033FB10D703994004EB99FB0FD8E5E4F9F9
:1005E500FA227818EF2FFFEE33FEED33FDEC33FCE6
:1005F500C933C910D7059BE99A4007EC9BFCE99ADA
:10060500F90FD8E0E4C9FAE4CCFB2275F010EF2F1E
:10061500FFEE33FEED33FDCC33CCC833C810D7071E
:100625009BEC9AE899400AED9BFDEC9AFCE899F859
:0E0635000FD5F0DAE4CDFBE4CCFAE4C8F922EC
:0D064300EF4BFFEE4AFEED49FDEC48FC22B6
:0E065000C3E49FFFE49EFEE49DFDE49CFC22BB
:10065E00EB9FF5F0EA9E42F0E99D42F0E89C45F0F2
:01066E002269
:0C066F00E2FC08E2FD08E2FE08E2FF22C7
:0D067B00E2FB08E2F908E2FA08E2CBF822FF
:0C068800ECF208EDF208EEF208EFF222AE
:10069400D083D082E493F208740193F20874029335
:0906A400F208740393F27404736C
:0906AD00E2FB08E2FA08E2F9227E
:1006B600FAE2FB0808E2F925F0F218E2CA3AF22259
:0906C600EBF208EAF208E9F22265
:0606CF008A838982E473B6
:00000001FF
