:0411950082000000D4
:10168B00E5894410F589758DE8758B02D2ABD28E46
:01169B00222C
:03001B000214BD0F
:1014BD00C0E0C083C082C0D0758DE8758B029000EE
:1014CD00EEE004F0E0B4FF02E4F0D0D0D082D0839F
:0314DD00D0E0322A
:1007AF007F041210DC12168B12171A7BFF7A08794E
:1007BF000012132D7F007EC27D017C0012113A12B0
:1007CF0016DC90801D7401F090800204F090801E62
:1007DF00F0C2B6121000C2827B087A077D017F013A
:0D07EF0012169CD2AF12000E12001E80F8F0
:02119900C18211
:1010DC00EFC394024057EFD39408505130022BAE1B
:1010EC00A143A1E0759306759240759188E59154E2
:1010FC00C070FA859795859694E5A254F84405F549
:10110C00A27591C8E59154C070FAEF24FE333333C5
:10111C0054F84480F5ADE5AD30E0FBE5A254F8445D
:0D112C0004F5A2300207EE4440F5A1C20216
:011139002293
:10169C00EFC43354E04DF5A9EAF5ACAF038FAB22A0
:04001E0075AAA522F8
:10132D009080117441F0908008F0908009F09080C9
:10133D000AF090800BF090800CF090800DF0908072
:10134D000EF090800FF090801FF08B178A1889197E
:04135D00750E0A22DD
:10122F00E4FFFE3097010F309604EF4402FF309534
:10123F0004EF4404FF309404EF4408FF309004EFB0
:10124F004410FF309104EF4420FF309204EF4440EC
:10125F00FF309304EF4480FF30A104EE4401FE30D1
:06126F00B704EE4402FE8C
:011275002256
:04144400AD07AC063E
:10144800E4FBFA74017E00A802088005C333CE339A
:10145800CED8F9FFEE5CFEEF5D4E60010B0AEAB4F0
:041468000AE1AF03E3
:01146C00225D
:0413C200AD07AC06C1
:1013C600E4FBFA74017E00A802088005C333CE331D
:1013D600CED8F9FFEE5CFEEF5D4E6004AB028005F1
:0713E6000AEAB40ADEAF03BE
:0113ED0022DD
:100BAD0012122F8E138F14E51265147004E5116562
:100BBD00136014851311851412121444BF010575A9
:100BCD000C018003E4F50CE50C601FAF14AE13129D
:100BDD0013C28F0FE4F50AC3E51694B8E515940B0F
:100BED0050080516E51670020515E516B42C1CE522
:100BFD0015B40117850F10750804E4F509750E0A73
:100C0D00750D01750B017F01120006E50C703BD3CC
:100C1D00E5169400E51594004030E50D7024E516B9
:100C2D009401E5159400401DE50E650F60057509ED
:100C3D000180020509850F0E750A327F011200062B
:0A0C4D008003E4F50DE4F515F5163B
:010C5700227A
:1012B800E50AD394004033150AE50A702DE509B410
:1012C80001057508018017E509B402057508028053
:1012D8000DE509B403057508038003E4F508E4F592
:0B12E80009850E10750E0A750B01221F
:10162A00E50C600DE50FB50708E508B40403AF0D36
:04163A00227F0022E9
:0F16AC00E4FEE50B6007E510B50702AE08AF06D8
:0116BB00220C
:101524009000EEE0FF7803E26F6012EFF2120BAD71
:0D1534001212B8AA18A9191206CFE4F50B7F
:011541002287
:10163E00000000000000000000000000000000009C
:04164E000000000098
:10119B00A02A110000000000000000000000000069
:1011AB000000000000000000000000000000000034
:1011BB0000000000000000000000000000052700F8
:1011CB0000000000813B00811000062100000000A0
:0811DB000000810400810900FD
:1006D5007826E22401F218E23400F2E2FE08E2FF95
:1006E500E4FCFD7B0F7A27F9F8C302065E7825E264
:1006F500FE08E2FFE4FCFDFBFAF9F8D302065E789A
:100705003312066F7833EF2401FFE43EFEE43DFD2E
:10071500E43CFC0206887E00CFCDCFCECCCE1204C1
:10072500D174062FF58274173EF583E4932278B9C8
:10073500E2FF047811F2EF25E02415F8E2FE08E265
:10074500FF7825EEF2FE08EFF2FF2278257427F2F6
:1007550008740FF2227825E2FE08E2FFE4FCFD2290
:100765007811E225E02413F8E2FF08E27825CFF2BC
:1007750008EFF2227826E224FFF218E234FFF22293
:100785007825E2FA08E2FBFFAE022212066FE412B8
:1007950002C4780B02067B7BFEE4F2087414F22295
:0A07A5007804E204F2E2D394142277
:100C580078BB7C007DFE7BFF7A16793E7E007F1490
:100C680012045378BB74AAF2087455F27815E2FF9F
:100C780008E278BDCFF208EFF27817E2FF08E278D1
:100C8800BFCFF208EFF27819E2FF08E278C1CFF29D
:100C980008EFF2781BE2FF08E278C3CFF208EFF220
:100CA800781DE2FF08E278C5CFF208EFF2781FE27C
:100CB800FF08E278C7CFF208EFF27821E2FF08E2F6
:100CC80078C9CFF208EFF27823E2FF08E278CBCFB9
:100CD800F208EFF27811E2FF78CDE4F208EFF2E4DF
:100CE800FF1215E27A0079BB78D412079CE4FFFE64
:030CF80002139450
:100EB7007A0079BB78D412079CE4FFFE12146D7890
:100EC700BDE2FF08E27815CFF208EFF278BFE2FF44
:100ED70008E27817CFF208EFF278C1E2FF08E2786C
:100EE70019CFF208EFF278C3E2FF08E2781BCFF2DE
:100EF70008EFF278C5E2FF08E2781DCFF208EFF2BB
:100F070078C7E2FF08E2781FCFF208EFF278C9E26C
:100F1700FF08E27821CFF208EFF278CBE2FF08E290
:0E0F27007823CFF208EFF278CD08E27811F2CD
:010F35002299
:1010000090FC04747FF07BFE7A0079B978D4E4F226
:10101000087402F2E4FFFE12146D78B9E2B4AA0675
:1010200008E2645560437815E4F2087405F208E4B8
:10103000F208740FF20812079E08E4F2087419F21D
:1010400008E4F2087464F2087401F208742CF208DF
:101050007401F20874F4F2087403F20874E8F27888
:0F106000117401F2120C588003120EB7120765BB
:01106F00225E
:1015B100EF6011E5894401F589758CFB758A33D299
:0915C100A9D28C22C2A9C28C221D
:03000B00020CFBE9
:100CFB00C0E0C0F0C083C082C0D075D000C000C0BF
:100D0B0004C005C006C007782B12066F782B12079C
:100D1B000B758CFB758A3330B5317825E6700F78FF
:100D2B0023E6B4010918E6C3940350027600782336
:100D3B00E67012782106E6C3941E400976007823EC
:100D4B00760112070478257601802F7825E6B40109
:100D5B000F7823E6700A7821E6C3940350027600DD
:100D6B007823E6B401101806E6C3941E40087600FB
:100D7B0008760012070478257600D007D006D00538
:0F0D8B00D004D000D0D0D082D083D0F0D0E032CE
:1014E000EF601790801D7401F0758F1DD2A8D2890E
:1014F000C288E4780FF208F28004C2A8C289D288B8
:03150000D2B8223C
:0300030002001ADE
:01001A0032B3
:10154200D37826E2942C18E29401780B5008120604
:0E1552009440523D7122120694405000002237
:10149600D37826E2943218E29400501A783712066E
:1014A6006FEF24FFFFEE34FFFEED34FFFDEC34FF5B
:0714B600FC783712068822C2
:10080000E478B9F278B9E2FFC39408400201FC121F
:1008100016ACEF6401703F7814E2700B18E27005BB
:10082000120733806501EC78B9E2FF2401FDE4335F
:10083000FC7811E2B50516E4B504127825E2FC084F
:10084000E2FDEF25E02415F8ECF208EDF2120C5869
:10085000E47814F201F578B9E2FF1216ACEF640205
:1008600070667814E2600201F518E2705978B9E216
:10087000FF047811F2EF25E02415F909E325E0FFE4
:1008800019E333FE7825F208EFF2E4FCFD081206C6
:1008900088E4FF1215B11214E012154278271207EE
:1008A00090120227E4FBFAF9783F12002D1203029E
:1008B000783712068812149678137401F21874644B
:1008C000F2120C58802F802478B9E2FF1216ACEF98
:1008D000640470217813E27013120733E4FCFD08FE
:1008E000120688E47813F20804F28009E47813F21F
:1008F000783B7464F278B9E204F201047814E2708F
:100900000241117F081216ACBF01071206D55044F0
:10091000214E7F081216ACBF020C7826E224021288
:1009200006DA503080287F081216ACBF030C7826F8
:10093000E224031206DA501C80147F0812162AEFF4
:1009400060121207A5400DE4F21206D55006E478B5
:1009500025F208F2120A166401702412075A7B016C
:100960001206FD400512075080031207791206F2A5
:100970004002410D78251206E040024115410D125A
:100980000A166402702712075A7B021206FD400500
:1009900012075080087826E224FE12077E1206F223
:1009A0004002410D78251206E0506A410D7F091280
:1009B00016ACEF6403702712075A7B031206FD4042
:1009C0000512075080087826E224FD12077E1206E1
:1009D000F24002410D78251206E05039802F7F0940
:1009E00012162AEF602F1207A5402AE4F212075AC6
:1009F0007B011206FD400512075080031207791291
:100A000006F24002800778251206E05008120750CF
:050A100022E47804F26D
:080A1500227F091216ACEF224A
:10165200E47824F67826F67821F608F67825F678E6
:0316620023F6224A
:100AEB007813E214601314604E2402600261ACC2EE
:100AFB00B6E4FF1215B10214E09000EEE0FF7805AA
:100B0B00E26F700261ACEFF27812E214F2E2600273
:100B1B0061AC087402F2782B120694000000007886
:100B2B0033120694000000007F011215B11F12143E
:070B3B00E0121652D2B622AF
:100B4200783312079012011E12030278B912068836
:100B5200782712066F78B912067BD312065E400A16
:100B6200782712066F78B912068878B912066FAB29
:100B720007AA06782712066FC3EF9B7826F2EE9A31
:100B820018F2783712066F783312067BC312065EAC
:100B92004018C2B6E4FF1215B11214E0E47813F261
:0A0BA2007825F208F2783B7464F243
:010BAC002226
:100A1D009000EEE0FF7807E26F700241EAEFF21806
:100A2D00E204F2783BE2D394004003E214F278063C
:100A3D00E2C39414500241EAE4F27814E2601C78A7
:100A4D0008E204F2E2D394054022E4F208E26004E5
:100A5D00E4F2801878097401F28011E47809F278D3
:100A6D003BE270087813E270031207657C037DE8A2
:100A7D001207851207237828F67C037DE8AF03AEB5
:100A8D00021204D17F6412071B7829F67C007D6465
:100A9D001207851204D17F0A12071B782AF67C00F3
:100AAD007D0AAF03AE021204D174062DF5827417C0
:100ABD003CF583E4937827F67809E26006901710E9
:100ACD00E480067811E290170693782BF67B007A76
:0D0ADD0000792778BD7405F2E4FF1211E7DF
:010AEA0022E9
:0C000E00121524120AEB120A1D021070D9
:0B170600EB28737AB8DADB68FBFA000E
:09171100C2817F147E0002156DF7
:0F16DC009080007402F0908001F07F0102141AD8
:0D1560007F147E0012156DD2817F287E0061
:0E156D00EF1FAC0670011E4C60030080F322DD
:10166500D280121560C280121569C2817F287E0062
:0316750002156DEE
:1015CA00C281121569C280121560D280121569C2D1
:0815DA00817F287E0002156DDF
:1013EE00AD07C280121713C281E4FB121711ED3044
:1013FE00E004D2808002C280121569D281EDC3133F
:0B140E00FD0BEBB408E5121711C280C3
:0114190022B0
:10141A00AD07D280121713D281ED70071216657FBD
:10142A008080101216657F401213EE1215CA12162A
:0A143A00657F8A1213EE1215CA2214
:0711E70078BA1206C6AD073D
:1011EE00121665ED24C0FF1213EEE478BEF278BD40
:1011FE00E2FF3395E0FE08E2C39FEE6480F8748050
:10120E0098501B78BA1206AD78BEE2F5827583004F
:10121E00120492FF1213EE78BEE204F280D0021591
:01122E00CAF5
:0311E300813E004A
:07171A0090801C7482F02294
:10107000783DE2FF9000EEE0FE6F605FEEF218E276
:1010800004F2783EE214600D1460171460211460BD
:101090003E2404803D783CE2C3940F5003D2B42236
:1010A0008030783CE2C394285003D2B42280237865
:1010B0003CE2FFC3940F5003D2B422EFC3941E50FE
:1010C00003C2B422EFC3942D5003D2B4228003D2C2
:0B10D000B422E4783CF2783EF2C2B497
:0110DB0022F2
:05000600783EEFF2223C
:100D9A00AC06E490FC01F0742A90FC03F0EC90FCA1
:100DAA0006F090FC05EFF090FC0122784D120688BF
:100DBA00784D12066FE4FB7A01F9F8120526784D90
:100DCA00120688784D12067B90FC02E0FFE4FCFDD7
:100DDA00FE120643784D020688F090FC02EDF0E41C
:100DEA0090FC01F090FC0374AAF022AA06E490FC9D
:100DFA0001F090FC032290FC02E0FDE475F0010290
:100E0A0006B6E490FC01F0EF75F080A4FDACF0901A
:100E1A00FC0322D3E29F18E29E22F090FC02E0FF3C
:010E2A0022A5
:1015E200120E0C742AF0EC90FC06F0AF05120DAC52
:0715F2007403F0E4120DED9B
:0115F90022CF
:1016BC00120DF5742AF0EA120DA87402120DE32231
:0713940078D11206C6AD0777
:10139B00120D9A7402F0E4FFFE78D5120E1D401365
:1013AB0078D1120E0512047990FC02F00FBF0001E8
:0613BB000E80E6120DE9B0
:0113C1002209
:0B16FA00120D9A7401120E24120DE96B
:0117050022C1
:05146D0078D11206C653
:10147200120D9A7401F0E4FFFE78D5120E1D401091
:1014820078D1120E00ED1204BF0FBF00010E80E9E9
:03149200120DE94F
:011495002234
:1015FA00120E0C7429F0EC90FC06F0AF05120DAC3B
:07160A007407F0E4120DED7E
:0116110022B6
:1016CC00120DF57429F0EA120DA87406120DE3221E
:0912F30078411206C6AD07AC06F5
:1012FC00E490FC01F07429120DA37406F0E4FFFED7
:10130C00D37845E29F18E29E40137841120E0512E5
:10131C00047990FC02F00FBF00010E80E3120DE97E
:01132C00229E
:02167800AC06BE
:10167A00120DF77429120DA67405120E24120DE923
:01168A00223D
:0713610078481206C6AC0635
:10136800120DF77429120DA67405F0E4FFFED37868
:101378004CE29F18E29E40107848120E00ED1204CD
:0B138800BF0FBF00010E80E6120DE950
:011393002237
:100FAA0090FC03742BF090FC017480F090FC0674A2
:100FBA0001F0E490FC05F090FC017481120E24E427
:100FCA00FCFDFE120DB5784D12066FE4FB7A01F9AD
:100FDA00F8120526784D120688784D12067B90FC89
:100FEA0002E0FFE4FCFDFE120643120DB5120DE904
:050FFA00784D12066FA6
:010FFF0022CF
:0F16EB0008E2FF24FFF218E2FE34FFF2EF4E2276
:10150300EF7802C333CE33CED8F9FFEF1FAA0670AC
:10151300011E4A600BE4FDEDC3940F50EE0D80F7FE
:0115230022A5
:10157B007851EEF208EFF278511216EB60097F50BA
:0B158B007E0012150380F075AAA52257
:101612007853EEF208EFF278531216EB60097FF47A
:081622007E0112157B80F0220D
:10159600A3E004F0E075F06484E5F0F0E02455F88B
:0B15A6002224D8F582E43400F58322F3
:05113A0078B9120688DF
:10113F009080197403F0908018F0E49000ECF0A305
:10114F00F09000D6F0A3F0C201C2007F20FEFDFC9C
:10115F0078B912067B120526A804A905AA06AB07C3
:10116F00E4FFFE7DE1FC1205B1C3E49FFFE49EADF9
:10117F000775C824F5CBAE058ECAF5CD8ECCD2CE71
:05118F00759850D2AC80
:011194002238
:101276009000EDE0FD9000ECE0FCC39D5006C3ED50
:101286009CFE800DED2464FE9000ECE0FDC3EE9D17
:10129600FEEED3940140D9C2AC9000EC121597EF44
:1012A600F220010BD2AC121596E2F599D20122D2A8
:0112B600AC8B
:0112B7002214
:03002300020F3693
:100F3600C0E0C0F0C083C082C0D075D000C000C081
:100F460007309836C2989000D6E075F01484E5F024
:100F5600F0E0FF1215A7E599F074D72FF582E43477
:100F660000F583E0B40D0D9000D6E01215A7E0B4AD
:100F76000A02D2009000D6E004F0309918C2999087
:100F860000EDE0FF9000ECE06F6008121596E2F5C8
:100F9600998002C201D007D000D0D0D082D083D0B1
:040FA600F0D0E03275
:03000000020E2BC2
:0C0E2B00787FE4F6D8FD75812B020E7272
:1000260002036EE86480F8E933E83360110460F097
:10003600ED33EC337009E8FCE9FDEAFEEBFF220440
:1000460060DED3EB9FEA9EE99DE8C2E78CF0C2F73B
:1000560095F0400CE8CCF8E9CDF9EACEFAEBCFFB07
:1000660012033985D0F05804700320D5B3E8047024
:10007600075002B2D502037892D5EC0460F7E4CCBF
:10008600C0E0C398F8603B94186008400DD0E0FBD0
:10009600020350E4FBFAC9FC8028E830E406E4C910
:1000A600FBE4CAFCE830E305E4C9CACBFCE8540724
:1000B6006010F8C3E913F9EA13FAEB13FBEC13FC2F
:1000C600D8F130F52FC3E49CFCEF9BFFEE9AFEEDD2
:1000D60099FDD0E0FBEF4E4D4C701222DB0302037C
:1000E60075EC2CFCEF33FFEE33FEED33FDED30E720
:1000F600EB020350EF2BFFEE3AFEED39FDD0E0FBAD
:1001060050130BBB0003020378ED13FDEE13FEEF55
:0801160013FFEC13FC0203507F
:10011E00EC4D6011E8497017ED33EC3304600DE4DB
:10012E00FCFFFEFD22E933E8330470F802036E1281
:10013E00033958046009E4CC248150062850090282
:10014E000378284003020375C0E0EB4A7044B9807F
:10015E0006D0E0FB020364EF4E701CBD8008EBFF7F
:10016E00EAFEE9FD80EBE98DF0A4FEE5F002020760
:10017E00E9CDF9EAFEEBFFEF89F0A4FCE5F0CE89BC
:10018E00F0A42EFFE435F0CD89F0A42DFEE435F079
:10019E008067EF4E7005BD80D780C3EF8BF0A4ACA7
:1001AE00F0EE8BF0A42CFCE435F0F8EF8AF0A42CE2
:1001BE00E5F038FCE433CB8DF0A42CFCE5F03BF8F5
:1001CE00EE8AF0A42CFCE5F038F8E433CF89F0A4E5
:1001DE002CFCE5F038CF3400CE89F0A42FFFE5F0EB
:1001EE003EFEE433C98DF0A42EFEE5F039CD8AF043
:1001FE00A42FFFE5F03EFEE43DFD33D0E0FB5007BB
:10020E000BBB000F020378EC2CFCEF33FFEE33FE3A
:06021E00ED33FD02035068
:10022400020378EC5D046005E85904700302036E70
:10023400120339580460F6EC4860F2EC7004FDFED9
:10024400FF22C860DB2481C85009C39860025006AD
:100254000203759850CAF582E9294B4A7005AB82AE
:1002640002036475F0007C1A7880C3EF9BEE9AED6C
:1002740099400DC3EF9BFFEE9AFEED99FDE842F025
:10028400DC23ACF0D0E0FFD0E0FED0E0FDAB822078
:10029400E7101BEB60BAEC2CFCEF33FFEE33FEED02
:1002A40033FD020350E803F830E705C0F075F000B1
:1002B400EF2FFFEE33FEED33FD40B830E7C280AAE6
:1002C40075F020800E75F010800575F0087D007EB5
:1002D400007F003392D530D503120650EC33401022
:1002E400EF33FFEE33FEED33FDEC33FCD5F0ED22BE
:0E02F400E5F0247EA2D513CC92E7CDCEFF22FA
:10030200EDD2E7CD33EC3392D524814006E4FFFEF3
:10031200FDFC22FCE4CFCECDCC24E0501174FF8052
:10032200EDC3CC13CCCD13CDCE13CECF13CF0470EF
:07033200F030D5DE02065099
:10033900E9D2E7C933E833F892D5EDD2E7CD33EC0A
:0703490033FC5002B2D52283
:10035000EC30E7100FBF000C0EBE00080DBD00040E
:100360000BEB6014A2D5EB13FCED92E7FD2274FFBA
:10037000FCFDFEFF22E480F8A2D574FF13FC7D8013
:03038000E480EF27
:100E37000207AFE493A3F8E493A34003F68001F21B
:100E470008DFF48029E493A3F85407240CC8C333BC
:100E5700C4540F4420C8834004F456800146F6DF8B
:100E6700E4800B0102040810204080901195E47E75
:100E7700019360BCA3FF543F30E509541FFEE49380
:100E8700A360010ECF54C025E060A840B8E493A347
:100E9700FAE493A3F8E493A3C8C582C8CAC583CA72
:100EA700F0A3C8C582C8CAC583CADFE9DEE780BE2A
:0111E6000008
:10038300E709F608DFFA8046E709F208DFFA803E5C
:1003930088828C83E709F0A3DFFA8032E309F60849
:1003A300DFFA8078E309F208DFFA807088828C83B1
:1003B300E309F0A3DFFA806489828A83E0A3F60865
:1003C300DFFA805889828A83E0A3F208DFFA804C3F
:1003D30080D280FA80C680D4806980F28033801016
:1003E30080A680EA809A80A880DA80E280CA80337F
:1003F30089828A83ECFAE493A3C8C582C8CCC583F7
:10040300CCF0A3C8C582C8CCC583CCDFE9DEE780C6
:100413000D89828A83E493A3F608DFF9ECFAA9F045
:10042300EDFB2289828A83ECFAE0A3C8C582C8CC9B
:10043300C583CCF0A3C8C582C8CCC583CCDFEADEB4
:10044300E880DB89828A83E493A3F208DFF980CC16
:1004530088F0EF60010E4E60C388F0ED2402B4040F
:100463000050B9F582EB2402B4040050AF232345B6
:0604730082239003D37305
:10047900BB010689828A83E0225002E722BBFE0281
:09048900E32289828A83E49322B4
:10049200BB010CE58229F582E5833AF583E022501F
:1004A20006E92582F8E622BBFE06E92582F8E22269
:0D04B200E58229F582E5833AF583E4932283
:1004BF00BB010689828A83F0225002F722BBFE011C
:0204CF00F32216
:1004D100BC000BBE0029EF8DF084FFADF022E4CC0F
:1004E100F875F008EF2FFFEE33FEEC33FCEE9DECD8
:1004F100984005FCEE9DFE0FD5F0E9E4CEFD22ED1E
:10050100F8F5F0EE8420D21CFEADF075F008EF2F67
:10051100FFED33FD4007985006D5F0F222C398FD58
:050521000FD5F0EA22F5
:10052600E88FF0A4CC8BF0A42CFCE98EF0A42CFC74
:100536008AF0EDA42CFCEA8EF0A4CDA8F08BF0A4F2
:100546002DCC3825F0FDE98FF0A42CCD35F0FCEB51
:100556008EF0A4FEA9F0EB8FF0A4CFC5F02ECD3916
:0F056600FEE43CFCEAA42DCE35F0FDE43CFC2283
:1005750075F008758200EF2FFFEE33FECD33CDCC3D
:1005850033CCC58233C5829BED9AEC99E5829840C0
:100595000CF582EE9BFEED9AFDEC99FC0FD5F0D69D
:1005A500E4CEFBE4CDFAE4CCF9A88222B800C1B9C7
:1005B5000059BA002DEC8BF084CFCECDFCE5F0CB05
:1005C500F97818EF2FFFEE33FEED33FDEC33FCEB3E
:1005D50033FB10D703994004EB99FB0FD8E5E4F9F9
:1005E500FA227818EF2FFFEE33FEED33FDEC33FCE6
:1005F500C933C910D7059BE99A4007EC9BFCE99ADA
:10060500F90FD8E0E4C9FAE4CCFB2275F010EF2F1E
:10061500FFEE33FEED33FDCC33CCC833C810D7071E
:100625009BEC9AE899400AED9BFDEC9AFCE899F859
:0E0635000FD5F0DAE4CDFBE4CCFAE4C8F922EC
:0D064300EF4BFFEE4AFEED49FDEC48FC22B6
:0E065000C3E49FFFE49EFEE49DFDE49CFC22BB
:10065E00EB9FF5F0EA9E42F0E99D42F0E89C45F0F2
:01066E002269
:0C066F00E2FC08E2FD08E2FE08E2FF22C7
:0D067B00E2FB08E2F908E2FA08E2CBF822FF
:0C068800ECF208EDF208EEF208EFF222AE
:10069400D083D082E493F208740193F20874029335
:0906A400F208740393F27404736C
:0906AD00E2FB08E2FA08E2F9227E
:1006B600FAE2FB0808E2F925F0F218E2CA3AF22259
:0906C600EBF208EAF208E9F22265
:0606CF008A838982E473B6
:00000001FF
