:0D2B7D00810E008100008201000081030034
:10299D00D390008BE0940090008AE0940022785749
:1029AD0008E2FF24FFF218E2FE34FFF2EF4E22F2AE
:1029BD00E47807F27805F222E475F001121D6DD36B
:1029CD0090008BE022E2247AF582E43400F5832234
:0A29DD007803E2FF7806E2FE6F22A5
:0E2F2400758911758CCF758AFFD2A9D28C22C7
:03000B00022DD9EA
:102DD900C0E0C0D075D000C000758CCF758AFF786F
:102DE90006E204F2E2B4FF02E4F2D000D0D0D0E06F
:012DF90032A7
:0C2F9E00758F1FD2A8D289D288D2B82229
:0C2FAA00758E1ED2AAD28BD28AC2BA2227
:0C2FB600E4F5C075FB9DD2E843F9012250
:0E2F3200D2A8D289D2AAD28BD2E843F90122CA
:0E2F4000C2A8C289C2AAC28BC2E853F9FE22FF
:1024DF007F041226A69080007402F0A3F0A3F0A34D
:1024EF00F090800D7406F0A3F0908006F0A3F01228
:1024FF0025CD122F40E4FF122F5CD2A9D28CD285AA
:10250F00D284D293E490008AF0A3F078437428F237
:10251F0078447401F2E47833F2783EF27816F208D8
:10252F00F2781AF27811F27847F2780E7402F27894
:10253F004014F20874F41229BC780CF208F2784DAA
:09254F00F27850F2087405F22242
:030003000229E7E8
:1029E700C0E0C0F0C083C082C0D075D000C000C0B6
:1029F70001C002C003C004C005C006C00775AAA570
:102A0700C2A8C289E4FF122F5C780A7401F2D007CA
:102A1700D006D005D004D003D002D001D000D0D04A
:092A2700D082D083D0F0D0E0325F
:03001300022A308E
:102A3000C0E0C0F0C083C082C0D075D000C000C06C
:102A400001C002C003C004C005C006C00775AAA526
:102A5000C2AAC28B780A7401F2E4FF122F5CD0077D
:102A6000D006D005D004D003D002D001D000D0D001
:092A7000D082D083D0F0D0E03216
:03003B0002280B8D
:10280B00C0E0C0F0C083C082C0D075D000C000C093
:10281B0001C002C003C004C005C006C00775AAA54D
:10282B00E5FA30E01275FA01780A7401F2E4FF124E
:10283B002F5CC2E853F9FED007D006D005D004D0E8
:10284B0003D002D001D000D0D0D082D083D0F0D032
:02285B00E03269
:10285D007847E26045309227C390008BE0943212A6
:10286D0029A4503D1229C594311229A44033780E64
:10287D00E26401702C7402F2E4780CF208F2221278
:10288D00299D400774FFF5F0121D6D90008AE070D0
:10289D0002A3E0700C780E04F2227843E27002C2BB
:0228AD00852282
:1028AF0030922BC390008BE094141229A450401245
:1028BF0029C594131229A44036780EE26402602FC2
:1028CF001229BD780E7402F21224DF7F0122122921
:1028DF009D400774FFF5F0121D6DD390008BE094AF
:1028EF00011229A45009780E7401F2E4F0A3F07FCD
:0228FF000022B5
:03006300022F6AFF
:0D2F6A00C0E0E5AA30E10375AAA5D0E03271
:102ABD007806E2FF7800E26F6036EFF220B616D3AB
:102ACD00900087E0940A900086E094005022E4750F
:102ADD00F001021D6DD3900087E09409900086E00F
:102AED0094004005780BE204F2E4900086F0A3F028
:012AFD0022B6
:10214700122ECE900072E044011221E2900072E05C
:1021570044081221E2900072E044041221ECE47872
:102167005BF2785BE2FFC3943C50127D011211F9D8
:102177001221F61211F9785BE204F280E5E4785B4C
:10218700F2785BE2FFC3943C50127D0112163D12B8
:1021970021F612163D785BE204F280E5E4785BF203
:1021A700E4785CF2785CE2FFC394085022181229A5
:1021B700D2E0FE7401A807088002C333D8FC4E1290
:1021C70021EC785B1229D2E4F008E204F280D5789A
:0A21D7005BE204F2E2C3940A40C682
:1021E10022F01229017F14122EB922F01229017F47
:1021F10014122EB9221229017F14122EB9785BE232
:04220100FFE4FD22D7
:101EB0007F041226A67F01122EF412263AE4FBFDBF
:101EC0007F01122950E4FB7D0FFF122FCEE4FF1299
:101ED0002F5CD2857F0A122EB91222BAD284122127
:101EE00047122E8C1229017F01122EF4122F241278
:101EF0002F9E122FAA122FB61225CD7B4B7A00E40B
:101F0000FD7F04122F14120016D2ED785274FFF2E6
:101F10000814F27850E4F2087405F2784374281239
:101F200029BCD2AFD2937805E2703C7807E270F614
:101F30001229DD602A7803EEF218E22401F218E299
:101F40003400F2122ECE120076D37802E2940A18F0
:101F5000E29400400AE4F208F21222BA12290112B5
:101F6000285D12001680BF122DB3C2847844E2604F
:101F700042780AE2601EE4F2D285C2847857740780
:101F8000F20874D0F21229AB6004D28580F71224D3
:101F9000DF022031C284D285D2937857E4F20874EC
:101FA00028F21229AB60061228AFEF60F575AAA5DA
:081FB000022031780AE26071A1
:101FB800E4F27F041226A67F01122EB9122F40D216
:101FC800A9D28CE4780BF2900088F0A3F07859F24B
:101FD8000874C8F2785AE2700218E260201229DD0B
:101FE800600F7803EEF2785AE224FFF218E234FF29
:101FF800F220B709122ABD780BE2B403D7780BE2B6
:10200800B4030CD2857F0A122EB91224DF8009D2BC
:0F201800A8D2897F01122F5CE4900088F0A3F01A
:10202700800812001E7F01122F5C12001E021F265D
:102BB800E4F5B1F5A190FC00E04440F0E58654F05E
:102BC8004404F586122F4EEF60FAA2AF9201D2AFFD
:102BD80078077401F2122FE1E58654F0440BF5866C
:052BE80075AAA5D2AFA3
:012BED0022C5
:072FE10043870200000022FB
:0E2F4E00E5FF7004E5FE60037F00227F012294
:102037000E690E640E5E0E570E4F0E450E3A0E2DAC
:102047000E200E100DFF0DEC0DD80DC10DA90D8E34
:102057000D700D500D2F0D0D0CF00CD20CB50C980A
:102067000C7A0C5F0C4D0C3C0C1F0C070BEE0BD5C0
:102077000BAF0B880B600B380B4A0B210AF70ACD05
:102087000AA10A760A4A0A1E09F209C50998096BC4
:10209700093D091008E308B50888085A082D080003
:1020A70007D307A7077A074F072306F806CD06A326
:1020B700067A06510628060005D905B2058C05677C
:1020C7000542051E04FB04D904B70496047504569B
:1020D700043A041803FB03DE03C203A7038C03724D
:1020E700035903400328031002FA02E402CE02B99F
:1020F70002A50291027E026C0259024802370226AB
:102107000216020701F801E901DB01CD01C001B3A5
:1021170001A6019A018F01830178016D01630159BD
:10212700014F0145013C0133012B0122011A011224
:10213700010B010300FD00F500EF00E800E200DC01
:0A2B8A0082160000811A008111007C
:102704007916E3C4F854F0C868FF09E3C4540F48C9
:102714007818CFF208EFF2E408F27816F208F278AB
:1027240011E204F22212000E12003E7817E22FF298
:1027340018E23EF2781AE204F2E2C39410227C001A
:102744007D64021CD07C00121CE2C3227811E2D307
:0A2754009402227C00121CE2C32252
:102CB400EDC4333354C0441C4FF5B975BAF0EBB4CA
:102CC400010E7869E2C4333354C04423F5BB800356
:0D2CD40075BB23EDB40102D2E843B9202204
:082FD900E5BA54F04FF5BA22ED
:04000E0043B9802250
:10003E00E5B930E5FB43B920AFBDEFFEADBC7C00AA
:10004E00E42DFFEC3EC4F854F0C868FEEFC4540F24
:02005E0048FF59
:01006000227D
:10255800E4FF75F002EF902037121E51E493FC74EB
:102568000193FDC37819E29D18E29C4050EF24E2E4
:10257800784AF2E434FF18F27852E2FC08E2FD7877
:102588004AE22DF218E23CF2E2FC08E2FDD394E2C2
:10259800EC6480947F400BD3ED9463EC648094806A
:1025A800400D784EE2FD08E27849CDF208EDF27868
:1025B80049E2FF08E2784ECFF208EFF2220FEFD39C
:0425C8009482408E2B
:0125CC0022EC
:102D0D007F02122FD91F122EB91227294003122725
:102D1D00041227504014E4F2122558783E7401F243
:0A2D2D00E47869F2FBFDFF122CB4FC
:012D37002279
:102AFE007F05122FD91227294003122704122750BF
:102B0E00402DE4F27818E2FF08E27814CFF208EFD5
:102B1E00F278387401F2308412783E04F243D830E1
:0F2B2E00E47869F2FBFD7F01022CB4E4783EF2FB
:012B3D002275
:041A81007856EDF2B4
:101A8500C3EF9488EE941340077A007BC8021BCC01
:101A9500C3EF9428EE940A40097D3012274974302B
:101AA500805CC3EF9414EE940540097D1A12274912
:101AB500745E804AC3EF9476EE940240117C007DFB
:101AC5000A121CD07D86121CE2C3748D8030C3EFD0
:101AD5009436EE940140177C007D0A121CD0EF78F5
:101AE50006CEC313CE13D8F9FFC374C08010C3EF5D
:101AF50094A0EE940040107D0312275774F79FFBC6
:101B050074019EFA021BCCC3EF9457EE9400400D6E
:101B15001227427D92121CE2C374308040C3EF94B9
:101B250031EE9400400D1227427D4C121CE2C37425
:101B350066802AC3EF941FEE9400400D1227427D64
:101B450024121CE2C374AE8014C3EF9414EE940007
:101B550040131227427D16121CE2C374E59FFB74E5
:101B6500029EFA8062C3EF940DEE9400400D122799
:101B7500427D0E121CE2C374198046C3EF9408EE31
:101B8500940040107C037DE8121CD07D5C12275721
:101B95007449802DC3EF9406EE940040137C037DB9
:101BA500E8121CD07C007D36121CE2C3748A8011B9
:101BB500122742EF7802CEC313CE13D8F9FFC374B0
:101BC500CA9FFB74039EFA7856E2FFD394285014FB
:101BD500EF75F002A4FFEB2432FDE43ACDC39FFB81
:101BE500ED95F0FA784BE2FE08E2FFD394C8EE9447
:101BF50000400BEF2BFBEE3AC313FAEB13FBC3EBE1
:101C050094B6EA9403400CEB94E7EA940350047409
:101C1500CF803DC3EB9484EA9403400CEB94B5EA82
:101C250094035004749D8028C3EB9452EA940340B6
:101C35000CEB9483EA94035004746B8013C3EB9408
:101C450020EA94034015EB9451EA9403500D74393E
:101C55002BFB74033AC313FAEB13FB74052BFBE45C
:101C65003AFAC3EB94E7EA940340047A037BE778F6
:101C75001BE2FE08E2FFD39BEE9A400B780F74FF40
:101C8500F20874FBF28017C3EF9BEE9A500A780FA7
:101C9500E4F2087407F28006E4780FF208F2781B84
:081CA500EAF208EBF2FFAE02C7
:011CAD002214
:1023D9001227294003122704122750407CE4F2787F
:1023E90018E2FF08E27812CFF208EFF218E2FE08CD
:1023F900E2FFE49FFF74109EFE7C017DD6121E83CE
:10240900C006C0077812E2FE08E2FBAA06E4F9F862
:10241900D007D006121DBF74052FFFE43EFE7C00D5
:102429007D0A121CE27849E2FC08E2FDC3EC6480F3
:1024390094805008E47854F208F280077854ECF25A
:1024490008EDF2785408E2FD121A81784BEEF20891
:09245900EFF253D8CFE4783EF213
:012462002257
:03001B00022B3E77
:102B3E00C0E0C0F0C083C082C0D075D000C000C05D
:102B4E0001C002C003C004C005C006C007C2ABC2AC
:102B5E008E1223D9D007D006D005D004D003D002D0
:0F2B6E00D001D000D0D0D082D083D0F0D0E032D0
:03007300022C5408
:102C5400C0E0C0D075D000C000C007E5D430E11892
:102C640075D402783EE2B4020F7F01122FD9758D1C
:102C7400FF758BE7D2ABD28ED007D000D0D0D0E096
:012C8400321D
:102DFA00EF7802C333CE33CED8F9FFEF1FAA06709D
:102E0A00011E4A600BE4FDEDC3940F50EE0D80F7EE
:012E1A002295
:102EB900AC07AF041CEF60097F507E00122DFA8029
:052EC900F175AAA5222D
:102EF400AB07AF031BEF60077FF4122EB980F322F8
:102E3C00781DF2087408F2122D92740E781DF208A7
:0E2E4C007404F222D281EEC313781DF20F221D
:072D8B00781DF2087408F244
:102D9200C280E4FF781EE2FEEFC39E5013C2811888
:102DA200E2FE30E004D2828002C282122E5080E41F
:012DB20022FE
:0E2C8500122C93D2837401781DF2087408F2A9
:102C9300C283E4FF781EE2FEEFC39E5013C2811885
:102CA300E2FE30E004D2828002C282122E5080E41F
:012CB30022FE
:1022BA009080007402F0908001F0908002F090808B
:1022CA0003F0D280D28174C1122E3C122D92D28098
:1022DA007401122D8B740C122E48122D92D2807416
:1022EA0001122E3C122D92D280781D74A1122E3E1C
:1022FA00122D92D280781D7439122E3E122D92D24E
:10230A0080D283D28174C1122C8C122E46122C8553
:10231A00781D740CF2087404F2122C85122E4612DF
:10232A002C93D283781D74A1122C8E122E46122C55
:10233A0093D283781D7439122C8E122E46122C9346
:03234A00D2832219
:102901007405122D8BE4781DF20804F2122D92E465
:10291100FD746A2DF582E43400F583E0122D8B0DF0
:10292100EDB410EDD280781D7405122C8EE4781D63
:10293100F20804F2122C93E4FD747A2DF582E4344A
:0E29410000F583E0122C8C0DEDB40AEDD2836C
:01294F002265
:102EA300785E7401F2E408F2082233333354F8FFF6
:062EB300E5DB54F04F22A4
:102D38008FC0EF30E00BED122EADFF7860E24F80D0
:102D480007AF05EF122EAD4BF5DB785EE2C43333E7
:0A2D5800335480FF08E24FF5DC223F
:102EE3008FC0ECF5DEAF058FDDEAF5D1AF038FDFE1
:012EF30022BC
:030066008FD9220D
:05000600E5D970FC22A9
:102C22008FC0AF05EFC43333335480FFE5DB540F5D
:102C32004FFFAE03EEC4333354C04FFF785EE2C49D
:102C42003354E04FFF08E2C454F04FF5DB08E2F5DD
:022C5200DA2284
:1025CD00122EA3F27B017D0112262C04F212262C71
:1025DD00F27F04122D38122EA304F27F05122D382E
:1025ED007B2C7A017D587C02E4FF122EE37F0312CF
:1025FD0000661200067B9A7A037D337C070F122E3C
:10260D00E37F3012006612000643D830785E122E3A
:10261D00A57419F2E4FBFD7F04122C22D2EF22FFE8
:0D262D00122D38785E7401F2E408F20822E4
:0D2F8400001F1C1F1E1F1E1F1F1E1F1E1FD3
:102B9400812717812608812100811F008124128149
:052BA400220781251548
:0D2F91007824E2FF7822E2FD7825E2FB22A1
:03006B000227B6B3
:1027B600C0E0C0F0C083C082C0D075D000C000C0E9
:1027C60001C002C003C004C005C006C007E5EE3064
:1027D600E10343EE02E5FA30E60343FA08E5EE309C
:1027E600E00843EE01E4FF122F5CD007D006D005C7
:1027F600D004D003D002D001D000D0D0D082D08374
:05280600D0F0D0E0322B
:1029500043A108E5A130E2FBEFC43333335480FFD9
:10296000E5F1541F4FFFAE05EEC4333354C04FFFA3
:10297000AE03EEC43354E04FF5F17F17122CE17F24
:102980003B122E1B7F1E122F0475F21E75F33B7532
:0D299000F417122F911224637823EFF22226
:0B2FCE008FECAF058FEBAF038FEA2202
:0E2F5C00EF64016003C2EE2243F11CD2EE22AC
:102F040043F1028FF27F647E00122DFA53F1FD2209
:102E1B007866EFF243F102122E2E43F1027866121E
:102E2B002E2E22E2F5F37F647E00122DFA53F1FD74
:012E3B002274
:102CE1007866EFF243F102E5F454E0FF122CFE4363
:102CF100F102E5F454E0FF7866122CFE22E24FF572
:0C2D0100F47F647E00122DFA53F1FD22D5
:0D2F7700EF24D0FFEF54037002D322C322D9
:102E7400EDB4020D122F775008ED902F849304FFC8
:082E840022ED902F8493FF2240
:062463007866EBF2A9050A
:102469007E14E9D39402500FEF75F06484E5F0709F
:10247900011E1F740C29F9EF1313543FFDEF2DFDB5
:10248900E433FCEE1313543F7A002DFDEA3CFCAF14
:1024990006EF75F002A4FFC3ED9FFBEC95F0FAE996
:1024A9002401FFE433FE7C007D1A121CD07D0A1240
:1024B9001CE2EF2BFFEE3AFE7866E27C002FFFEC80
:1024C9003ECF24C2CF3409FE7D07121CE2AF05EFCF
:0524D9006001227F07F5
:0124DE0022DB
:10275E007826E2FF08F2EF704E7825E204F218E2D6
:10276E00FF7822E2FD122E747825E2FED3EF64800C
:10277E00F8EE64809840267822E204F278257401FF
:10278E00F27822E2D36480948C40127401F27824A1
:10279E00E204F2E2D3648094E34002E4F2122F9159
:0827AE001224637823EFF222EC
:10001E00781FE5F2F27821E5F3F2E5F4541F782625
:0C002E00F2E2FF08E26F600312275E227E
:022BA900C180E9
:0C2FC20043A180E5A254F84401F5A222CE
:1026A600EFC394024057EFD39408505130002BAE3D
:1026B600A143A1E0759306759240759188E5915402
:1026C600C070FA859795859694E5A254F84405F569
:1026D600A27591C8E59154C070FAEF24FE333333E6
:1026E60054F84480F5ADE5AD30E0FBE5A254F8447E
:0D26F60004F5A2300007EE4440F5A1C2003B
:0127030022B3
:102E5A005F066B2F363D7D077F3F208058F560B6B1
:0A2E6A00F263D3D770F7F302088576
:0C2BAB008A28090807060405030201003F
:102ECE007F1090006AE4F0A3DFFC7F0A90007AE4A2
:042EDE00F0A3DFFC82
:012EE20022CD
:102E8C007F1090006A74FFF0A3DFFC7F0A90007A39
:062E9C0074FFF0A3DFFC4F
:012EA200220D
:102BEE00EF142428F8E2FBEF64056004EFB4060945
:102BFE0074672DF582742E8007745A2DF582742E0B
:102C0E003CF583E493FE747A2BF582E43400F5836D
:032C1E00E04EF095
:012C21002290
:102D6200EF142428F8E2FDEF64056004EFB40605D1
:102D7200902E728003902E65E493FE747A2DF58274
:082D8200E43400F583E05EF08B
:012D8A002226
:1011F900A907ED700302141FE9121E5D12BD00124A
:10120900C30112C90212CF0312D50412DB0512E180
:101219000612E70712ED0812F30912F90A12FF0B79
:1012290013050C130B0D13110E13170F131D1013A8
:101239002311132912132F13133514133B151341BB
:1012490016134717134D1813531913591A135F1B04
:1012590013651C136A1D136F1E13741F137A201351
:101269007F21138422138923138E24139425139920
:1012790026139E2713A32813A82913AD2A13B22BCB
:1012890013B72C13BC2D13C12E13C62F13CB301338
:10129900D03113D53213DA3313DF3413E73513EFB3
:1012A9003613F73713FF38140739140F3A14173B5D
:1012B9000000163C90007602141A9000760214126F
:1012C90090007602140A90007602140290007702C8
:1012D900141A90007702141290007702140A9000F1
:1012E900770214029000770213FA9000770213F242
:1012F9009000770213EA9000770213E290007902D6
:10130900141A90007902141290007902140A9000BC
:10131900790214029000790213FA9000790213F20B
:101329009000790213EA9000790213E290007402A6
:1013390013E29000740213EA9000740213F2900011
:10134900740213FA90007402140290007402140AD1
:1013590090007402141290007402141A90007280A2
:1013690078900072807B900072807E9000720213E8
:10137900FA900071807B900071806E90007180619D
:10138900900071805490006F02141A90006F807958
:1013990090006F806C90006F805F90006F8052901A
:1013A900006F804590006F803890006F802B90000F
:1013B9006A805E90006A805190006A804490006A59
:1013C900803790006A802A90006A801D90006A80A8
:1013D9001090006A800390006CE04410F0229000A5
:1013E9006CE04420F02290006CE04440F022900030
:1013F9006CE04480F02290006CE04408F0229000F8
:101409006CE04404F02290006CE04402F022900069
:101419006CE04401F022E9121E5D14DB0014E101C5
:1014290014E70214ED0314F30414F90514FF061567
:101439000507150B0815110915170A151D0B152395
:101449000C15290D152F0E15350F153B10154111CA
:10145900154712154D13155314155915155F161502
:101469006517156B1815711915771A157D1B1583D5
:101479001C15881D158D1E15921F159820159D2167
:1014890015A22215A72315AC2415B22515B72615C3
:10149900BC2715C12815C62915CB2A15D02B15D55A
:1014A9002C15DA2D15DF2E15E42F15E93015EE313F
:1014B90015F33215F83315FD34160535160D3616A4
:1014C9001537161D38162539162D3A16353B0000E5
:1014D900163C90007602163890007602163090007D
:1014E90076021628900076021620900077021638A8
:1014F9009000770216309000770216289000770244
:1015090016209000770216189000770216109000A6
:1015190077021608900077021600900079021638B3
:10152900900079021630900079021628900079020D
:101539001620900079021618900079021610900072
:1015490079021608900079021600900074021600BC
:10155900900074021608900074021610900074022C
:101569001618900074021620900074021628900034
:1015790074021630900074021638900072807890C8
:101589000072807B900072807E9000720216189023
:101599000071807B900071806E9000718061900075
:1015A90071805490006F02163890006F8079900016
:1015B9006F806C90006F805F90006F805290006F19
:1015C900804590006F803890006F802B90006A8072
:1015D9005E90006A805190006A804490006A80376A
:1015E90090006A802A90006A801D90006A8010909D
:1015F900006A800390006CE054EFF02290006CE0E8
:1016090054DFF02290006CE054BFF02290006CE0AF
:10161900547FF02290006CE054F7F02290006CE0C7
:1016290054FBF02290006CE054FDF02290006CE035
:0416390054FEF02249
:10163D00A907ED7003021863E9121E5D170100176B
:10164D000701170D02171303171904171F05172587
:10165D0006172B07173108173709173D0A17430BC4
:10166D0017490C174F0D17550E175B0F17611017F4
:10167D006711176D12177313177914177F151785C7
:10168D0016178B17179118179719179D1A17A31B54
:10169D0017A91C17AE1D17B31E17B81F17BE20179D
:1016AD00C32117C82217CD2317D22417D82517DD2C
:1016BD002617E22717E72817EC2917F12A17F62B1B
:1016CD0017FB2C18002D18052E180A2F180F30187F
:1016DD001431181932181E33182334182B351833BA
:1016ED0036183B37184338184B3918533A185B3BAB
:1016FD0000001A8090006B02182690006B02182EC5
:10170D0090006B02183690006B02183E9000760226
:10171D00185E90007602185690007602184E9000D2
:10172D007602184690007802183E9000780218361E
:10173D0090007802182E90007802182690007802FA
:10174D00185E90007802185690007802184E90009E
:10175D007802184690007502184690007502184ED2
:10176D0090007502185690007502185E9000750273
:10177D00182690007502182E9000750218369000EC
:10178D007502183E90007302184690007302184EB1
:10179D0090007302185690007302185E90007380CB
:1017AD0078900073807B900073807E900073021898
:1017BD003E900071807B900071806E900071806111
:1017CD00900071805490006E02185E90006E8079CA
:1017DD0090006E806C90006E805F900070805290D3
:1017ED00007080459000708038900070802B9000C4
:1017FD0070805E90007080519000708044900070F9
:10180D00803790006D803290006D803590006D8036
:10181D003890006D803B90006DE04401F022900007
:10182D006DE04402F02290006DE04404F02290003F
:10183D006DE04408F02290006BE04480F0229000AF
:10184D006BE04440F02290006BE04420F0229000C9
:10185D006BE04410F022E9121E5D191F00192501DD
:10186D00192B02193103193704193D0519430619AE
:10187D004907194F08195509195B0A19610B1967A1
:10188D000C196D0D19730E19790F197F101985111A
:10189D00198B12199113199714199D1519A316194E
:1018AD00A91719AF1819B51919BB1A19C11B19C7E1
:1018BD001C19CC1D19D11E19D61F19DC2019E121B7
:1018CD0019E62219EB2319F02419F62519FB261A0E
:1018DD0000271A05281A0A291A0F2A1A142B1A1961
:1018ED002C1A1E2D1A232E1A282F1A2D301A32318A
:1018FD001A37321A3C331A41341A49351A51361AED
:10190D0059371A61381A69391A713A1A793B000038
:10191D001A8090006B021A4490006B021A4C9000D2
:10192D006B021A5490006B021A5C900076021A7CBE
:10193D00900076021A74900076021A6C900076026E
:10194D001A64900078021A5C900078021A54900084
:10195D0078021A4C900078021A44900078021A7C92
:10196D00900078021A74900078021A6C9000780238
:10197D001A64900075021A64900075021A6C90003A
:10198D0075021A74900075021A7C900075021A4443
:10199D00900075021A4C900075021A549000750251
:1019AD001A5C900073021A64900073021A6C900016
:1019BD0073021A74900073021A7C900073807890F1
:1019CD000073807B900073807E900073021A5C9090
:1019DD000071807B900071806E900071806190002D
:1019ED0071805490006E021A7C90006E8079900088
:1019FD006E806C90006E805F9000708052900070D1
:101A0D0080459000708038900070802B9000708021
:101A1D005E9000708051900070804490007080370F
:101A2D0090006D803290006D803590006D80389003
:101A3D00006D803B90006DE054FEF02290006DE053
:101A4D0054FDF02290006DE054FBF02290006DE00B
:101A5D0054F7F02290006BE0547FF02290006BE081
:101A6D0054BFF02290006BE054DFF02290006BE049
:041A7D0054EFF02210
:10220500E2FF75F00A121CAE785BF2EF75F00A1268
:102215001CAEAFF0785CEFF222900084E0FEA3E004
:10222500D3940AEE940022785EE2FFC3940C2278E0
:102235005EE2C3942422785EE2C39430229000903B
:10224500E0FEA3E0D39432EE940022E475F001029F
:102255001D6D7850E4F2087405F222E224FFF218AD
:10226500E234FFF2227848E2D36480948022900021
:102275008EE0FEA3E0D39490EE94012290801DF0B1
:1022850090801EF090801FF022784DE2C3940422C6
:10229500785B740CF208F2227850E2FE08E24E22D6
:1022A500E2FE08E2D39400EE94002278437428F20B
:0522B500E4783FF22275
:10263A00740112228190800AF074811222819080A2
:10264A001A7403F090801BF09080087405F0908053
:10265A0009F090800CF090800D04F090800EF090BC
:10266A008006F0908007F09080047402F090800554
:10267A00F090800BF0784414F2C284C293C285E4CD
:10268A007836F2783EF2784DF2784004F20874F423
:0C269A00F2E47833F27838F2783FF22254
:102A7900122ECE122901E4908000F0908001F0908E
:102A89008002F0908003F053D8FC90800D7402F01E
:102A990090800EF0C295C29653D8CF908006F090E0
:102AA9008007F0C287C28690800FF090801CF0C228
:042AB90097C2B422EA
:102DB300C284C293C285C2A9C28CC2ABC28EE4785C
:102DC30038F2783FF27836F2F5D8122FC2E4F5AD37
:062DD30075AAA5022BB851
:1000760020B73D12221E50069000841222501222F2
:1000860073500690008E1222501222735003020102
:1000960046900094E0700B7844E2B40102E4F21258
:1000A60022579000947401F078437428F2020146B6
:1000B60012221E407A90008EE0FEA3E09490EE9409
:1000C60001506C7844E26056308453783FE2704EBB
:1000D6007836E204F2E2FFB4010E7826E27848F2BE
:1000E6007821E2783DF28036EFB404157824E2FFF9
:1000F6007822E2FD7825E2FB1224637823EFF28072
:100106001D7836E2D394054015E4F27848E2FF12F2
:100116002CE1783DE2FF122E1BE4FF122F047844F7
:10012600E2600812225778437428F2E4783FF2E43A
:10013600900084F0A3F0900094F090008EF0A3F06D
:1001460030B6030202359000861222215006900036
:1001560086122250900086122221500302024390FA
:100166000095E060030201F87836E224FE601F1471
:10017600602C14604B146054240470737824E2C31A
:10018600648094E35002805EE47824F280617822F1
:10019600E2C36480948C5002804C7822801D121138
:1001A600DCFD3395E0FCED2401FDE43CFCD3ED9F42
:1001B6007480F86C9878255002802B7401F2802F99
:1001C6007848E2C3648094975021801A783DE2C350
:1001D600648094BB5002800EE4783DF27848E2C316
:1001E600648094975005E204F28004E47848F212A1
:1001F60022579000957401F012224250069000900A
:1002060012225012224240227835E294325004E201
:100216002402F27835E2FF900090E4F0A3EFF0E4D8
:10022600900095F0900086F0A3F01222B0800EE4C4
:10023600900086F0A3F0900095F07835F230B50383
:10024600020316900088122221500690008812227E
:10025600509000881222215003020324900096E059
:10026600706B7836E224FE6016146026146037142C
:10027600603B24047054782412226C404D804178EF
:1002860022E2D364809481400280357822740CF295
:1002960080381211DCD36480948140028022785D1C
:1002A600E27825F2802412226A401A8013783D12E1
:1002B600226C4002800A783D743BF212226A4005A5
:1002C600E214F2800578487417F2122257900096CD
:1002D6007401F0900092122245500690009212226C
:1002E6005090009212224540227842E29432500405
:1002F600E22402F27842E2FF900092E4F0A3EFF0EB
:10030600E4900096F0900088F0A3F01222B0800EE0
:10031600E47842F2900088F0A3F0900096F0900006
:1003260083E04480F0900080E04480F090007CE020
:100336004480F0A3E04480F0900072E04401F04471
:1003460008F04404F07837E204F2E2D39432401520
:10035600E4F27820E26004E4F2800578207401F289
:1003660078347401F212001E7833E2600512228E90
:100376004007782412220580031222957F0112116C
:10038600D27F021211C87833E2600512228E40072E
:1003960078221222058003122295785BE2B40102CC
:1003A6008007900082E04480F0900081E04480F075
:1003B6007F031211C87833E2600512228E40077857
:1003C6002512220580031222957F041211D27F0581
:1003D6001211EF7823E2FD3395E0FC7F06122BEE37
:1003E6007836E2FF70127826E2FEC36480948C4071
:1003F6000280107826E2800E7848E2FEC36480947C
:100406008C4008EE24F47860F2800D7848E278603B
:10041600F2900072E054FBF0EF70047821800278CD
:100426003DE2785EF27836E2B40408B40409782036
:10043600E260047F0180027F00AB077860E2121E53
:100446005D046F0004B801050102054603058B042F
:1004560005D005061506065A07069F0806E409078D
:10046600290A07740B000007C3785EE2FEC3940CEA
:100476005009EB600690006B020751EEC3941850CA
:1004860009EB600690006B0207621222345009EBFA
:10049600600690006B02076E12223B5009EB600665
:1004A60090006B02077FEB70030207C39000760291
:1004B60007BF785EE2FEC3940C5009EB600690001D
:1004C600760207B3EEC394185009EB6006900076E7
:1004D6000207A21222345009EB600690007602074A
:1004E6009112223B5009EB600690007802077FEBE1
:1004F60070030207C390007802076E12222C50097F
:10050600EB6006900078020762EFC394185009EB7F
:1005160060069000780207511222345009EB6006FB
:100526009000780207BF12223B5009EB600690004C
:10053600780207B3EB70030207C39000780207A2A4
:1005460012222C5009EB6006900078020791EFC347
:1005560094185009EB600690007502079112223438
:100566005009EB60069000750207A212223B500963
:10057600EB60069000750207B3EB70030207C390A9
:1005860000750207BF12222C5009EB600690007519
:10059600020751EFC394185009EB600690007502EC
:1005A60007621222345009EB600690007502076E4E
:1005B60012223B5009EB600690007502077FEB7034
:1005C600030207C390007302079112222C5009EB15
:1005D60060069000730207A2EFC394185009EB60FF
:1005E600069000730207B31222345009EB6006909E
:1005F60000730207BF12223B5009EB60069000739E
:10060600020751EB70030207C390007302076212E0
:10061600222C5009EB600690007302076EEFC3941C
:10062600185009EB600690007302077F12223450BF
:1006360009EB600690007102077F12223B5009EB1E
:10064600600690007102076EEB70030207C390000C
:100656007102076212222C5009EB600690007102AB
:100666000751EFC394185009EB600690006E02071D
:10067600BF1222345009EB600690006E0207B312D7
:10068600223B5009EB600690006E0207A2EB700356
:100696000207C390006E02079112222C5009EB60EC
:1006A6000690007002077FEFC394185009EB6006AE
:1006B60090007002076E1222345009EB600690001B
:1006C6007002076212223B5009EB6006900070022E
:1006D6000751EB70030207C39000700207BF122296
:1006E6002C5009EB60069000700207B3EFC3941814
:1006F6005009EB60069000700207A21222345009DE
:10070600EB600690007002079112223B5009EB60E5
:100716000690006D020791EB70030207C390006D0F
:100726000207A212222C5009EB600690006D020708
:10073600B3EFC394185009EB600690006D0207BF33
:10074600122234500CEB600990006DE04401F080F9
:100756006C12223B500CEB600990006DE04402F0F5
:10076600805BEB605890006DE04404F0804F1222ED
:100776002C500CEB600990006DE04408F0803EEFD1
:10078600C39418500CEB600990006BE04480F08035
:100796002C122234500CEB600990006BE04440F0C0
:1007A600801B12223B500CEB600990006BE044204A
:1007B600F0800AEB600790006BE04410F07836E2B8
:1007C600B40508B405097820E260047F0180027F41
:1007D60000AB07785EE2121E5D08970008AA0108C2
:1007E600BD0208D00308E30408F405090506091646
:1007F60007092708093A09094D0A09600B09730C0C
:1008060009840D09950E09A60F09B71009CA110921
:10081600DD1209F0130A03140A16150A29160A3CF2
:10082600170A4F180A60190A711A0A821B0A931CC2
:100836000AA61D0AB91E0ACC1F0ADF200AEF210AE2
:10084600FF220B0F230B1F240B30250B41260B52C7
:10085600270B63280B77290B8B2A0B9F2B0BB32CAB
:100866000BC62D0BD92E0BEC2F0BFF300C13310CB6
:1008760026320C39330C4C340C62350C75360C8828
:10088600370C9B380CAC390CBD3A0CCE3B00000C37
:10089600DDEB7003020CDD90006BE04401F090008C
:1008A60076020CD9EB7003020CDD90006BE044027B
:1008B600F0900076020CC8EB7003020CDD90006B22
:1008C600E04404F0900076020CB7EB7003020CDDF6
:1008D60090006BE04408F0900076020CA6EB7003E3
:1008E600020CDD900076E04410F0A3020CD9EB7008
:1008F60003020CDD900076E04420F0A3020CC8EB66
:100906007003020CDD900076E04440F0A3020CB7C1
:10091600EB7003020CDD900076E04480F0A3020C3D
:10092600A6EB7003020CDD900078E04408F090001E
:1009360077020B73EB7003020CDD900078E0440441
:10094600F0900077020B87EB7003020CDD900078C5
:10095600E04402F0900077020B9BEB7003020CDD83
:10096600900078E04401F0900077020BAFEB700343
:10097600020CDD900078E04410F0A3020CD9EB7075
:1009860003020CDD900078E04420F0A3020CC8EBD3
:100996007003020CDD900078E04440F0A3020CB72F
:1009A600EB7003020CDD900078E04480F0A3020CAB
:1009B600A6EB7003020CDD900075E04480F0900019
:1009C60079020B73EB7003020CDD900075E0444076
:1009D600F0900079020B87EB7003020CDD90007536
:1009E600E04420F0900079020B9BEB7003020CDDD3
:1009F600900075E04410F0900079020BAFEB7003A5
:100A0600020CDD900075E04401F0900074020BAF1B
:100A1600EB7003020CDD900075E04402F090007468
:100A2600020B9BEB7003020CDD900075E04404F0B2
:100A3600900074020B87EB7003020CDD900075E0EA
:100A46004408F0900074020B73EB7003020CDD9007
:100A56000073E04480F0A3020CA6EB7003020CDDE9
:100A6600900073E04440F0A3020CB7EB7003020C55
:100A7600DD900073E04420F0A3020CC8EB70030283
:100A86000CDD900073E04410F0A3020CD9EB700368
:100A9600020CDD900073E04401F0900072020BAF8F
:100AA600EB7003020CDD900073E04402F0900072DC
:100AB600020B9BEB7003020CDD900073E04404F024
:100AC600900072020B87EB7003020CDD900073E05E
:100AD6004408F0900072020B73EB7003020CDD9079
:100AE6000071E04408F0020C96EB7003020CDD90F6
:100AF6000071E04404F0020C83EB7003020CDD90FD
:100B06000071E04402F0020C70EB7003020CDD9001
:100B16000071E04401F0020C5DEB7003020CDD9005
:100B2600006EE04410F0A3020CD9EB7003020CDD5A
:100B360090006EE04420F0A3020CC8EB7003020C98
:100B4600DD90006EE04440F0A3020CB7EB700302A8
:100B56000CDD90006EE04480F0A3020CA6EB70035F
:100B6600020CDD900070E04408F090006FE0020C8B
:100B760096EB7003020CDD900070E04404F09000E8
:100B86006FE0020C83EB7003020CDD900070E04412
:100B960002F090006FE0020C70EB7003020CDD9027
:100BA6000070E04401F090006FE0020C5DEB700312
:100BB600020CDD900070E04410F090006A020CD93F
:100BC600EB7003020CDD900070E04420F090006AA8
:100BD600020CC8EB7003020CDD900070E04440F09C
:100BE60090006A020CB7EB7003020CDD900070E017
:100BF6004480F090006A020CA6EB7003020CDD90B4
:100C0600006DE04480F090006AE0020C96EB700301
:100C1600020CDD90006DE04440F090006AE0805DDB
:100C2600EB7003020CDD90006DE04420F090006A4A
:100C3600E08037EB7003020CDD90006DE04410F0AD
:100C460090006AE08011EB7003020CDD90006DE00D
:100C56004401F090006CE04410F0807BEB607890EB
:100C6600006DE04402F090006CE04420F08068EBF8
:100C7600606590006DE04404F090006CE04440F044
:100C86008055EB605290006DE04408F090006CE0F7
:100C96004480F08042EB603F90006BE04480F0A31C
:100CA600E04408F08031EB602E90006BE04440F0A9
:100CB600A3E04404F08020EB601D90006BE044202C
:100CC600F0A3E04402F0800FEB600C90006BE04470
:100CD60010F0A3E04401F07836E27005781FE28058
:100CE60001E4785FF2785FE2121E5D0DA9000DAF98
:100CF600010DB5020DBB030DC1040DC7050DCD06D3
:100D06000DD3070DD9080DDF090DE50A0DEB0B0D07
:100D1600F10C0DF70D0DFD0E0E030F0E09100E0F43
:100D2600110E15120E1B130E21140E27150E2D165D
:100D36000E33170E39180E3F190E451A0E4B1B0EA1
:100D4600511C0E561D0E5C1E0E621F0E68200E6E86
:100D5600210E73220E78230E7D240E83250E8926FE
:100D66000E8E270E93280E98290E9D2A0EA22B0E64
:100D7600A72C0EAC2D0EB12E0EB62F0EBB300EC00C
:100D8600310EC5320ECA330ECF340ED8350EE136CB
:100D96000EEA370EF3380EFC390F053A0F0E3B00FC
:100DA600000F15900076020F11900076020F089042
:100DB6000076020EFF900076020EF6900077020F84
:100DC60011900077020F08900077020EFF900077CF
:100DD600020EF6900077020EED900077020EE49078
:100DE6000077020EDB900077020ED2900079020F98
:100DF60011900079020F08900079020EFF90007999
:100E0600020EF6900079020EED900079020EE49043
:100E16000079020EDB900079020ED2900074020E69
:100E2600D2900074020EDB900074020EE4900074FF
:100E3600020EED900074020EF6900074020EFF9002
:100E46000074020F08900074020F11900072807CEB
:100E5600900072020EDB900072020EE490007202A5
:100E66000EED900071020EED900071807190007190
:100E76008063900071805590006F020F1190006F93
:100E8600020F0890006F807190006F806390006F72
:100E9600805590006F804790006F803990006F807A
:100EA6002B90006A806590006A805790006A80499E
:100EB60090006A803B90006A802D90006A801F90A7
:100EC600006A801190006A800390006CE04410F084
:100ED600803D90006CE04420F0803490006CE0444B
:100EE60040F0802B90006CE04480F0802290006CF3
:100EF600E04408F0801990006CE04404F080109003
:100F0600006CE04402F0800790006CE04401F07849
:100F160049E2FE08E2FF7863EEF2FE08EFF2C3EE66
:100F260064809480505218E2FE08E2FFC3E49FFFFB
:100F3600E49EFE7861F208EFF2C39409EE648094B1
:100F46008050137D0A7C007F07122BEE7861E2FC4D
:100F560008E2FD020FAC7861E2FE08E2D3941EEED1
:100F660064809480500E90007FE04408F018E212EE
:100F760011968032786580127863E2FE08E2FFD32C
:100F86009463EE648094804006087401F2801CD35A
:100F9600EF9409EE648094807863E240051211961E
:100FA6008004FC08E2FD7F08122BEE784BE2FE0877
:100FB600E2FF7C007D0A121CE2785DEFF2E2FF752B
:100FC600F00A84FE785BF2EF75F00A8408E5F0F229
:100FD600EEFD7C007F09122BEE7F0A1211EF783EA0
:100FE600E2146008047008122D0D8003122AFE78A0
:100FF60020E260337836E224FE601014601F24027B
:1010060070257F01122D627F028019900082E054C4
:101016007FF0900081E0547FF07F0380077F041209
:101026002D627F05122D627838E26401703B7814D8
:10103600E2FE08E2FFD3949EEE94074006E478337E
:10104600F28026D3EF947CEE9407500FEF9416EEC1
:101056009407400778337401F2800ED3EF94F4EED0
:101066009406500578337402F27834E26070E4F244
:1010760018E2FF70028012EFB4010D12228E500C9E
:10108600E204F21222578004E4784DF2780EE2B4BC
:101096000105E4F27843F27843E2D394004007E294
:1010A60014F2D284D2857843E27002C2847846E292
:1010B6002401F218E23400F23084107847E260042A
:1010C600E4F2801A78477401F28013E47847F278E4
:1010D60040F208F2783EF27850F208F2C285780CB7
:1010E6001222A540031222607843E270307840E273
:1010F600FE08E24E7027783EE270227847E2701DC5
:1011060020851A12229D7015780504F2122A79128A
:101116002F327B1E7A00E4FD7F04122F147844E2FE
:1011260070547836F2C284784DF27843F2783EF203
:101136007845F208F2780CF208F2C2857838F27037
:10114600357840E2FE08E24E702C783EE270277851
:1011560047E2702220851F12229D701A780504F23C
:10116600122A79D2A8D2897B107A0EE4FDFF122FBB
:10117600147F01122F5C78401222A54003122260D0
:0F11860012229D600712226043D8032253D8FC27
:1011950022FA08E2FB7C007D0AFFAE02121D3778B9
:1011A5005BEFF27C007D0AAF03AE02121D37785C5F
:1011B500EDF218E2FD7C007F07122BEE785CE2FD74
:1011C5007C0022785CE2FD7C00122BEE22785BE24B
:1011D500FD7C00122BEE227824E2FF7822E2FD123C
:1011E5002E74785DEFF27825E222785CE2FD7C00D2
:0411F500122BEE22A9
:102F1400EFC43354E04DF5A9EAF5ACAF038FAB220F
:0400160075AAA52200
:0300000002234D8B
:0C234D00787FE4F6D8FD7581200223940F
:10235900021EB0E493A3F8E493A34003F68001F2CC
:1023690008DFF48029E493A3F85407240CC8C33385
:10237900C4540F4420C8834004F456800146F6DF54
:10238900E4800B0102040810204080902B7DE47E3C
:10239900019360BCA3FF543F30E509541FFEE49349
:1023A900A360010ECF54C025E060A840B8E493A310
:1023B900FAE493A3F8E493A3C8C582C8CAC583CA3B
:1023C900F0A3C8C582C8CAC583CADFE9DEE780BEF3
:012BB700001D
:101CAE00C2D530F707B2D563F0FF05F030E70CB2BE
:101CBE00D5F4048463F0FF05F080018430D502F47E
:021CCE000422EE
:101CD000EF8DF0A4A8F0CF8CF0A428CE8DF0A42E28
:021CE000FE22E2
:101CE200BC000BBE0029EF8DF084FFADF022E4CCE6
:101CF200F875F008EF2FFFEE33FEEC33FCEE9DECAF
:101D0200984005FCEE9DFE0FD5F0E9E4CEFD22EDF4
:101D1200F8F5F0EE8420D21CFEADF075F008EF2F3E
:101D2200FFED33FD4007985006D5F0F222C398FD2F
:051D32000FD5F0EA22CC
:101D3700C2D5EC30E709B2D5E4C39DFDE49CFCEEC7
:101D470030E715B2D5E4C39FFFE49EFE121CE2C341
:101D5700E49DFDE49CFC8003121CE230D507C3E43C
:061D67009FFFE49EFE2236
:101D6D00C5F0F8A3E028F0C5F0F8E5821582700201
:061D7D001583E038F0229E
:101D830075F008758200EF2FFFEE33FECD33CDCC17
:101D930033CCC58233C5829BED9AEC99E58298409A
:101DA3000CF582EE9BFEED9AFDEC99FC0FD5F0D677
:101DB300E4CEFBE4CDFAE4CCF9A88222B800C1B9A1
:101DC3000059BA002DEC8BF084CFCECDFCE5F0CBDF
:101DD300F97818EF2FFFEE33FEED33FDEC33FCEB18
:101DE30033FB10D703994004EB99FB0FD8E5E4F9D3
:101DF300FA227818EF2FFFEE33FEED33FDEC33FCC0
:101E0300C933C910D7059BE99A4007EC9BFCE99AB3
:101E1300F90FD8E0E4C9FAE4CCFB2275F010EF2FF8
:101E2300FFEE33FEED33FDCC33CCC833C810D707F8
:101E33009BEC9AE899400AED9BFDEC9AFCE899F833
:0E1E43000FD5F0DAE4CDFBE4CCFAE4C8F922C6
:0C1E5100A42582F582E5F03583F583229C
:101E5D00D083D082F8E4937012740193700DA3A314
:101E6D0093F8740193F5828883E473740293686028
:061E7D00EFA3A3A380DF28
:101E8300EC8EF0A4CCC5F0CCCDF8EFA4CEC5F02DEC
:101E9300FDE43CFCE8A42EC8C5F03DFDE43CFCEFAA
:0D1EA300A4FFE5F028FEE43DFDE43CFC2238
:00000001FF
