:0D326E00810E00810000820100008103003C
:10304400D39001F0E094009001EFE0940022786BBB
:1030540008E2FF24FFF218E2FE34FFF2EF4E22D31F
:103064009001ECE0940A9001EBE0940022F2E47801
:1030740007F27805F222E475F001121F07D39001DC
:0D308400F0E0227803E2FF7806E2FE6F2202
:0E36FD00758911758CCF758AFFD2A9D28C22E7
:03000B0002357A41
:10357A00C0E0C0D075D000C000758CCF758AFF78C6
:10358A0006E204F2E2B4FF02E4F2D000D0D0D0E0C6
:01359A0032FE
:0C377700758F1FD2A8D289D288D2B82248
:0C378300758E1ED2AAD28BD28AC2BA2246
:0C378F00E4F5C075FB9DD2E843F901226F
:0E370B00D2A8D289D2AAD28BD2E843F90122E9
:0E371900C2A8C289C2AAC28BC2E853F9FE221E
:102A2F007F04122CF19080007402F0A3F0A3F0A3A6
:102A3F00F090800D7406F0A3F0908006F0A3F012D2
:102A4F002C18123719E4FF1237357F807E257D0051
:102A5F007C00122D4FD2A9D28CD285D284D293E48E
:102A6F009001EFF0A3F078437428F278447401F2E8
:102A7F00E47833F2783EF27816F208F2781AF278A8
:102A8F0011F27847F2780E7402F2784014F208745B
:102A9F00F4123071780CF208F2784DF27850F20897
:042AAF007405F22296
:030003000230DEEA
:1030DE00C0E0C0F0C083C082C0D075D000C000C0B8
:1030EE0001C002C003C004C005C006C00775AAA572
:1030FE00C2A8C289E4FF123735780A7401F2D007EC
:10310E00D006D005D004D003D002D001D000D0D04C
:09311E00D082D083D0F0D0E03261
:0300130002312790
:10312700C0E0C0F0C083C082C0D075D000C000C06E
:1031370001C002C003C004C005C006C00775AAA528
:10314700C2AAC28B780A7401F2E4FF123735D0079E
:10315700D006D005D004D003D002D001D000D0D003
:09316700D082D083D0F0D0E03218
:03003B00022EB1E1
:102EB100C0E0C0F0C083C082C0D075D000C000C0E7
:102EC10001C002C003C004C005C006C00775AAA5A1
:102ED100E5FA30E01275FA01780A7401F2E4FF12A2
:102EE1003735C2E853F9FED007D006D005D004D05B
:102EF10003D002D001D000D0D0D082D083D0F0D086
:022F0100E032BC
:102F03007847E26045309227C39001F0E094321293
:102F1300304B503D12307A943112304B4033780E9F
:102F2300E26401702C7402F2E4780CF208F22212CB
:102F33003044400774FFF5F0121F079001EFE07073
:102F430002A3E0700C780E04F2227843E27002C20E
:022F53008522D5
:102F550030922BC39001F0E0941412304B50401284
:102F6500307A941312304B4036780EE26402602FAB
:102F7500123072780E7402F2122A2F7F012212305B
:102F850044400774FFF5F0121F07D39001F0E09459
:102F95000112304B5009780E7401F2E4F0A3F07F72
:022FA500002208
:030063000237431E
:0D374300C0E0E5AA30E10375AAA5D0E03290
:1033DB007806E2FF7800E26F6022EFF220B60C1263
:1033EB0030635018E475F001021F0712306340057B
:0C33FB00780BE204F2E49001EBF0A3F088
:0134070022A2
:1024D9001236A79001D7E044011225DF9001D712E7
:1024E90025C59001D7E044041225DF9001E81225A3
:1024F900AB9001E51225AB9001E11225B89001E2FC
:102509001225B89001DF1225D29001E41225C5E405
:10251900786FF2786FE2FFC3943C50147D01121278
:102529004C1225E9E4FD12124C786FE204F280E3C3
:10253900E4786FF2786FE2FFC3943C50147D011286
:1025490016901225E9E4FD121690786FE204F280E4
:10255900E3E4786FF2E47870F27870E2FEC3940AEB
:10256900502018E2FFEEFD7C00123315122FA77FD1
:1025790014120026786FE2FF1234E07870E204F258
:1025890080D7786FE204F2E2C3940B40C89001E669
:102599001225D29001E7E04480F0122FA77F1402A0
:0225A90000260A
:1025AB00E04480F0122FA77F1412002622E0448013
:1025BB00F0122FA77F1412002622E04408F0122FEE
:1025CB00A77F1412002622E04480F0122FA77F145D
:1025DB0012002622F0122FA77F1412002622122F90
:0B25EB00A77F14120026786FE2FF2289
:102340007F04122CF17F011236CD122C85E4FBFDA7
:102350007F01123091E4FB7D0FFF1237A7E4FF12DB
:1023600037357F807E257D007C00122D4FD2857F02
:102370000A120026122886D2841224D91236641238
:102380002FA77F011236CD1236FD12377712378311
:1023900012378F122C187B4B7A00E4FD7F04123623
:1023A000ED120016D2ED785274FFF20814F2785054
:1023B000E4F2087405F278437428123071D2AFD277
:1023C000937805E270447807E270F6123087602A4D
:1023D0007803EEF218E22401F218E23400F2123629
:1023E000A7120076D37802E2940A18E29400400A19
:1023F000E4F208F2122886122FA7122F03120016F9
:102400003009BEC2091227D080B71234B6C2847810
:1024100044E26042780AE2601EE4F2D285C2847827
:102420006B7407F20874D0F21230526004D28580C7
:10243000F7122A2F0224D3C284D285D293786BE478
:10244000F2087428F21230526006122F55EF60F530
:0B24500075AAA50224D3780AE2607090
:10245B00E4F27F04122CF17F01120026123719D2FD
:10246B00A9D28CE4780BF29001EDF0A3F0786DF229
:10247B000874C8F2786EE2700218E260201230879E
:10248B00600F7803EEF2786EE224FFF218E234FF6D
:10249B00F220B7091233DB780BE2B403D7780BE2E7
:1024AB00B4030CD2857F01120026122A2F8008124A
:0E24BB00370B7F01123735E49001EDF0A3F0EE
:1024C90080081235FB7F011237351235FB0223C113
:1032A900E4F5B1F5A190FC00E04440F0E58654F066
:1032B9004404F586123727EF60FAA2AF9200D2AF25
:1032C90078077401F21237BAE58654F0440BF58693
:0532D90075AAA5D2AFAB
:0132DE0022CD
:0737BA00438702000000221A
:0E372700E5FF7004E5FE60037F00227F0122B3
:1025F6000E690E640E5E0E570E4F0E450E3A0E2DE8
:102606000E200E100DFF0DEC0DD80DC10DA90D8E6F
:102616000D700D500D2F0D0D0CF00CD20CB50C9845
:102626000C7A0C5F0C4D0C3C0C1F0C070BEE0BD5FB
:102636000BAF0B880B600B380B4A0B210AF70ACD40
:102646000AA10A760A4A0A1E09F209C50998096BFF
:10265600093D091008E308B50888085A082D08003E
:1026660007D307A7077A074F072306F806CD06A361
:10267600067A06510628060005D905B2058C0567B7
:102686000542051E04FB04D904B7049604750456D6
:10269600043A041803FB03DE03C203A7038C037288
:1026A600035903400328031002FA02E402CE02B9DA
:1026B60002A50291027E026C0259024802370226E6
:1026C6000216020701F801E901DB01CD01C001B3E1
:1026D60001A6019A018F01830178016D01630159F9
:1026E600014F0145013C0133012B0122011A011260
:1026F600010B010300FD00F500EF00E800E200DC3D
:0A327B0082160000811A0081110084
:102DAA007916E3C4F854F0C868FF09E3C4540F481D
:102DBA007818CFF208EFF2E408F27816F208F278FF
:102DCA0011E204F22212000E12003E7817E22FF2EC
:102DDA0018E23EF2781AE204F2E2C39410227C006E
:102DEA007D64021E6A7C00121E7CC3227811E2D323
:0A2DFA009402227C00121E7CC3220A
:10340800EDC4333354C0441C4FF5B975BAF0EBB46E
:10341800010E787DE2C4333354C04423F5BB8003E6
:0D34280075BB23EDB40102D2E843B92022A8
:0837B200E5BA54F04FF5BA220C
:04000E0043B9802250
:10003E00E5B930E5FB43B920AFBDEFFEADBC7C00AA
:10004E00E42DFFEC3EC4F854F0C868FEEFC4540F24
:02005E0048FF59
:01006000227D
:102B2F00E4FF75F002EF9025F6122053E493FC7446
:102B3F000193FDC37819E29D18E29C4050EF24E207
:102B4F00784AF2E434FF18F27852E2FC08E2FD789A
:102B5F004AE22DF218E23CF2E2FC08E2FDD394E2E5
:102B6F00EC6480947F400BD3ED9463EC648094808D
:102B7F00400D784EE2FD08E27849CDF208EDF2788B
:102B8F0049E2FF08E2784ECFF208EFF2220FEFD3BF
:042B9F009482408E4E
:012BA300220F
:103461007F021237B21F120026122DCF4003122DF8
:10347100AA122DF64014E4F2122B2F783E7401F2B9
:0A348100E4787DF2FBFDFF12340831
:01348B00221E
:1031B2007F051237B2122DCF4003122DAA122DF61F
:1031C200402DE4F27818E2FF08E27814CFF208EF1B
:1031D200F278387401F2308412783E04F243D83027
:0F31E200E4787DF2FBFD7F01023408E4783EF2D1
:0131F10022BB
:04211300786AEDF207
:10211700C3EF9488EE941340077A007BC802225ECF
:10212700C3EF9428EE940A40097D30122DEF7430E6
:10213700805CC3EF9414EE940540097D1A122DEFCD
:10214700745E804AC3EF9476EE940240117C007D62
:102157000A121E6A7D86121E7CC3748D8030C3EFFF
:102167009436EE940140177C007D0A121E6AEF78C0
:1021770006CEC313CE13D8F9FFC374C08010C3EFC4
:1021870094A0EE940040107D03122DFD74F79FFB81
:1021970074019EFA02225EC3EF9457EE9400400D3D
:1021A700122DE87D92121E7CC374308040C3EF94D9
:1021B70031EE9400400D122DE87D4C121E7CC37445
:1021C70066802AC3EF941FEE9400400D122DE87D20
:1021D70024121E7CC374AE8014C3EF9414EE9400D3
:1021E7004013122DE87D16121E7CC374E59FFB7405
:1021F700029EFA8062C3EF940DEE9400400D122DFB
:10220700E87D0E121E7CC374198046C3EF9408EE56
:10221700940040107C037DE8121E6A7D5C122DFD40
:102227007449802DC3EF9406EE940040137C037D20
:10223700E8121E6A7C007D36121E7CC3748A8011E8
:10224700122DE8EF7802CEC313CE13D8F9FFC3746B
:10225700CA9FFB74039EFA786AE2FFD3942850144E
:10226700EF75F002A4FFEB2432FDE43ACDC39FFBE8
:10227700ED95F0FA784BE2FE08E2FFD394C8EE94AE
:1022870000400BEF2BFBEE3AC313FAEB13FBC3EB48
:1022970094B6EA9403400CEB94E7EA940350047471
:1022A700CF803DC3EB9484EA9403400CEB94B5EAEA
:1022B70094035004749D8028C3EB9452EA9403401E
:1022C7000CEB9483EA94035004746B8013C3EB9470
:1022D70020EA94034015EB9451EA9403500D7439A6
:1022E7002BFB74033AC313FAEB13FB74052BFBE4C4
:1022F7003AFAC3EB94E7EA940340047A037BE7785E
:102307001BE2FE08E2FFD39BEE9A400B780F74FFA7
:10231700F20874FBF28017C3EF9BEE9A500A780F0E
:10232700E4F2087407F28006E4780FF208F2781BEB
:08233700EAF208EBF2FFAE022E
:01233F00227B
:1029A500122DCF4003122DAA122DF6407CE4F278A9
:1029B50018E2FF08E27812CFF208EFF218E2FE08FB
:1029C500E2FFE49FFF74109EFE7C017DD61220A7D6
:1029D500C006C0077812E2FE08E2FBAA06E4F9F891
:1029E500D007D006121FA874052FFFE43EFE7C0019
:1029F5007D0A121E7C7849E2FC08E2FDC3EC648086
:102A050094805008E47868F208F280077868ECF260
:102A150008EDF2786808E2FD122113784BEEF20812
:092A2500EFF253D8CFE4783EF241
:012A2E002285
:03001B000231F2BD
:1031F200C0E0C0F0C083C082C0D075D000C000C0A3
:1032020001C002C003C004C005C006C007C2ABC2F1
:103212008E1229A5D007D006D005D004D003D00243
:0F322200D001D000D0D0D082D083D0F0D0E03215
:0300730002337BDA
:10337B00C0E0C0D075D000C000C007E5D430E11864
:10338B0075D402783EE2B4020F7F011237B2758D0D
:10339B00FF758BE7D2ABD28ED007D000D0D0D0E068
:0133AB0032EF
:10359B00EF7802C333CE33CED8F9FFEF1FAA0670F4
:1035AB00011E4A600BE4FDEDC3940F50EE0D80F746
:0135BB0022ED
:10002600AC07AF041CEF60097F507E0012359B8041
:05003600F175AAA522EE
:1036CD00AB07AF031BEF60077FF412002680F322D8
:1035DD00781DF2087408F2123510740E781DF20879
:0E35ED007404F222D281EEC313781DF20F2275
:07350900781DF2087408F2BE
:10351000C280E4FF781EE2FEEFC39E5013C2811802
:10352000E2FE30E004D2828002C2821235F180E4F1
:013530002278
:0E33AC001233BAD2837401781DF2087408F24D
:1033BA00C283E4FF781EE2FEEFC39E5013C2811857
:1033CA00E2FE30E004D2828002C2821235F180E449
:0133DA0022D0
:102886009080007402F0908001F0908002F09080B9
:1028960003F0D280D28174C11235DD123510D28098
:1028A6007401123509740C1235E9123510D2807490
:1028B600011235DD123510D280781D74A11235DF74
:1028C600123510D280781D74391235DF123510D2C8
:1028D60080D283D28174C11233B31235E71233AC7E
:1028E600781D740CF2087404F21233AC1235E71238
:1028F60033BAD283781D74A11233B51235E7123379
:10290600BAD283781D74391233B51235E71233BA49
:03291600D2832247
:102FA7007405123509E4781DF20804F2123510E4AD
:102FB700FD74CF2DF582E43401F583E01235090D58
:102FC700EDB410EDD280781D74051233B5E4781D89
:102FD700F20804F21233BAE4FD74DF2DF582E4340B
:0E2FE70001F583E01233B30DEDB40AEDD28391
:012FF50022B9
:10367B0078727401F2E408F2082233333354F8FF02
:06368B00E5DB54F04F22C4
:10348C008FC0EF30E00BED123685FF7874E24F8081
:10349C0007AF05EF1236854BF5DB7872E2C4333398
:0A34AC00335480FF08E24FF5DC22E4
:1036BC008FC0ECF5DEAF058FDDEAF5D1AF038FDF00
:0136CC0022DB
:03001E008FD92255
:05000600E5D970FC22A9
:103349008FC0AF05EFC43333335480FFE5DB540F2F
:103359004FFFAE03EEC4333354C04FFF7872E2C45B
:103369003354E04FFF08E2C454F04FF5DB08E2F5AF
:02337900DA2256
:102C180012367BF27B017D01122C7704F2122C779D
:102C2800F27F0412348C12367B04F27F0512348C46
:102C38007B2C7A017D587C02E4FF1236BC7F03129C
:102C4800001E1200067B9A7A037D337C070F12362A
:102C5800BC7F3012001E12000643D830787212363C
:102C68007D7419F2E4FBFD7F04123349D2EF22FF91
:0D2C780012348C78727401F2E408F2082224
:0D375D00001F1C1F1E1F1E1F1F1E1F1E1FF2
:10328500812717812608812100811F008124128151
:05329500220881250163
:0D376A007824E2FF7822E2FD7825E2FB22C0
:03006B00022E5C06
:102E5C00C0E0C0F0C083C082C0D075D000C000C03C
:102E6C0001C002C003C004C005C006C007E5EE30B7
:102E7C00E10343EE02E5FA30E60343FA08E5EE30EF
:102E8C00E00843EE01E4FF123735D007D006D00539
:102E9C00D004D003D002D001D000D0D0D082D083C7
:052EAC00D0F0D0E0327F
:1030910043A108E5A130E2FBEFC43333335480FF91
:1030A100E5F1541F4FFFAE05EEC4333354C04FFF5B
:1030B100AE03EEC43354E04FF5F17F171234357F80
:1030C1003B1235BC7F1E1236DD75F21E75F33B7562
:0D30D100F41712376A122AB37823EFF222A7
:0B37A7008FECAF058FEBAF038FEA2221
:0E373500EF64016003C2EE2243F11CD2EE22CB
:1036DD0043F1028FF27F647E0012359B53F1FD2280
:1035BC00787AEFF243F1021235CF43F102787A12A6
:1035CC0035CF22E2F5F37F647E0012359B53F1FD7B
:0135DC0022CC
:10343500787AEFF243F102E5F454E0FF1234524397
:10344500F102E5F454E0FF787A12345222E24FF5A6
:0C345500F47F647E0012359B53F1FD22D1
:0D375000EF24D0FFEF54037002D322C322F8
:10364C00EDB4020D1237505008ED90375D9304FF26
:08365C0022ED90375D93FF227F
:062AB300787AEBF2A905A0
:102AB9007E14E9D39402500FEF75F06484E5F07049
:102AC900011E1F740C29F9EF1313543FFDEF2DFD5F
:102AD900E433FCEE1313543F7A002DFDEA3CFCAFBE
:102AE90006EF75F002A4FFC3ED9FFBEC95F0FAE940
:102AF9002401FFE433FE7C007D1A121E6A7D0A124E
:102B09001E7CEF2BFFEE3AFE787AE27C002FFFEC79
:102B19003ECF24C2CF3409FE7D07121E7CAF05EFDC
:052B29006001227F079E
:012B2E002284
:102E04007826E2FF08F2EF704E7825E204F218E229
:102E1400FF7822E2FD12364C7825E2FED3EF64807F
:102E2400F8EE64809840267822E204F27825740152
:102E3400F27822E2D36480948C40127401F27824F4
:102E4400E204F2E2D3648094E34002E4F212376ACB
:082E5400122AB37823EFF222E9
:1035FB00781FE5F2F27821E5F3F2E5F4541F782613
:0C360B00F2E2FF08E26F6003122E0422BE
:02329A00C18BE6
:0C379B0043A180E5A254F84401F5A222ED
:102CF100EFC394024057EFD394085051300B2BAEE1
:102D0100A143A1E0759306759240759188E59154B0
:102D1100C070FA859795859694E5A254F84405F517
:102D2100A27591C8E59154C070FAEF24FE33333394
:102D310054F84480F5ADE5AD30E0FBE5A254F8442C
:0D2D410004F5A2300B07EE4440F5A1C20BD3
:012D4E002262
:103632005F066B2F363D7D077F3F208058F560B6D1
:0A364200F263D3D770F7F302088596
:0C329C008A280908070604050302010047
:1036A7007F109001CFE4F0A3DFFC7F0A9001DFE4F5
:0436B700F0A3DFFCA1
:0136BB0022EC
:103664007F109001CF74FFF0A3DFFC7F0A9001DF8D
:0636740074FFF0A3DFFC6F
:01367A00222D
:10331500EF142428F8E2FBEF64056004EFB4060916
:10332500743F2DF5827436800774322DF58274361C
:103335003CF583E493FE74DF2BF582E43401F583D9
:03334500E04EF067
:013348002262
:1034E000EF142428F8E2FDEF64056004EFB406054C
:1034F00090364A800390363DE493FE74DF2DF582CA
:08350000E43401F583E05EF004
:0135080022A0
:10124C00A907ED7003021472E91220811310001328
:10125C001601131C02132203132804132E05133436
:10126C0006133A07134008134609134C0A13520B82
:10127C0013580C135E0D13640E136A0F13701013B6
:10128C007611137C12138213138814138E15139476
:10129C0016139A1713A01813A61913AC1A13B21B12
:1012AC0013B81C13BD1D13C21E13C71F13CD20135F
:1012BC00D22113D72213DC2313E12413E72513ECDB
:1012CC002613F12713F62813FB2914002A14052BD7
:1012DC00140A2C140F2D14142E14192F141E301440
:1012EC002331142832142D33143234143A35144269
:1012FC0036144A37145238145A3914623A146A3B69
:10130C000000168F9001DB02146D9001DB02146556
:10131C009001DB02145D9001DB0214559001DC029C
:10132C00146D9001DC0214659001DC02145D9001D7
:10133C00DC0214559001DC02144D9001DC021445C2
:10134C009001DC02143D9001DC0214359001DE02A8
:10135C00146D9001DE0214659001DE02145D9001A3
:10136C00DE0214559001DE02144D9001DE0214458C
:10137C009001DE02143D9001DE0214359001D90279
:10138C0014359001D902143D9001D90214459001F5
:10139C00D902144D9001D90214559001D902145D53
:1013AC009001D90214659001D902146D9001D78077
:1013BC00789001D7807B9001D7807E9001D7021462
:1013CC004D9001D6807B9001D6806E9001D68061C5
:1013DC009001D680549001D402146D9001D4807980
:1013EC009001D4806C9001D4805F9001D480529095
:1013FC0001D480459001D480389001D4802B900189
:10140C00CF805E9001CF80519001CF80449001CF6E
:10141C0080379001CF802A9001CF801D9001CF8022
:10142C00109001CF80039001D1E04410F022900184
:10143C00D1E04420F0229001D1E04440F022900110
:10144C00D1E04480F0229001D1E04408F0229001D8
:10145C00D1E04404F0229001D1E04402F02290014A
:10146C00D1E04401F022E9122081152E001534013F
:10147C00153A02154003154604154C051552061570
:10148C005807155E08156409156A0A15700B157650
:10149C000C157C0D15820E15880F158E10159411D8
:1014AC00159A1215A01315A61415AC1515B2161510
:1014BC00B81715BE1815C41915CA1A15D01B15D690
:1014CC001C15DB1D15E01E15E51F15EB2015F02175
:1014DC0015F52215FA2315FF24160525160A2616CE
:1014EC000F27161428161929161E2A16232B162810
:1014FC002C162D2D16322E16372F163C3016413148
:10150C00164632164B3316503416583516603616AE
:10151C00683716703816783916803A16883B0000F2
:10152C00168F9001DB02168B9001DB021683900163
:10153C00DB02167B9001DB0216739001DC02168B2A
:10154C009001DC0216839001DC02167B9001DC0218
:10155C0016739001DC02166B9001DC02166390018D
:10156C00DC02165B9001DC0216539001DE02168B36
:10157C009001DE0216839001DE02167B9001DE02E2
:10158C0016739001DE02166B9001DE021663900159
:10159C00DE02165B9001DE0216539001D90216533F
:1015AC009001D902165B9001D90216639001D90201
:1015BC00166B9001D90216739001D902167B90011B
:1015CC00D90216839001D902168B9001D78078909E
:1015DC0001D7807B9001D7807E9001D702166B904B
:1015EC0001D6807B9001D6806E9001D680619001EF
:1015FC00D680549001D402168B9001D4807990013E
:10160C00D4806C9001D4805F9001D480529001D42E
:10161C0080459001D480389001D4802B9001CF80EC
:10162C005E9001CF80519001CF80449001CF8037E4
:10163C009001CF802A9001CF801D9001CF80109017
:10164C0001CF80039001D1E054EFF0229001D1E062
:10165C0054DFF0229001D1E054BFF0229001D1E090
:10166C00547FF0229001D1E054F7F0229001D1E0A8
:10167C0054FBF0229001D1E054FDF0229001D1E016
:04168C0054FEF022F6
:10169000A907ED70030218B6E9122081175400174C
:1016A0005A01176002176603176C04177205177842
:1016B00006177E07178408178A0917900A17960BD2
:1016C000179C0C17A20D17A80E17AE0F17B4101702
:1016D000BA1117C01217C61317CC1417D21517D882
:1016E0001617DE1717E41817EA1917F01A17F61B62
:1016F00017FC1C18011D18061E180B1F18112018A6
:101700001621181B22182023182524182B251830E1
:1017100026183527183A28183F2918442A18492B23
:10172000184E2C18532D18582E185D2F186230188B
:101730006731186C32187133187634187E35188674
:1017400036188E37189638189E3918A63A18AE3BB8
:1017500000001AD39001D00218799001D0021881AC
:101760009001D00218899001D00218919001DB02FB
:1017700018B19001DB0218A99001DB0218A19001B9
:10178000DB0218999001DD0218919001DD021889A1
:101790009001DD0218819001DD0218799001DD02CF
:1017A00018B19001DD0218A99001DD0218A1900185
:1017B000DD0218999001DA0218999001DA0218A155
:1017C0009001DA0218A99001DA0218B19001DA0248
:1017D00018799001DA0218819001DA0218899001D3
:1017E000DA0218919001D80218999001D80218A134
:1017F0009001D80218A99001D80218B19001D880A0
:10180000789001D8807B9001D8807E9001D8021812
:10181000919001D6807B9001D6806E9001D6806138
:101820009001D680549001D30218B19001D38079F1
:101830009001D3806C9001D3805F9001D58052904D
:1018400001D580459001D580389001D5802B90013D
:10185000D5805E9001D580519001D580449001D50E
:1018600080379001D280329001D280359001D280B1
:10187000389001D2803B9001D2E04401F0229001E7
:10188000D2E04402F0229001D2E04404F022900120
:10189000D2E04408F0229001D0E04480F022900190
:1018A000D0E04440F0229001D0E04420F0229001AA
:1018B000D0E04410F022E912208119720019780159
:1018C000197E02198403198A0419900519960619BC
:1018D0009C0719A20819A80919AE0A19B40B19BA5C
:1018E0000C19C00D19C60E19CC0F19D21019D81128
:1018F00019DE1219E41319EA1419F01519F616195C
:10190000FC171A02181A08191A0E1A1A141B1A1A96
:101910001C1A1F1D1A241E1A291F1A2F201A3421BF
:101920001A39221A3E231A43241A49251A4E261A16
:1019300053271A58281A5D291A622A1A672B1A6C1B
:101940002C1A712D1A762E1A7B2F1A80301A853197
:101950001A8A321A8F331A94341A9C351AA4361AFA
:10196000AC371AB4381ABC391AC43A1ACC3B000046
:101970001AD39001D0021A979001D0021A9F9001B9
:10198000D0021AA79001D0021AAF9001DB021ACF41
:101990009001DB021AC79001DB021ABF9001DB0243
:1019A0001AB79001DD021AAF9001DD021AA790016B
:1019B000DD021A9F9001DD021A979001DD021ACF15
:1019C0009001DD021AC79001DD021ABF9001DD020D
:1019D0001AB79001DA021AB79001DA021ABF900121
:1019E000DA021AC79001DA021ACF9001DA021A97C6
:1019F0009001DA021A9F9001DA021AA79001DA0226
:101A00001AAF9001D8021AB79001D8021ABF9001FC
:101A1000D8021AC79001D8021ACF9001D8807890C6
:101A200001D8807B9001D8807E9001D8021AAF90B7
:101A300001D6807B9001D6806E9001D680619001A6
:101A4000D680549001D3021ACF9001D380799001AF
:101A5000D3806C9001D3805F9001D580529001D5E6
:101A600080459001D580389001D5802B9001D5809C
:101A70005E9001D580519001D580449001D580378A
:101A80009001D280329001D280359001D28038907E
:101A900001D2803B9001D2E054FEF0229001D2E0CE
:101AA00054FDF0229001D2E054FBF0229001D2E0EC
:101AB00054F7F0229001D0E0547FF0229001D0E062
:101AC00054BFF0229001D0E054DFF0229001D0E02A
:041AD00054EFF022BD
:103691004765742074696D65206F6B0D0A00657252
:0636A100726F720D0A00B9
:10270600FFEC3EFEA3E02FFFEC3EFEA3E02FFFEC26
:102716003EFEA3E02F22E2FF75F00A121E2F786F0D
:10272600F2EF75F00A121E2FAFF07870EFF22290DA
:1027360001E9E0FEA3E0D3940AEE9400227872E267
:10274600FFC3940C227872E2C39424227872E2C307
:102756009430229001F5E0FEA3E0D39432EE94008B
:1027660022E475F001021F077850E4F2087405F2BE
:1027760022E224FFF218E234FFF2227848E2D36420
:10278600809480229001F3E0FEA3E0D39490EE942F
:10279600012290801DF090801EF090801FF022781C
:1027A6004DE2C3940422786F740CF208F222E2FE22
:1027B60008E2D39400EE94002278437428F2E47879
:0A27C6003FF222E2FE08E2FFD322F8
:102C8500740112279890800AF07481122798908019
:102C95001A7403F090801BF09080087405F0908002
:102CA50009F090800CF090800D04F090800EF0906B
:102CB5008006F0908007F09080047402F090800503
:102CC500F090800BF0784414F2C284C293C285E47C
:102CD5007836F2783EF2784DF2784004F20874F4D2
:0C2CE500F2E47833F27838F2783FF22203
:102FF6001236A7122FA7E4908000F0908001F0907F
:103006008002F0908003F0908019F0908018F053C1
:10301600D8FC90800D7402F090800EF0C295C29696
:1030260053D8CF908006F0908007F0C287C2869072
:0E303600800FF090801CF0C297C2B402370BDE
:1034B600C284C293C285C2CEC2ACC2A9C28CC2AB00
:1034C600C28EE47838F2783FF27836F2F5D81237C1
:0A34D6009BE4F5AD75AAA50232A92A
:1027D000E4FDFC900199F090019BE064AC60030281
:1027E000287CA3E064AA600302287CA3E0F92DFF03
:1027F000E433FEA3E02F122706122706FDEC3EFC71
:10280000749E29F582E43401F583E0FE749F29F576
:1028100082E43401F583E07A002400FFEA3EFEEF13
:102820006D7002EE6C705590019FE07824F2FFA36A
:10283000E07822F2FDA3E0FE7825F2FB122AB378BD
:1028400023EFF29001A2E07848F2FFA3E0783DF296
:10285000A3E07832F2123435783DE2FF1235BC78CD
:1028600032E2FF1236DD7BFF7A3679911232DF7861
:1028700050E4F2087419F2E47836F2227BFF7A36DB
:05288000799F1232DF18
:012885002230
:1000760020B73D12273550069001E912276712274F
:100086008A50069001F312276712278A500302014D
:10009600659001F9E0700B7844E2B40102E4F212D3
:1000A600276E9001F97401F078437428F202016515
:1000B60012273550030201549001F3E0FEA3E094A9
:1000C60090EE940140030201547844E2606F30845C
:1000D6006C783FE270677836E204F2E2FFB4010E14
:1000E6007826E27848F27821E2783DF2804FEF6494
:1000F60004702D12121BFD3395E0FCC3ED9F748036
:10010600F86C9840067871E27825F27824E2FF7858
:1001160022E2FD7825E2FB122AB37823EFF2801D56
:100126007836E2D394054015E4F27848E2FF1234BB
:1001360035783DE2FF1235BCE4FF1236DD7844E245
:10014600600812276E78437428F2E4783FF2E49050
:1001560001E9F0A3F09001F9F09001F3F0A3F0307B
:10016600B6030202549001EB12273850069001EBB9
:100176001227679001EB12273850030202629001A2
:10018600FAE060030202177836E224FE601F14606C
:100196002C14604B146054240470737824E2C364F6
:1001A6008094E35002805EE47824F280617822E253
:1001B600C36480948C5002804C7822801D12121BDE
:1001C600FD3395E0FCED2401FDE43CFCD3ED9F748A
:1001D60080F86C9878255002802B7401F2802F7875
:1001E60048E2C3648094975021801A783DE2C36444
:1001F6008094BB5002800EE4783DF27848E2C364F6
:100206008094975005E204F28004E47848F21227BD
:100216006E9001FA7401F012275950069001F512FA
:10022600276712275940227835E294325004E22497
:1002360002F27835E2FF9001F5E4F0A3EFF0E490E6
:1002460001FAF09001EBF0A3F01227BF800EE490C4
:1002560001EBF0A3F09001FAF07835F230B5030225
:1002660003449001ED12273850069001ED122767DE
:100276009001ED12273850030203529001FBE07003
:100286007A7836E224FE60161460261460461460FE
:100296004A240470637824122783405C80507822B5
:1002A600E2D364809481400280447822740CF28008
:1002B600477824E2FF7822E2FD12364C7871EFF29D
:1002C6007825E2D364809481400280227871E278B6
:1002D60025F28024122781401A8013783D12278345
:1002E6004002800A783D743BF21227814005E214F1
:1002F600F2800578487417F212276E9001FB74019C
:10030600F09001F712275C50069001F712276790CC
:1003160001F712275C40227842E294325004E2242C
:1003260002F27842E2FF9001F7E4F0A3EFF0E490E6
:1003360001FBF09001EDF0A3F01227BF800EE478E8
:1003460042F29001EDF0A3F09001FBF09001E8E09D
:100356004480F09001E5E04480F09001E1E04480C3
:10036600F0A3E04480F09001D7E04401F04408F0A7
:100376004404F07837E204F2E2D394324015E4F212
:100386007820E26004E4F2800578207401F2783483
:100396007401F21235FB7833E260051227A5400797
:1003A600782412271C80031227AC7F011212387F93
:1003B6000212122E7833E260051227A54007782232
:1003C60012271C80031227AC786FE2B40102800763
:1003D6009001E7E04480F09001E6E04480F07F037E
:1003E60012122E7833E260051227A54007782512EF
:1003F600271C80031227AC7F041212387F051212C5
:10040600427823E2FD3395E0FC7F061233157836F9
:10041600E2FF70127826E2FEC36480948C4002806C
:10042600107826E2800E7848E2FEC36480948C4001
:1004360008EE24F47874F2800D7848E27874F2902D
:1004460001D7E054FBF0EF700478218002783DE29A
:100456007872F27836E2B40408B404097820E260CF
:10046600047F0180027F00AB077874E212208104CA
:100476009D0004E601052F0205740305B90405FE77
:100486000506430606880706CD0807120907570A18
:1004960007A20B000007F17872E2FEC3940C500924
:1004A600EB60069001D002077FEEC394185009EB6B
:1004B60060069001D002079012274B5009EB6006A8
:1004C6009001D002079C1227525009EB600690015A
:1004D600D00207ADEB70030207F19001DB0207EDD6
:1004E6007872E2FEC3940C5009EB60069001DB02C1
:1004F60007E1EEC394185009EB60069001DB020792
:10050600D012274B5009EB60069001DB0207BF12A1
:1005160027525009EB60069001DD0207ADEB700330
:100526000207F19001DD02079C1227435009EB6098
:10053600069001DD020790EFC394185009EB6006A0
:100546009001DD02077F12274B5009EB60069001F0
:10055600DD0207ED1227525009EB60069001DD021D
:1005660007E1EB70030207F19001DD0207D01227C5
:10057600435009EB60069001DD0207BFEFC39418F4
:100586005009EB60069001DA0207BF12274B5009AB
:10059600EB60069001DA0207D01227525009EB6091
:1005A600069001DA0207E1EB70030207F19001DA27
:1005B6000207ED1227435009EB60069001DA0207A5
:1005C6007FEFC394185009EB60069001DA0207909A
:1005D60012274B5009EB60069001DA02079C12279E
:1005E600525009EB60069001DA0207ADEB70030288
:1005F60007F19001D80207BF1227435009EB6006A6
:100606009001D80207D0EFC394185009EB6006900A
:1006160001D80207E112274B5009EB60069001D87A
:100626000207ED1227525009EB60069001D8020727
:100636007FEB70030207F19001D80207901227435F
:100646005009EB60069001D802079CEFC39418503E
:1006560009EB60069001D80207AD12274B5009EB53
:1006660060069001D60207AD1227525009EB6006CC
:100676009001D602079CEB70030207F19001D602A7
:1006860007901227435009EB60069001D602077FB8
:10069600EFC394185009EB60069001D30207ED12E0
:1006A600274B5009EB60069001D30207E11227524F
:1006B6005009EB60069001D30207D0EB70030207E6
:1006C600F19001D30207BF1227435009EB60069051
:1006D60001D50207ADEFC394185009EB60069001EF
:1006E600D502079C12274B5009EB60069001D502F4
:1006F60007901227525009EB60069001D502077F3A
:10070600EB70030207F19001D50207ED1227435063
:1007160009EB60069001D50207E1EFC39418500972
:10072600EB60069001D50207D012274B5009EB600B
:10073600069001D50207BF1227525009EB600690BA
:1007460001D20207BFEB70030207F19001D2020744
:10075600D01227435009EB60069001D20207E1EF61
:10076600C394185009EB60069001D20207ED1227D8
:100776004B500CEB60099001D2E04401F0806C1202
:100786002752500CEB60099001D2E04402F0805BE6
:10079600EB60589001D2E04404F0804F122743509A
:1007A6000CEB60099001D2E04408F0803EEFC39460
:1007B60018500CEB60099001D0E04480F0802C12B8
:1007C600274B500CEB60099001D0E04440F0801BB1
:1007D600122752500CEB60099001D0E04420F080C3
:1007E6000AEB60079001D0E04410F07836E2B405D9
:1007F60008B405097820E260047F0180027F00AB1F
:10080600077872E212208108C50008D80108EB02B9
:1008160008FE0309110409220509330609440709DC
:100826005508096809097B0A098E0B09A10C09B24A
:100836000D09C30E09D40F09E51009F8110A0B12A8
:100846000A1E130A31140A44150A57160A6A170AA9
:100856007D180A8E190A9F1A0AB01B0AC11C0AD4EF
:100866001D0AE71E0AFA1F0B0D200B1D210B2D2258
:100876000B3D230B4D240B5E250B6F260B80270BA0
:1008860091280BA5290BB92A0BCD2B0BE12C0BF4C8
:100896002D0C072E0C1A2F0C2D300C41310C543216
:1008A6000C67330C7A340C90350CA3360CB6370C27
:1008B600C9380CDA390CEB3A0CFC3B00000D0BEB9B
:1008C6007003020D0B9001D0E04401F09001DB02B1
:1008D6000D07EB7003020D0B9001D0E04402F0907F
:1008E60001DB020CF6EB7003020D0B9001D0E04425
:1008F60004F09001DB020CE5EB7003020D0B900196
:10090600D0E04408F09001DB020CD4EB7003020D3A
:100916000B9001DBE04410F0A3020D07EB7003021D
:100926000D0B9001DBE04420F0A3020CF6EB700304
:10093600020D0B9001DBE04440F0A3020CE5EB70E6
:1009460003020D0B9001DBE04480F0A3020CD4EB14
:100956007003020D0B9001DDE04408F09001DC020B
:100966000BA1EB7003020D0B9001DDE04404F09047
:1009760001DC020BB5EB7003020D0B9001DDE044C8
:1009860002F09001DC020BC9EB7003020D0B900123
:10099600DDE04401F09001DC020BDDEB7003020D9B
:1009A6000B9001DDE04410F0A3020D07EB7003028B
:1009B6000D0B9001DDE04420F0A3020CF6EB700372
:1009C600020D0B9001DDE04440F0A3020CE5EB7054
:1009D60003020D0B9001DDE04480F0A3020CD4EB82
:1009E6007003020D0B9001DAE04480F09001DE0204
:1009F6000BA1EB7003020D0B9001DAE04440F0907E
:100A060001DE020BB5EB7003020D0B9001DAE04438
:100A160020F09001DE020BC9EB7003020D0B900172
:100A2600DAE04410F09001DE020BDDEB7003020DFC
:100A36000B9001DAE04401F09001D9020BDDEB7076
:100A460003020D0B9001DAE04402F09001D9020B8B
:100A5600C9EB7003020D0B9001DAE04404F090013B
:100A6600D9020BB5EB7003020D0B9001DAE04408D6
:100A7600F09001D9020BA1EB7003020D0B9001D887
:100A8600E04480F0A3020CD4EB7003020D0B90013E
:100A9600D8E04440F0A3020CE5EB7003020D0B9086
:100AA60001D8E04420F0A3020CF6EB7003020D0B14
:100AB6009001D8E04410F0A3020D07EB7003020D7D
:100AC6000B9001D8E04401F09001D7020BDDEB70EA
:100AD60003020D0B9001D8E04402F09001D7020BFF
:100AE600C9EB7003020D0B9001D8E04404F09001AD
:100AF600D7020BB5EB7003020D0B9001D8E044084A
:100B0600F09001D7020BA1EB7003020D0B9001D6FA
:100B1600E04408F0020CC4EB7003020D0B9001D602
:100B2600E04404F0020CB1EB7003020D0B9001D609
:100B3600E04402F0020C9EEB7003020D0B9001D60E
:100B4600E04401F0020C8BEB7003020D0B9001D315
:100B5600E04410F0A3020D07EB7003020D0B9001A9
:100B6600D3E04420F0A3020CF6EB7003020D0B90C9
:100B760001D3E04440F0A3020CE5EB7003020D0B39
:100B86009001D3E04480F0A3020CD4EB7003020D75
:100B96000B9001D5E04408F09001D4E0020CC4EBC0
:100BA6007003020D0B9001D5E04404F09001D4E0EF
:100BB600020CB1EB7003020D0B9001D5E04402F07C
:100BC6009001D4E0020C9EEB7003020D0B9001D550
:100BD600E04401F09001D4E0020C8BEB7003020DAF
:100BE6000B9001D5E04410F09001CF020D07EB7099
:100BF60003020D0B9001D5E04420F09001CF020CCA
:100C0600F6EB7003020D0B9001D5E04440F0900125
:100C1600CF020CE5EB7003020D0B9001D5E044808A
:100C2600F09001CF020CD4EB7003020D0B9001D2B1
:100C3600E04480F09001CFE0020CC4EB7003020D9B
:100C46000B9001D2E04440F09001CFE0805DEB7064
:100C560003020D0B9001D2E04420F09001CFE0801A
:100C660037EB7003020D0B9001D2E04410F09001B7
:100C7600CFE08011EB7003020D0B9001D2E044012E
:100C8600F09001D1E04410F0807BEB60789001D2C7
:100C9600E04402F09001D1E04420F08068EB60650A
:100CA6009001D2E04404F09001D1E04440F0805538
:100CB600EB60529001D2E04408F09001D1E044800C
:100CC600F08042EB603F9001D0E04480F0A3E04426
:100CD60008F08031EB602E9001D0E04440F0A3E0B4
:100CE6004404F08020EB601D9001D0E04420F0A386
:100CF600E04402F0800FEB600C9001D0E04410F06D
:100D0600A3E04401F07836E27005781FE28001E442
:100D16007873F27873E21220810DD7000DDD010D94
:100D2600E3020DE9030DEF040DF5050DFB060E01BB
:100D3600070E07080E0D090E130A0E190B0E1F0CCF
:100D46000E250D0E2B0E0E310F0E37100E3D110E09
:100D560043120E49130E4F140E55150E5B160E61F7
:100D6600170E67180E6D190E731A0E791B0E7F1C5F
:100D76000E841D0E8A1E0E901F0E96200E9C210EAE
:100D8600A1220EA6230EAB240EB1250EB7260EBC4D
:100D9600270EC1280EC6290ECB2A0ED02B0ED52C17
:100DA6000EDA2D0EDF2E0EE42F0EE9300EEE310E8A
:100DB600F3320EF8330EFD340F06350F0F360F18CB
:100DC600370F21380F2A390F333A0F3C3B00000FFB
:100DD600439001DB020F3F9001DB020F369001DBEF
:100DE600020F2D9001DB020F249001DC020F3F90D1
:100DF60001DC020F369001DC020F2D9001DC020FA0
:100E0600249001DC020F1B9001DC020F129001DC22
:100E1600020F099001DC020F009001DE020F3F90E5
:100E260001DE020F369001DE020F2D9001DE020F69
:100E3600249001DE020F1B9001DE020F129001DEEC
:100E4600020F099001DE020F009001D9020F0090F7
:100E560001D9020F099001D9020F129001D9020F90
:100E66001B9001D9020F249001D9020F2D9001D9B0
:100E7600020F369001D9020F3F9001D7807C900176
:100E8600D7020F099001D7020F129001D7020F1B4C
:100E96009001D6020F1B9001D680719001D6806317
:100EA6009001D680559001D4020F3F9001D4020FD5
:100EB600369001D480719001D480639001D480551E
:100EC6009001D480479001D480399001D4802B9032
:100ED60001CF80659001CF80579001CF8049900166
:100EE600CF803B9001CF802D9001CF801F9001CF06
:100EF60080119001CF80039001D1E04410F0803D35
:100F06009001D1E04420F080349001D1E04440F0DB
:100F1600802B9001D1E04480F080229001D1E04402
:100F260008F080199001D1E04404F080109001D1BE
:100F3600E04402F080079001D1E04401F07849E2F4
:100F4600FE08E2FF7877EEF2FE08EFF2C3EE648069
:100F56009480505218E2FE08E2FFC3E49FFFE49E2D
:100F6600FE7875F208EFF2C39409EE64809480501F
:100F7600137D0A7C007F071233157875E2FC08E2C0
:100F8600FD020FD77875E2FE08E2D3941EEE648068
:100F96009480500E9001E4E04408F018E21211E942
:100FA600802F7879800F78771227C99463EE648052
:100FB60094804006087401F2801CD3EF9409EE6415
:100FC6008094807877E240051211E98004FC08E2FB
:100FD600FD7F08123315784BE2FE08E2FF7C007DA8
:100FE6000A121E7C7871EFF2E2FF75F00A84FE7831
:100FF6006FF2EF75F00A8408E5F0F2EEFD7C007FF3
:10100600091233157F0A121242783EE21460080470
:10101600700812346180031231B27820E2603378AE
:1010260036E224FE601014601F240270257F011230
:1010360034E07F0280199001E7E0547FF09001E6EA
:10104600E0547FF07F0380077F041234E07F0512AF
:1010560034E07838E26401703878141227C9949E17
:10106600EE94074006E47833F28026D3EF947CEEC4
:101076009407500FEF942AEE9407400778337401D3
:10108600F2800ED3EF9408EE94075005783374027D
:10109600F27834E26076E4F218E2FF7005784DF2F9
:1010A6008018EFB4010D1227A5500FE204F21227A3
:1010B6006E8007E4784DF27843F2780EE2B40105CB
:1010C600E4F27843F27843E2D394004007E214F264
:1010D600D284D2857843E27002C2847846E2240143
:1010E600F218E23400F23084107847E26004E4F249
:1010F600801A78477401F28013E47847F27840F258
:1011060008F2783EF27850F208F2C285780C12277F
:10111600B440031227777843E270317840E2FE0844
:10112600E24E7028783EE270237847E2701E2085F2
:101136001B7850E2FE08E24E7012780504F2122F78
:10114600F67B1E7A00E4FD7F041236ED7844E270E9
:10115600547836F2C284784DF27843F2783EF278CB
:1011660045F208F2780CF208F2C2857838F270354A
:101176007840E2FE08E24E702C783EE2702778470F
:10118600E2702220851F7850E2FE08E24E70167843
:101196000504F2122FF67B107A0EE4FDFF1236EDEF
:1011A6007F0112373578401227B44003122777782B
:1011B600501227C99414EE94004002801BD3EF947A
:1011C60005EE9400400778511227778012D3EF94EA
:1011D60000EE94004009785112277743D803225332
:0211E600D8FC33
:1011E80022FA08E2FB7C007D0AFFAE02121ED178CB
:1011F8006FEFF27C007D0AAF03AE02121ED1787049
:10120800EDF218E2FD7C007F071233157870E2FDDD
:101218007C00227824E2FF7822E2FD12364C7871B5
:10122800EFF27825E2227870E2FD7C001233152275
:10123800786FE2FD7C00123315227870E2FD7C00A5
:041248001233152226
:1036ED00EFC43354E04DF5A9EAF5ACAF038FAB222F
:0400160075AAA52200
:10361700A3E004F0E075F01484E5F0F0E02454F83A
:0B36270022249BF582E43401F583228D
:052D4F00786F1220471F
:102D54009080197403F0908018F0E49001CDF0A3F2
:102D6400F0900199F0A3F0C20AC2097F20FEFDFC95
:102D7400786F12203A121F1DA804A905AA06AB07F2
:102D8400E4FFFE7DE1FC121FA8C3E49FFFE49EADB7
:102D94000775C824F5CBAE058ECAF5CD8ECCD2CE40
:052DA400759850D2AC4F
:012DA9002207
:103170009001CEE0FD9001CDE0FCC39D5006C3ED73
:103180009CFE800DED2414FE9001CDE0FDC3EE9D6C
:10319000FEEED3940140D9C2AC9001CD123618EFA7
:1031A000F2200A0BD2AC123617E2F599D20A22D2DB
:0131B000AC72
:0131B10022FB
:03002300022BA409
:102BA400C0E0C0F0C083C082C0D075D000C000C0F7
:102BB40007309836C298900199E075F03284E5F0B8
:102BC400F0E0FF123628E599F0749A2FF582E43488
:102BD40001F583E0B40D0D900199E0123628E0B4BC
:102BE4000A02D209900199E004F0309918C2999030
:102BF40001CEE0FF9001CDE06F6008123617E2F5D8
:102C0400998002C20AD007D000D0D0D082D083D01D
:042C1400F0D0E032EA
:103558007884122078788412205F121E51601278C5
:1035680084E475F001122068121E51FF1231708038
:02357800E4224B
:0532DF00786F12207859
:1032E4007BFE7A0079727881122078786F12205FE1
:1032F4007884122078788112205F78871220787B76
:10330400017A0079991232317B017A007999023578
:013314005860
:03000000022919B9
:0C291900787FE4F6D8FD7581210229606A
:10292500022340E493A3F8E493A34003F68001F265
:1029350008DFF48029E493A3F85407240CC8C333B3
:10294500C4540F4420C8834004F456800146F6DF82
:10295500E4800B010204081020408090326EE47E72
:10296500019360BCA3FF543F30E509541FFEE49377
:10297500A360010ECF54C025E060A840B8E493A33E
:10298500FAE493A3F8E493A3C8C582C8CAC583CA69
:10299500F0A3C8C582C8CAC583CADFE9DEE780BE21
:0132A8000025
:101E2F00C2D530F707B2D563F0FF05F030E70CB23B
:101E3F00D5F4048463F0FF05F080018430D502F4FB
:021E4F0004226B
:101E5100BB010689828A83E0225002E722BBFE028F
:091E6100E32289828A83E49322C2
:101E6A00EF8DF0A4A8F0CF8CF0A428CE8DF0A42E8C
:021E7A00FE2246
:101E7C00BC000BBE0029EF8DF084FFADF022E4CC4A
:101E8C00F875F008EF2FFFEE33FEEC33FCEE9DEC13
:101E9C00984005FCEE9DFE0FD5F0E9E4CEFD22ED59
:101EAC00F8F5F0EE8420D21CFEADF075F008EF2FA3
:101EBC00FFED33FD4007985006D5F0F222C398FD94
:051ECC000FD5F0EA2231
:101ED100C2D5EC30E709B2D5E4C39DFDE49CFCEE2C
:101EE10030E715B2D5E4C39FFFE49EFE121E7CC30A
:101EF100E49DFDE49CFC8003121E7C30D507C3E405
:061F01009FFFE49EFE229A
:101F0700C5F0F8A3E028F0C5F0F8E5821582700265
:061F17001583E038F02202
:101F1D00E88FF0A4CC8BF0A42CFCE98EF0A42CFC63
:101F2D008AF0EDA42CFCEA8EF0A4CDA8F08BF0A4E1
:101F3D002DCC3825F0FDE98FF0A42CCD35F0FCEB40
:101F4D008EF0A4FEA9F0EB8FF0A4CFC5F02ECD3905
:0F1F5D00FEE43CFCEAA42DCE35F0FDE43CFC2272
:101F6C0075F008758200EF2FFFEE33FECD33CDCC2C
:101F7C0033CCC58233C5829BED9AEC99E5829840AF
:101F8C000CF582EE9BFEED9AFDEC99FC0FD5F0D68C
:101F9C00E4CEFBE4CDFAE4CCF9A88222B800C1B9B6
:101FAC000059BA002DEC8BF084CFCECDFCE5F0CBF4
:101FBC00F97818EF2FFFEE33FEED33FDEC33FCEB2D
:101FCC0033FB10D703994004EB99FB0FD8E5E4F9E8
:101FDC00FA227818EF2FFFEE33FEED33FDEC33FCD5
:101FEC00C933C910D7059BE99A4007EC9BFCE99AC9
:101FFC00F90FD8E0E4C9FAE4CCFB2275F010EF2F0E
:10200C00FFEE33FEED33FDCC33CCC833C810D7070D
:10201C009BEC9AE899400AED9BFDEC9AFCE899F848
:0E202C000FD5F0DAE4CDFBE4CCFAE4C8F922DB
:0D203A00E2FB08E2F908E2FA08E2CBF82226
:0C204700ECF208EDF208EEF208EFF222D5
:0C205300A42582F582E5F03583F5832298
:09205F00E2FB08E2FA08E2F922B2
:10206800FAE2FB0808E2F925F0F218E2CA3AF2228D
:09207800EBF208EAF208E9F22299
:10208100D083D082F8E4937012740193700DA3A3EE
:1020910093F8740193F5828883E473740293686002
:0620A100EFA3A3A380DF02
:1020A700EC8EF0A4CCC5F0CCCDF8EFA4CEC5F02DC6
:1020B700FDE43CFCE8A42EC8C5F03DFDE43CFCEF84
:0D20C700A4FFE5F028FEE43DFDE43CFC2212
:103231007884E2FF08E2FE08E2CF788DF208EEF230
:1032410008EFF27887E2CBF208E2CAF208E2C9F2AB
:103251007F097890121E51F20809E970010ADFF422
:0D3261007887E2FB08E2FA08E2F9021B3070
:101AD400E508248DF8E2050822788A300702788D1B
:101AE400E475F001122068021E512000EB7F2ED213
:101AF400008018EF540F2490D43440D4FF30040BEA
:101B0400EF24BFB41A0050032461FFE509600215F5
:101B140009050CE50C7002050B30070D788AE47595
:101B2400F001122068EF0221010235317403D2075B
:101B34008003E4C207F508788A122078E4F509F5F1
:101B44000BF50CE50960077F20121B0F80F5750A61
:101B5400FFC201C200C202C203C205C206C2081209
:101B64001ADDFF700D3007057F00121B20AF0CAE8D
:101B74000B22B4255FC2D5C204121ADDFF24D0B4EF
:101B84000A00501A75F00A780930D50508B6FF0125
:101B940006C6A426F620D5047002D20380D924CF29
:101BA400B41A00EF5004C2E5D204021D1FD2018012
:101BB400C6D20080C0D20280BCD2D580BAD2058001
:101BC400B47F20121B0F2002077401B5090040F1F5
:101BD400121AD4FF121B0F021B47D208D20680959B
:101BE400121AD4FB121AD4FA121AD4F94A4B7006F8
:101BF40079F07A1D7BFF20022EE509602A7E008E93
:101C0400827583001220D460060EEE650A70F0C25D
:101C1400D5EBC0E0EAC0E0E9C0E0EE121D66D0E01A
:101C2400F9D0E0FAD0E0FB121E51FF60AAEBC0E04D
:101C3400EAC0E0E9C0E0121B0FD0E02401F9D0E0D3
:101C44003400FAD0E0FBE50A0460DCD50AD98087C9
:101C54007BFF7A1D7962D202809C79108002790818
:101C6400C206C2088008D2D5790A8004790AC2D58E
:101C7400E50A047002F50AE4FAFDFEFF121AD4FC28
:101C84007B08200113121AD4FD7B1030000A121AAB
:101C9400D4FE121AD4FF7B20EC3382D592D5501394
:101CA400C3E43000069FFFE49EFEE42001039DFD93
:101CB400E49CFCE4CBF8C201EC700CCFCECDCCE8B4
:101CC40024F8F870F38017C3EF33FFEE33FEED33DF
:101CD400FDEC33FCEB33FB994002FB0FD8E9EB300E
:101CE4000105F8D0E0C448B201C0E00AEC4D4E4F03
:101CF40078207B0070C2EAB50A0040BCC0E0121D27
:101D040068D0F0D0E0200104C4C0E0C4B201C0F047
:101D1400121AF8D0F0D5F0EB021B471220811BE415
:101D2400531C5E581BB54C1BB1421C624F1C6A44C9
:101D34001C6A491BCA431C70551C54461C54451C40
:011D4400544A
:101D4500471E10501BB92D1BBD2E1BE02B1BC1239D
:101D55001BDE201DF92A1B794800001BD83F3F3F99
:101D650000790AA2D5200314300509B9100204042C
:101D7500B9080104A2D52006025001042002689288
:101D850002B509005034C0E07F203003197F30A22E
:101D95000272067205500F121DBFC202C206C205AD
:101DA500C2087F30800F300503E9C0E0121B0F30F9
:101DB5000503D0E0F9D0E0B509CC3005177F30B97F
:101DC500100C121B0F7F583004077F788003B90869
:101DD50003121B0F3002057F2D021B0F7F202008E9
:101DE500F87F2B2006F322920280CF286E756C6C4B
:101DF5002900D201121AD43001F8C201780930D570
:101E05000108F6021B792D50434958121AD42403B0
:101E1500B405004001E4901E0B93121B00743A12A6
:0A1E25001B00D203750904021C5EC5
:1020D400BB010CE58229F582E5833AF583E02250C1
:1020E40006E92582F8E622BBFE06E92582F8E2220B
:0D20F400E58229F582E5833AF583E4932225
:10210100BB010689828A83F0225002F722BBFE01BD
:02211100F322B7
:10353100EFB40A07740D12353C740A309811A8993A
:10354100B8130CC2983098FDA899C298B811F630FA
:0735510099FDC299F59922D2
:00000001FF
