:0D32B300810E0081000082010000810300F7
:10318700D39001F4E094009001F3E0940022786F6B
:1031970008E2FF24FFF218E2FE34FFF2EF4E22D3DB
:1031A7009001F0E0940A9001EFE0940022F2E478B5
:1031B70007F27805F222E475F001122042D390015C
:0D31C700F4E0227803E2FF7806E2FE6F22BA
:0E384800758911758CCF758AFFD2A9D28C229A
:03000B000236C5F5
:1036C500C0E0C0D075D000C000758CCF758AFF787A
:1036D50006E204F2E2B4FF02E4F2D000D0D0D0E07A
:0136E50032B2
:0C38C200758F1FD2A8D289D288D2B822FC
:0C38CE00758E1ED2AAD28BD28AC2BA22FA
:0C38DA00E4F5C075FB9DD2E843F9012223
:0E385600D2A8D289D2AAD28BD2E843F901229D
:0E386400C2A8C289C2AAC28BC2E853F9FE22D2
:102B72007F04122E349080007402F0A3F0A3F0A31D
:102B8200F090800D7406F0A3F0908006F0A3F0128E
:102B92002D5B123864E4FF1238807F807E257D0031
:102BA2007C00122E92D2A9D28CD285D284D293E406
:102BB2009001F3F0A3F078447428F278477401F29C
:102BC200E47833F2783EF27816F208F2781AF27864
:102BD20011F2784AF2780E7402F2784014F2087414
:102BE200F41231B4780CF208F27851F27854F20807
:042BF2007405F22252
:03000300023221A5
:10322100C0E0C0F0C083C082C0D075D000C000C073
:1032310001C002C003C004C005C006C00775AAA52D
:10324100C2A8C289E4FF123880780A7401F2D0075B
:10325100D006D005D004D003D002D001D000D0D008
:09326100D082D083D0F0D0E0321D
:0300130002326A4C
:10326A00C0E0C0F0C083C082C0D075D000C000C02A
:10327A0001C002C003C004C005C006C00775AAA5E4
:10328A00C2AAC28B780A7401F2E4FF123880D0070E
:10329A00D006D005D004D003D002D001D000D0D0BF
:0932AA00D082D083D0F0D0E032D4
:03003B00022FF49D
:102FF400C0E0C0F0C083C082C0D075D000C000C0A3
:1030040001C002C003C004C005C006C00775AAA55C
:10301400E5FA30E01275FA01780A7401F2E4FF125D
:103024003880C2E853F9FED007D006D005D004D0CA
:1030340003D002D001D000D0D0D082D083D0F0D041
:02304400E03278
:10304600784AE26045309227C39001F4E094321248
:10305600318E503D1231BD943112318E4033780E8F
:10306600E26401702C7402F2E4780CF208F2221287
:103076003187400774FFF5F01220429001F3E070AB
:1030860002A3E0700C780E04F2227844E27002C2C9
:02309600852291
:1030980030922BC39001F4E0941412318E504012F8
:1030A80031BD941312318E4036780EE26402602FDF
:1030B8001231B5780E7402F2122B727F012212318E
:1030C80087400774FFF5F0122042D39001F4E09492
:1030D8000112318E5009780E7401F2E4F0A3F07FEA
:0230E8000022C4
:0300630002388ED2
:0D388E00C0E0E5AA30E10375AAA5D0E03244
:103526007806E2FF7800E26F6022EFF220B60C1216
:1035360031A65018E475F0010220421231A640056A
:0C354600780BE204F2E49001EFF0A3F037
:013552002256
:102615001237F29001DBE0440112271B9001DB1217
:1026250027019001DBE0440412271B9001EC1226E0
:10263500E79001E91226E79001E51226F49001E6FC
:102645001226F49001E312270E9001E8122701E407
:102655007873F27873E2FFC3943C50147D01121332
:1026650087122725E4FD1213877873E204F280E3CD
:10267500E47873F27873E2FFC3943C50147D011241
:1026850017CB122725E4FD1217CB7873E204F280ED
:10269500E3E47873F2E47874F27874E2FEC3940AA2
:1026A500502018E2FFEEFD7C001234601230EA7F04
:1026B500141200267873E2FF12362B7874E204F2C6
:1026C50080D77873E204F2E2C3940B40C89001EA24
:1026D50012270E9001EBE04480F01230EA7F1402DD
:0226E5000026CD
:1026E700E04480F01230EA7F1412002622E0448092
:1026F700F01230EA7F1412002622E04408F012306C
:10270700EA7F1412002622E04480F01230EA7F1498
:1027170012002622F01230EA7F141200262212300D
:0B272700EA7F141200267873E2FF2204
:10247B007F04122E347F01123818122DC8E4FBFD95
:10248B007F011231D47B027D0FE4FF1238F2E4FF9F
:10249B001238807F807E257D007C00122E92D285A3
:1024AB007F0A1200261229C9D2841226151237AFC1
:1024BB001230EA7F011238181238481238C212381B
:1024CB00CE1238DA122D5B7B4B7A00E4FD7F0412BF
:1024DB003838120016D2ED785674FFF20814F278E1
:1024EB0054E4F2087405F2784474281231B4D2AF74
:1024FB00D2937805E270447807E270F61231CA6025
:10250B002A7803EEF218E22401F218E23400F212F8
:10251B0037F2120076D37802E2940A18E294004064
:10252B000AE4F208F21229C91230EA1230461200FC
:10253B00163009BEC20912291380B7123601C284A4
:10254B007847E26042780AE2601EE4F2D285C284E8
:10255B00786F7407F20874D0F21231956004D2854B
:10256B0080F7122B7202260FC284D285D293786F1A
:10257B00E4F2087428F21231956006123098EF607D
:0C258B00F575AAA502260F780AE2607020
:10259700E4F27F04122E347F01120026123864D22F
:1025A700A9D28CE4780BF29001F1F0A3F07871F2E4
:1025B7000874C8F27872E2700218E260201231CA19
:1025C700600F7803EEF27872E224FFF218E234FF2C
:1025D700F220B709123526780BE2B403D7780BE25D
:1025E700B4030CD2857F01120026122B72800812C9
:0E25F70038567F01123880E49001F1F0A3F015
:1026050080081237467F011238801237460224FDB2
:1033F400E4F5B1F5A190FC00E04440F0E58654F01A
:103404004404F586123872EF60FAA2AF9200D2AF8C
:1034140078077401F2123905E58654F0440BF586F9
:0534240075AAA5D2AF5E
:013429002280
:0739050043870200000022CD
:0E387200E5FF7004E5FE60037F00227F012267
:102732000E690E640E5E0E570E4F0E450E3A0E2DAA
:102742000E200E100DFF0DEC0DD80DC10DA90D8E32
:102752000D700D500D2F0D0D0CF00CD20CB50C9808
:102762000C7A0C5F0C4D0C3C0C1F0C070BEE0BD5BE
:102772000BAF0B880B600B380B4A0B210AF70ACD03
:102782000AA10A760A4A0A1E09F209C50998096BC2
:10279200093D091008E308B50888085A082D080001
:1027A20007D307A7077A074F072306F806CD06A324
:1027B200067A06510628060005D905B2058C05677A
:1027C2000542051E04FB04D904B704960475045699
:1027D200043A041803FB03DE03C203A7038C03724B
:1027E200035903400328031002FA02E402CE02B99D
:1027F20002A50291027E026C0259024802370226A9
:102802000216020701F801E901DB01CD01C001B3A3
:1028120001A6019A018F01830178016D01630159BB
:10282200014F0145013C0133012B0122011A011222
:10283200010B010300FD00F500EF00E800E200DCFF
:0E32C0008218005882160000811A0081110049
:102EED007916E3C4F854F0C868FF09E3C4540F48D9
:102EFD007818CFF208EFF2E408F27816F208F278BB
:102F0D0011E204F22212000E12003E7817E22FF2A7
:102F1D0018E23EF2781AE204F2E2C39410227C0029
:102F2D007D64021FA57C00121FB7C3227811E2D366
:0A2F3D009402227C00121FB7C32289
:10355300EDC4333354C0441C4FF5B975BAF0EBB422
:10356300010E7881E2C4333354C04423F5BB800396
:0D35730075BB23EDB40102D2E843B920225C
:0838FD00E5BA54F04FF5BA22C0
:04000E0043B9802250
:10003E00E5B930E5FB43B920AFBDEFFEADBC7C00AA
:10004E00E42DFFEC3EC4F854F0C868FEEFC4540F24
:02005E0048FF59
:01006000227D
:102C7200E4FF75F002EF90273212218EE493FC7488
:102C82000193FDC37819E29D18E29C4050EF24E2C3
:102C9200784EF2E434FF18F27856E2FC08E2FD784E
:102CA2004EE22DF218E23CF2E2FC08E2FDD394E29D
:102CB200EC6480947F400BD3ED9463EC6480948049
:102CC200400D7852E2FD08E2784DCDF208EDF2783F
:102CD2004DE2FF08E27852CFF208EFF2220FEFD373
:042CE2009482408E0A
:012CE60022CB
:1035AC007F021238FD1F120026122F124003122E1A
:1035BC00ED122F394014E4F2122C72783E7401F2A1
:0A35CC00E47881F2FBFDFF12355395
:0135D60022D2
:103338007F051238FD122F124003122EED122F397D
:10334800402DE4F27818E2FF08E27814CFF208EF93
:10335800F278387401F2308412783E04F243D8309F
:0F336800E47881F2FBFD7F01023553E4783EF2F9
:013377002233
:04224E00786EEDF2C7
:10225200C3EF9488EE941340077A007BC802239957
:10226200C3EF9428EE940A40097D30122F32743065
:10227200805CC3EF9414EE940540097D1A122F324C
:10228200745E804AC3EF9476EE940240117C007D26
:102292000A121FA57D86121FB7C3748D8030C3EF4B
:1022A2009436EE940140177C007D0A121FA5EF7848
:1022B20006CEC313CE13D8F9FFC374C08010C3EF88
:1022C20094A0EE940040107D03122F4074F79FFB00
:1022D20074019EFA022399C3EF9457EE9400400DC5
:1022E200122F2B7D92121FB7C374308040C3EF941C
:1022F20031EE9400400D122F2B7D4C121FB7C37488
:1023020066802AC3EF941FEE9400400D122F2B7D9E
:1023120024121FB7C374AE8014C3EF9414EE94005A
:102322004013122F2B7D16121FB7C374E59FFB7447
:10233200029EFA8062C3EF940DEE9400400D122FBC
:102342002B7D0E121FB7C374198046C3EF9408EE9B
:10235200940040107C037DE8121FA57D5C122F4083
:102362007449802DC3EF9406EE940040137C037DE4
:10237200E8121FA57C007D36121FB7C3748A801134
:10238200122F2BEF7802CEC313CE13D8F9FFC374EA
:10239200CA9FFB74039EFA786EE2FFD3942850140E
:1023A200EF75F002A4FFEB2432FDE43ACDC39FFBAC
:1023B200ED95F0FA784FE2FE08E2FFD394C8EE946E
:1023C20000400BEF2BFBEE3AC313FAEB13FBC3EB0C
:1023D20094B6EA9403400CEB94E7EA940350047435
:1023E200CF803DC3EB9484EA9403400CEB94B5EAAE
:1023F20094035004749D8028C3EB9452EA940340E2
:102402000CEB9483EA94035004746B8013C3EB9433
:1024120020EA94034015EB9451EA9403500D743969
:102422002BFB74033AC313FAEB13FB74052BFBE487
:102432003AFAC3EB94E7EA940340047A037BE77821
:102442001BE2FE08E2FFD39BEE9A400B780F74FF6B
:10245200F20874FBF28017C3EF9BEE9A500A780FD2
:10246200E4F2087407F28006E4780FF208F2781BAF
:08247200EAF208EBF2FFAE02F2
:01247A00223F
:102AE800122F124003122EED122F39407CE4F27897
:102AF80018E2FF08E27812CFF208EFF218E2FE08B7
:102B0800E2FFE49FFF74109EFE7C017DD61221E255
:102B1800C006C0077812E2FE08E2FBAA06E4F9F84C
:102B2800D007D0061220E374052FFFE43EFE7C0098
:102B38007D0A121FB7784DE2FC08E2FDC3EC648001
:102B480094805008E4786CF208F28007786CECF214
:102B580008EDF2786C08E2FD12224E784FEEF2088A
:092B6800EFF253D8CFE4783EF2FD
:012B71002241
:03001B0002337835
:10337800C0E0C0F0C083C082C0D075D000C000C01B
:1033880001C002C003C004C005C006C007C2ABC26A
:103398008E122AE8D007D006D005D004D003D00278
:0F33A800D001D000D0D0D082D083D0F0D0E0328E
:030073000234C68E
:1034C600C0E0C0D075D000C000C007E5D430E11818
:1034D60075D402783EE2B4020F7F011238FD758D75
:1034E600FF758BE7D2ABD28ED007D000D0D0D0E01C
:0134F60032A3
:1036E600EF7802C333CE33CED8F9FFEF1FAA0670A8
:1036F600011E4A600BE4FDEDC3940F50EE0D80F7FA
:0137060022A0
:10002600AC07AF041CEF60097F507E001236E680F5
:05003600F175AAA522EE
:10381800AB07AF031BEF60077FF412002680F3228B
:10372800781DF2087408F212365B740E781DF208E0
:0E3738007404F222D281EEC313781DF20F2228
:07365400781DF2087408F272
:10365B00C280E4FF781EE2FEEFC39E5013C28118B6
:10366B00E2FE30E004D2828002C28212373C80E458
:01367B00222C
:0E34F700123505D2837401781DF2087408F2B4
:10350500C283E4FF781EE2FEEFC39E5013C281180A
:10351500E2FE30E004D2828002C28212373C80E4AF
:013525002283
:1029C9009080007402F0908001F0908002F0908075
:1029D90003F0D280D28174C112372812365BD280BB
:1029E9007401123654740C12373412365BD2807467
:1029F9000112372812365BD280781D74A112372A4A
:102A090012365BD280781D743912372A12365BD29E
:102A190080D283D28174C11234FE1237321234F754
:102A2900781D740CF2087404F21234F7123732125A
:102A39003505D283781D74A112350012373212354B
:102A490005D283781D7439123500123732123505D3
:032A5900D2832203
:1030EA007405123654E4781DF20804F212365BE4D1
:1030FA00FD74D32DF582E43401F583E01236540DC4
:10310A00EDB410EDD280781D7405123500E4781DF7
:10311A00F20804F2123505E4FD74E32DF582E43475
:0E312A0001F583E01234FE0DEDB40AEDD28300
:013138002274
:1037C60078767401F2E408F2082233333354F8FFB2
:0637D600E5DB54F04F2278
:1035D7008FC0EF30E00BED1237D0FF7878E24F80E5
:1035E70007AF05EF1237D04BF5DB7876E2C43333FC
:0A35F700335480FF08E24FF5DC2298
:103807008FC0ECF5DEAF058FDDEAF5D1AF038FDFB3
:01381700228E
:03001E008FD92255
:05000600E5D970FC22A9
:103494008FC0AF05EFC43333335480FFE5DB540FE3
:1034A4004FFFAE03EEC4333354C04FFF7876E2C40B
:1034B4003354E04FFF08E2C454F04FF5DB08E2F563
:0234C400DA220A
:102D5B001237C6F27B017D01122DBA04F2122DBA85
:102D6B00F27F041235D71237C604F27F051235D71E
:102D7B007B2C7A017D587C02E4FF1238077F03120B
:102D8B00001E1200067B9A7A037D337C070F1238E4
:102D9B00077F3012001E12000643D83078761237A8
:102DAB00C87419F2E4FBFD7F04123494D2EF22FFB6
:0D2DBB001235D778767401F2E408F2082290
:0D38A800001F1C1F1E1F1E1F1F1E1F1E1FA6
:1032CE00812717812608812100811F008124128108
:0532DE00220881250714
:0D38B5007824E2FF7822E2FD7825E2FB2274
:03006B00022F9FC2
:102F9F00C0E0C0F0C083C082C0D075D000C000C0F8
:102FAF0001C002C003C004C005C006C007E5EE3073
:102FBF00E10343EE02E5FA30E60343FA08E5EE30AB
:102FCF00E00843EE01E4FF123880D007D006D005A9
:102FDF00D004D003D002D001D000D0D0D082D08383
:052FEF00D0F0D0E0323B
:1031D40043A108E5A130E2FBEFC43333335480FF4D
:1031E400E5F1541F4FFFAE05EEC4333354C04FFF17
:1031F400AE03EEC43354E04FF5F17F171235807FF0
:103204003B1237077F1E12382875F21E75F33B7583
:0D321400F4171238B5122BF67823EFF222D2
:0B38F2008FECAF058FEBAF038FEA22D5
:0E388000EF64016003C2EE2243F118D2EE2283
:1038280043F1028FF27F647E001236E653F1FD22E7
:10370700787EEFF243F10212371A43F102787E1204
:10371700371A22E2F5F37F647E001236E653F1FD95
:01372700227F
:10358000787EEFF243F102E5F454E0FF12359D43FB
:10359000F102E5F454E0FF787E12359D22E24FF50A
:0C35A000F47F647E001236E653F1FD2239
:0D389B00EF24D0FFEF54037002D322C322AC
:10379700EDB4020D12389B5008ED9038A89304FF42
:0837A70022ED9038A893FF22E7
:062BF600787EEBF2A90558
:102BFC007E14E9D39402500FEF75F06484E5F07005
:102C0C00011E1F740C29F9EF1313543FFDEF2DFD1A
:102C1C00E433FCEE1313543F7A002DFDEA3CFCAF79
:102C2C0006EF75F002A4FFC3ED9FFBEC95F0FAE9FB
:102C3C002401FFE433FE7C007D1A121FA57D0A12CD
:102C4C001FB7EF2BFFEE3AFE787EE27C002FFFECF5
:102C5C003ECF24C2CF3409FE7D07121FB7AF05EF5C
:052C6C006001227F075A
:012C71002240
:102F47007826E2FF08F2EF704E7825E204F218E2E5
:102F5700FF7822E2FD1237977825E2FED3EF6480EF
:102F6700F8EE64809840267822E204F2782574010E
:102F7700F27822E2D36480948C40127401F27824B0
:102F8700E204F2E2D3648094E34002E4F21238B53B
:082F9700122BF67823EFF22261
:10374600781FE5F2F27821E5F3F2E5F4541F7826C6
:0C375600F2E2FF08E26F6003122F47222E
:0232E300C18B9D
:0C38E60043A180E5A254F84401F5A222A1
:102E3400EFC394024057EFD394085051300B2BAE9C
:102E4400A143A1E0759306759240759188E591546C
:102E5400C070FA859795859694E5A254F84405F5D3
:102E6400A27591C8E59154C070FAEF24FE33333350
:102E740054F84480F5ADE5AD30E0FBE5A254F844E8
:0D2E840004F5A2300B07EE4440F5A1C20B8F
:012E9100221E
:10377D005F066B2F363D7D077F3F208058F560B685
:0A378D00F263D3D770F7F30208854A
:0C32E5008A2809080706040503020100FE
:1037F2007F109001D3E4F0A3DFFC7F0A9001E3E4A1
:04380200F0A3DFFC54
:01380600229F
:1037AF007F109001D374FFF0A3DFFC7F0A9001E339
:0637BF0074FFF0A3DFFC23
:0137C50022E1
:10346000EF142428F8E2FBEF64056004EFB40609CA
:10347000748A2DF58274378007747D2DF582743738
:103480003CF583E493FE74E32BF582E43401F58389
:03349000E04EF01B
:013493002216
:10362B00EF142428F8E2FDEF64056004EFB40605FF
:10363B009037958003903788E493FE74E32DF582E1
:08364B00E43401F583E05EF0B8
:013653002254
:10138700A907ED70030215ADE91221BC144B001437
:101397005101145702145D03146304146905146F93
:1013A70006147507147B0814810914870A148D0B1A
:1013B70014930C14990D149F0E14A50F14AB10144D
:1013C700B11114B71214BD1314C31414C91514CFD3
:1013D7001614D51714DB1814E11914E71A14ED1BAA
:1013E70014F31C14F81D14FD1E15021F15082015F3
:1013F7000D21151222151723151C24152225152733
:1014070026152C27153128153629153B2A15402B6B
:1014170015452C154A2D154F2E15542F15593015D6
:101427005E31156332156833156D34157535157DC5
:1014370036158537158D38159539159D3A15A53B00
:10144700000017CA9001DF0215A89001DF0215A05E
:101457009001DF0215989001DF0215909001E002DC
:1014670015A89001E00215A09001E00215989001DF
:10147700E00215909001E00215889001E0021580C6
:101487009001E00215789001E00215709001E202E8
:1014970015A89001E20215A09001E20215989001AB
:1014A700E20215909001E20215889001E202158090
:1014B7009001E20215789001E20215709001DD02B9
:1014C70015709001DD0215789001DD0215809001FD
:1014D700DD0215889001DD0215909001DD02159857
:1014E7009001DD0215A09001DD0215A89001DB80B7
:1014F700789001DB807B9001DB807E9001DB021519
:10150700889001DA807B9001DA806E9001DA806141
:101517009001DA80549001D80215A89001D88079FB
:101527009001D8806C9001D8805F9001D88052904C
:1015370001D880459001D880389001D8802B900140
:10154700D3805E9001D380519001D380449001D322
:1015570080379001D3802A9001D3801D9001D380DA
:10156700109001D380039001D5E04410F022900140
:10157700D5E04420F0229001D5E04440F0229001CC
:10158700D5E04480F0229001D5E04408F022900194
:10159700D5E04404F0229001D5E04402F022900106
:1015A700D5E04401F022E91221BC166900166F014B
:1015B700167502167B03168104168705168D061607
:1015C7009307169908169F0916A50A16AB0B16B1AD
:1015D7000C16B70D16BD0E16C30F16C91016CF1170
:1015E70016D51216DB1316E11416E71516ED1616A7
:1015F700F31716F91816FF1917051A170B1B1711EA
:101607001C17161D171B1E17201F172620172B2107
:10161700173022173523173A241740251745261761
:101627004A27174F2817542917592A175E2B17636C
:101637002C17682D176D2E17722F177730177C31DF
:10164700178132178633178B34179335179B361745
:10165700A33717AB3817B33917BB3A17C33B00008B
:1016670017CA9001DF0217C69001DF0217BE90016B
:10167700DF0217B69001DF0217AE9001E00217C62E
:101687009001E00217BE9001E00217B69001E00258
:1016970017AE9001E00217A69001E002179E900195
:1016A700E00217969001E002178E9001E20217C63A
:1016B7009001E20217BE9001E20217B69001E20222
:1016C70017AE9001E20217A69001E202179E900161
:1016D700E20217969001E202178E9001DD02178E43
:1016E7009001DD0217969001DD02179E9001DD0241
:1016F70017A69001DD0217AE9001DD0217B6900123
:10170700DD0217BE9001DD0217C69001DB807890DD
:1017170001DB807B9001DB807E9001DB0217A690C6
:1017270001DA807B9001DA806E9001DA80619001A6
:10173700DA80549001D80217C69001D880799001B9
:10174700D8806C9001D8805F9001D880529001D8E2
:1017570080459001D880389001D8802B9001D380A4
:101767005E9001D380519001D380449001D380379C
:101777009001D3802A9001D3801D9001D3801090CF
:1017870001D380039001D5E054EFF0229001D5E01A
:1017970054DFF0229001D5E054BFF0229001D5E04C
:1017A700547FF0229001D5E054F7F0229001D5E064
:1017B70054FBF0229001D5E054FDF0229001D5E0D2
:0417C70054FEF022BA
:1017CB00A907ED70030219F1E91221BC188F00185B
:1017DB009501189B0218A10318A70418AD0518B39F
:1017EB000618B90718BF0818C50918CB0A18D10B6A
:1017FB0018D70C18DD0D18E30E18E90F18EF101899
:10180B00F51118FB12190113190714190D151913DA
:10181B0016191917191F18192519192B1A19311BF4
:10182B0019371C193C1D19411E19461F194C20193B
:10183B005121195622195B23196024196625196B3E
:10184B0026197027197528197A29197F2A19842BBB
:10185B0019892C198E2D19932E19982F199D301922
:10186B00A23119A73219AC3319B13419B93519C1D1
:10187B003619C93719D13819D93919E13A19E93B50
:10188B0000001C0E9001D40219B49001D40219BCB3
:10189B009001D40219C49001D40219CC9001DF023B
:1018AB0019EC9001DF0219E49001DF0219DC9001C1
:1018BB00DF0219D49001E10219CC9001E10219C4A5
:1018CB009001E10219BC9001E10219B49001E1020F
:1018DB0019EC9001E10219E49001E10219DC90018D
:1018EB00E10219D49001DE0219D49001DE0219DC59
:1018FB009001DE0219E49001DE0219EC9001DE0288
:10190B0019B49001DE0219BC9001DE0219C49001DA
:10191B00DE0219CC9001DC0219D49001DC0219DC37
:10192B009001DC0219E49001DC0219EC9001DC80DF
:10193B00789001DC807B9001DC807E9001DC0219C9
:10194B00CC9001DA807B9001DA806E9001DA8061B5
:10195B009001DA80549001D70219EC9001D780796D
:10196B009001D7806C9001D7805F9001D980529005
:10197B0001D980459001D980389001D9802B9001F5
:10198B00D9805E9001D980519001D980449001D9C2
:10199B0080379001D680329001D680359001D68069
:1019AB00389001D6803B9001D6E04401F0229001A3
:1019BB00D6E04402F0229001D6E04404F0229001DC
:1019CB00D6E04408F0229001D4E04480F02290014C
:1019DB00D4E04440F0229001D4E04420F022900166
:1019EB00D4E04410F022E91221BC1AAD001AB30165
:1019FB001AB9021ABF031AC5041ACB051AD1061A53
:101A0B00D7071ADD081AE3091AE90A1AEF0B1AF5B8
:101A1B000C1AFB0D1B010E1B070F1B0D101B1311BB
:101A2B001B19121B1F131B25141B2B151B31161BEC
:101A3B0037171B3D181B43191B491A1B4F1B1B55F3
:101A4B001C1B5A1D1B5F1E1B641F1B6A201B6F2157
:101A5B001B74221B79231B7E241B84251B89261BAD
:101A6B008E271B93281B98291B9D2A1BA22B1BA778
:101A7B002C1BAC2D1BB12E1BB62F1BBB301BC0312F
:101A8B001BC5321BCA331BCF341BD7351BDF361B91
:101A9B00E7371BEF381BF7391BFF3A1C073B0000DE
:101AAB001C0E9001D4021BD29001D4021BDA9001C0
:101ABB00D4021BE29001D4021BEA9001DF021C0A44
:101ACB009001DF021C029001DF021BFA9001DF0282
:101ADB001BF29001E1021BEA9001E1021BE2900173
:101AEB00E1021BDA9001E1021BD29001E1021C0A18
:101AFB009001E1021C029001E1021BFA9001E1024C
:101B0B001BF29001DE021BF29001DE021BFA900128
:101B1B00DE021C029001DE021C0A9001DE021BD2C7
:101B2B009001DE021BDA9001DE021BE29001DE0265
:101B3B001BEA9001DC021BF29001DC021BFA900104
:101B4B00DC021C029001DC021C0A9001DC80789004
:101B5B0001DC807B9001DC807E9001DC021BEA9033
:101B6B0001DA807B9001DA806E9001DA806190015E
:101B7B00DA80549001D7021C0A9001D7807990012A
:101B8B00D7806C9001D7805F9001D980529001D99A
:101B9B0080459001D980389001D9802B9001D98054
:101BAB005E9001D980519001D980449001D9803742
:101BBB009001D680329001D680359001D680389036
:101BCB0001D6803B9001D6E054FEF0229001D6E086
:101BDB0054FDF0229001D6E054FBF0229001D6E0A8
:101BEB0054F7F0229001D4E0547FF0229001D4E01E
:101BFB0054BFF0229001D4E054DFF0229001D4E0E6
:041C0B0054EFF02280
:1037DC004765742074696D65206F6B0D0A00657206
:0637EC00726F720D0A006D
:0432F100824F0058B0
:10284200FFEC3EFEA3E02FFFEC3EFEA3E02FFFECE9
:102852003EFEA3E02F22E2FF75F00A121F6A787390
:10286200F2EF75F00A121F6AAFF07874EFF222905D
:1028720001EDE0FEA3E0D3940AEE9400227876E222
:10288200FFC3940C227876E2C39424227876E2C3C2
:102892009430229001F9E0FEA3E0D39432EE94004A
:1028A200227875E2784BF222E475F0010220427838
:1028B20054E4F2087405F222E224FFF218E234FF33
:1028C200F222784CE2D364809480229001F7E0FEF9
:1028D200A3E0D39490EE94012290801DF090801E8C
:1028E200F090801FF0227851E2C39404227873742E
:1028F2000CF208F222E2FE08E2D39400EE940022E7
:1029020078447428F2E4783FF222E2FE08E2FFD330
:0129120022A2
:102DC80074011228DB90800AF074811228DB90804D
:102DD8001A7403F090801BF09080087405F09080BE
:102DE80009F090800CF090800D04F090800EF09027
:102DF8008006F0908007F09080047402F0908005BF
:102E0800F090800BF0784714F2C284C293C285E434
:102E18007836F2783EF27851F2784004F20874F489
:0C2E2800F2E47833F27838F2783FF222BE
:103139001237F21230EAE4908000F0908001F090AA
:103149008002F0908003F0908019F0908018F0537D
:10315900D8FC90800D7402F090800EF0C295C29652
:1031690053D8CF908006F0908007F0C287C286902E
:0E317900800FF090801CF0C297C2B40238564E
:10360100C284C293C285C2CEC2ACC2A9C28CC2ABB3
:10361100C28EE47838F2783FF27836F2F5D8123873
:0A362100E6E4F5AD75AAA50233F446
:10291300E4FDFC90019DF090019FE064AC60030234
:1029230029BFA3E064AA60030229BFA3E0F92DFF36
:10293300E433FEA3E02F122842122842FDEC3EFCB2
:1029430074A229F582E43401F583E0FE74A329F52A
:1029530082E43401F583E07A002400FFEA3EFEEFCF
:102963006D7002EE6C70559001A3E07824F2FFA322
:10297300E07822F2FDA3E0FE7825F2FB122BF67835
:1029830023EFF29001A6E0784CF2FFA3E0783DF24A
:10299300A3E07832F2123580783DE2FF12370778F0
:1029A30032E2FF1238287BFF7A3779DC12342A7837
:1029B30054E4F2087419F2E47836F2227BFF7A3792
:0529C30079EA12342A3C
:0129C80022EC
:1000760020B73D12287150069001ED1228AA1228C9
:10008600CD50069001F71228AA1228CD500302017E
:10009600809001FDE0700B7847E2B40102E4F212B1
:1000A60028B19001FD7401F078447428F2020180B1
:1000B600122871500302016F9001F7E0FEA3E0944D
:1000C60090EE9401400302016F7847E2700302014B
:1000D6005E20840302015E783FE2707C7836E2049B
:1000E600F2E2FFB401267824E27846F27822E2783A
:1000F60043F27825E2784BF27823E27845F27826C7
:10010600E2784CF27821E2783DF2804CEF6404709C
:100116000D1212AB40031228A3121355803A7836FB
:10012600E2D394054032E4F27846E27824F2FF788E
:1001360043E27822F2FD784BE2FE7825F2FB122BA1
:10014600F67823EFF2784CE2FF123580783DE2FF35
:10015600123707E4FF1238287847E260081228B100
:1001660078447428F2E4783FF2E49001EDF0A3F0CD
:100176009001FDF09001F7F0A3F030B6030202956E
:100186009001EF12287450069001EF1228AA9001F0
:10019600EF12287450030202A39001FEE0600302EE
:1001A60002587836E224FE602E14604914607114F9
:1001B600607A240460030202557846E2C3648094A0
:1001C600E35005E204F28004E47846F21212AB40F2
:1001D600221228A30202217843E2C36480948C5041
:1001E60005E204F2800578437401F21212CB400353
:1001F6001228A3802612131DED2401FDE43CFCD336
:10020600ED9F7480F86C98784B5005E204F28003F9
:100216007401F21212CB40031228A3121355802F39
:10022600784CE2C3648094975021801A783DE2C3EB
:10023600648094BB5002800EE4783DF2784CE2C3B1
:10024600648094975005E204F28004E4784CF2123C
:1002560028B19001FE7401F012289550069001F91C
:100266001228AA12289540227835E294325004E2E8
:100276002402F27835E2FF9001F9E4F0A3EFF0E40E
:100286009001FEF09001EFF0A3F0122902800EE437
:100296009001EFF0A3F09001FEF07835F230B5034F
:1002A6000203CB9001F112287450069001F1122836
:1002B600AA9001F112287450030203D99001FFE0BD
:1002C60060030203887836E224FE603314604E141D
:1002D60070030203611470030203682404600302BE
:1002E600038578461228C64003E214F212131DC392
:1002F600ED9F7480F86C9840221228A302034C7874
:1003060043E2D3648094814005E214F28005784389
:10031600740CF212133540031228A380297846E2A2
:10032600FF7843E2FD1237977875EFF2784BE2D308
:10033600648094814005E214F280031228A312130C
:100346003540031228A37846E2FF7843E2FD784B56
:10035600E2FB122BF67845EFF280241228C4401AED
:100366008013783D1228C64002800A783D743BF21D
:100376001228C44005E214F28005784C7417F21274
:1003860028B19001FF7401F09001FB1228985006E5
:100396009001FB1228AA9001FB122898402278426D
:1003A600E294325004E22402F27842E2FF9001FB2A
:1003B600E4F0A3EFF0E49001FFF09001F1F0A3F078
:1003C600122902800EE47842F29001F1F0A3F09037
:1003D60001FFF09001ECE04480F09001E9E04480F8
:1003E600F09001E5E04480F0A3E04480F09001DB6A
:1003F600E04401F04408F04404F07837E204F2E205
:10040600D394324015E4F27820E26004E4F28005E9
:1004160078207401F278347401F21237467836E2A5
:1004260070137833E260051228E8400478248007C8
:100436001228EF800578461228587F011213737F21
:10044600021213697836E270137833E260051228D7
:10045600E84004782280071228EF800578431228A6
:10046600587873E2B4010280079001EBE04480F013
:100476009001EAE04480F07F031213697836E27057
:10048600137833E260051228E840047825800712C5
:1004960028EF8005784B1228587F041213737F05C6
:1004A60012137D7836E27004782380027845E2FDE7
:1004B6003395E0FC7F061234607836E2FF701278DE
:1004C60026E2FEC36480948C400280107826E28087
:1004D6000E784CE2FEC36480948C4008EE24F478D7
:1004E60078F2800D784CE27878F29001DBE054FBEC
:1004F600F0EF700478218002783DE27876F2783663
:10050600E2B40408B404097820E260047F018002A2
:100516007F00AB077878E21221BC054800059101FF
:1005260005DA02061F0306640406A90506EE060799
:10053600330707780807BD0908020A084D0B0000B3
:10054600089C7876E2FEC3940C5009EB6006900195
:10055600D402082AEEC394185009EB60069001D421
:1005660002083B1228875009EB60069001D4020866
:100576004712288E5009EB60069001D4020858EB0A
:10058600700302089C9001DF0208987876E2FEC3A9
:10059600940C5009EB60069001DF02088CEEC394C0
:1005A600185009EB60069001DF02087B122887507D
:1005B60009EB60069001DF02086A12288E5009EBEB
:1005C60060069001E1020858EB700302089C900156
:1005D600E102084712287F5009EB60069001E1020C
:1005E600083BEFC394185009EB60069001E102083E
:1005F6002A1228875009EB60069001E1020898123A
:10060600288E5009EB60069001E102088CEB70031E
:1006160002089C9001E102087B12287F5009EB60DA
:10062600069001E102086AEFC394185009EB6006D0
:100636009001DE02086A1228875009EB60069001D5
:10064600DE02087B12288E5009EB60069001DE025E
:10065600088CEB700302089C9001DE0208981228B1
:100666007F5009EB60069001DE02082AEFC394185A
:100676005009EB60069001DE02083B1228875009FC
:10068600EB60069001DE02084712288E5009EB60E7
:10069600069001DE020858EB700302089C9001DC0C
:1006A60002086A12287F5009EB60069001DC0208F6
:1006B6007BEFC394185009EB60069001DC02088CAE
:1006C6001228875009EB60069001DC020898122870
:1006D6008E5009EB60069001DC02082AEB700302DB
:1006E600089C9001DC02083B12287F5009EB60064B
:1006F6009001DC020847EFC394185009EB6006909E
:1007060001DC0208581228875009EB60069001DACE
:1007160002085812288E5009EB60069001DA02088A
:1007260047EB700302089C9001DA02083B12287F0F
:100736005009EB60069001DA02082AEFC3941850BC
:1007460009EB60069001D70208981228875009EB3A
:1007560060069001D702088C12288E5009EB6006BD
:100766009001D702087BEB700302089C9001D70228
:10077600086A12287F5009EB60069001D9020858D2
:10078600EFC394185009EB60069001D9020847128E
:1007960028875009EB60069001D902083B12288E83
:1007A6005009EB60069001D902082AEB7003020893
:1007B6009C9001D902089812287F5009EB60069098
:1007C60001D902088CEFC394185009EB600690011A
:1007D600D902087B1228875009EB60069001D902DE
:1007E600086A12288E5009EB60069001D602086A44
:1007F600EB700302089C9001D602087B12287F50FA
:1008060009EB60069001D602088CEFC394185009D4
:10081600EB60069001D6020898122887500CEB6010
:10082600099001D6E04401F0806C12288E500CEB42
:1008360060099001D6E04402F0805BEB60589001BD
:10084600D6E04404F0804F12287F500CEB600990EC
:1008560001D6E04408F0803EEFC39418500CEB60DC
:10086600099001D4E04480F0802C122887500CEBCC
:1008760060099001D4E04440F0801B12288E500C91
:10088600EB60099001D4E04420F0800AEB60079009
:1008960001D4E04410F07836E2B40508B4050978CE
:1008A60020E260047F0180027F00AB077876E212C7
:1008B60021BC09700009830109960209A90309BC34
:1008C6000409CD0509DE0609EF070A00080A13091F
:1008D6000A260A0A390B0A4C0C0A5D0D0A6E0E0A24
:1008E6007F0F0A90100AA3110AB6120AC9130ADC6E
:1008F600140AEF150B02160B15170B28180B3919CE
:100906000B4A1A0B5B1B0B6C1C0B7F1D0B921E0BF1
:10091600A51F0BB8200BC8210BD8220BE8230BF818
:10092600240C09250C1A260C2B270C3C280C5029C4
:100936000C642A0C782B0C8C2C0C9F2D0CB22E0CD4
:10094600C52F0CD8300CEC310CFF320D12330D25AF
:10095600340D3B350D4E360D61370D74380D853926
:100966000D963A0DA73B00000DB6EB7003020DB6CF
:100976009001D4E04401F09001DF020DB2EB700368
:10098600020DB69001D4E04402F09001DF020DA101
:10099600EB7003020DB69001D4E04404F09001DF41
:1009A600020D90EB7003020DB69001D4E04408F0FE
:1009B6009001DF020D7FEB7003020DB69001DFE0C0
:1009C6004410F0A3020DB2EB7003020DB69001DFE6
:1009D600E04420F0A3020DA1EB7003020DB69001D6
:1009E600DFE04440F0A3020D90EB7003020DB690D9
:1009F60001DFE04480F0A3020D7FEB7003020DB629
:100A06009001E1E04408F09001E0020C4CEB700329
:100A1600020DB69001E1E04404F09001E0020C60A2
:100A2600EB7003020DB69001E1E04402F09001E0A4
:100A3600020C74EB7003020DB69001E1E04401F084
:100A46009001E0020C88EB7003020DB69001E1E024
:100A56004410F0A3020DB2EB7003020DB69001E153
:100A6600E04420F0A3020DA1EB7003020DB6900145
:100A7600E1E04440F0A3020D90EB7003020DB69046
:100A860001E1E04480F0A3020D7FEB7003020DB696
:100A96009001DEE04480F09001E2020C4CEB700322
:100AA600020DB69001DEE04440F09001E2020C60D7
:100AB600EB7003020DB69001DEE04420F09001E2F7
:100AC600020C74EB7003020DB69001DEE04410F0E8
:100AD6009001E2020C88EB7003020DB69001DEE095
:100AE6004401F09001DD020C88EB7003020DB69014
:100AF60001DEE04402F09001DD020C74EB700302AB
:100B06000DB69001DEE04404F09001DD020C60EBCE
:100B16007003020DB69001DEE04408F09001DD029C
:100B26000C4CEB7003020DB69001DCE04480F0A3A0
:100B3600020D7FEB7003020DB69001DCE04440F03D
:100B4600A3020D90EB7003020DB69001DCE0442089
:100B5600F0A3020DA1EB7003020DB69001DCE04498
:100B660010F0A3020DB2EB7003020DB69001DCE0AB
:100B76004401F09001DB020C88EB7003020DB69085
:100B860001DCE04402F09001DB020C74EB7003021E
:100B96000DB69001DCE04404F09001DB020C60EB42
:100BA6007003020DB69001DCE04408F09001DB0210
:100BB6000C4CEB7003020DB69001DAE04408F0022B
:100BC6000D6FEB7003020DB69001DAE04404F002FB
:100BD6000D5CEB7003020DB69001DAE04402F00200
:100BE6000D49EB7003020DB69001DAE04401F00204
:100BF6000D36EB7003020DB69001D7E04410F0A35A
:100C0600020DB2EB7003020DB69001D7E04420F05E
:100C1600A3020DA1EB7003020DB69001D7E044408C
:100C2600F0A3020D90EB7003020DB69001D7E044DD
:100C360080F0A3020D7FEB7003020DB69001D9E0A0
:100C46004408F09001D8E0020D6FEB7003020DB678
:100C56009001D9E04404F09001D8E0020D5CEB70FD
:100C660003020DB69001D9E04402F09001D8E002EB
:100C76000D49EB7003020DB69001D9E04401F090E6
:100C860001D8E0020D36EB7003020DB69001D9E0F3
:100C96004410F09001D3020DB2EB7003020DB69032
:100CA60001D9E04420F09001D3020DA1EB700302BC
:100CB6000DB69001D9E04440F09001D3020D90EBBF
:100CC6007003020DB69001D9E04480F09001D30282
:100CD6000D7FEB7003020DB69001D6E04480F090D4
:100CE60001D3E0020D6FEB7003020DB69001D6E062
:100CF6004440F09001D3E0805DEB7003020DB690A6
:100D060001D6E04420F09001D3E08037EB70030277
:100D16000DB69001D6E04410F09001D3E08011EBBF
:100D26007003020DB69001D6E04401F09001D5E0C3
:100D36004410F0807BEB60789001D6E04402F0909E
:100D460001D5E04420F08068EB60659001D6E04470
:100D560004F09001D5E04440F08055EB60529001DC
:100D6600D6E04408F09001D5E04480F08042EB6084
:100D76003F9001D4E04480F0A3E04408F08031EBDA
:100D8600602E9001D4E04440F0A3E04404F08020BB
:100D9600EB601D9001D4E04420F0A3E04402F08013
:100DA6000FEB600C9001D4E04410F0A3E04401F096
:100DB6007836E27005781FE28001E47877F278777A
:100DC600E21221BC0E82000E88010E8E020E9403E2
:100DD6000E9A040EA0050EA6060EAC070EB2080E5D
:100DE600B8090EBE0A0EC40B0ECA0C0ED00D0ED6D6
:100DF6000E0EDC0F0EE2100EE8110EEE120EF413BC
:100E06000EFA140F00150F06160F0C170F12180FF7
:100E160018190F1E1A0F241B0F2A1C0F2F1D0F3512
:100E26001E0F3B1F0F41200F47210F4C220F51234E
:100E36000F56240F5C250F62260F67270F6C280FAD
:100E460071290F762A0F7B2B0F802C0F852D0F8A89
:100E56002E0F8F2F0F94300F99310F9E320FA33321
:100E66000FA8340FB1350FBA360FC3370FCC380F72
:100E7600D5390FDE3A0FE73B00000FEE9001DF0297
:100E86000FEA9001DF020FE19001DF020FD8900117
:100E9600DF020FCF9001E0020FEA9001E0020FE1BE
:100EA6009001E0020FD89001E0020FCF9001E0021E
:100EB6000FC69001E0020FBD9001E0020FB4900151
:100EC600E0020FAB9001E2020FEA9001E2020FE1AD
:100ED6009001E2020FD89001E2020FCF9001E202E8
:100EE6000FC69001E2020FBD9001E2020FB490011D
:100EF600E2020FAB9001DD020FAB9001DD020FB4F1
:100F06009001DD020FBD9001DD020FC69001DD02EA
:100F16000FCF9001DD020FD89001DD020FE19001A5
:100F2600DD020FEA9001DB807C9001DB020FB490BA
:100F360001DB020FBD9001DB020FC69001DA020F42
:100F4600C69001DA80719001DA80639001DA8055EB
:100F56009001D8020FEA9001D8020FE19001D880E3
:100F6600719001D880639001D880559001D8804750
:100F76009001D880399001D8802B9001D38065905C
:100F860001D380579001D380499001D3803B9001D3
:100F9600D3802D9001D3801F9001D380119001D36F
:100FA60080039001D5E04410F0803D9001D5E044E7
:100FB60020F080349001D5E04440F0802B9001D59C
:100FC600E04480F080229001D5E04408F08019903A
:100FD60001D5E04404F080109001D5E04402F08091
:100FE600079001D5E04401F0784DE2FE08E2FF7873
:100FF6007BEEF2FE08EFF2C3EE6480948050521846
:10100600E2FE08E2FFC3E49FFFE49EFE7879F20861
:10101600EFF2C39409EE6480948050137D0A7C003D
:101026007F071234607879E2FC08E2FD02108278CC
:1010360079E2FE08E2D3941EEE64809480500E900E
:1010460001E8E04408F018E21212EB802F787D8068
:101056000F787B12290C9463EE6480948040060816
:101066007401F2801CD3EF9409EE64809480787B3F
:10107600E240051212EB8004FC08E2FD7F08123400
:1010860060784FE2FE08E2FF7C007D0A121FB77807
:1010960075EFF2D3946340057463F2800B7875E2C2
:1010A600C3940A5003740AF27875E2FF75F00A8455
:1010B600FE7873F2EF75F00A8408E5F0F2EEFD7C37
:1010C600007F091234607F0A12137D783EE21460B5
:1010D600080470081235AC80031233387820E260B9
:1010E600337836E224FE601014601F240270257FD8
:1010F6000112362B7F0280199001EBE0547FF090AD
:1011060001EAE0547FF07F0380077F0412362B7FCD
:101116000512362B7838E264017038781412290CDF
:10112600949EEE94074006E47833F28026D3EF943B
:101136007CEE9407500FEF942AEE9407400778331D
:101146007401F2800ED3EF9408EE940750057833BD
:101156007402F27834E26076E4F218E2FF70057801
:1011660051F28018EFB4010D1228E8500FE204F294
:101176001228B18007E47851F27844F2780EE2B48E
:101186000105E4F27844F27844E2D394004007E2A1
:1011960014F2D284D2857844E27002C2847849E29D
:1011A6002401F218E23400F2308410784AE2600436
:1011B600E4F2801A784A7401F28013E4784AF278ED
:1011C60040F208F2783EF27854F208F2C285780CC2
:1011D6001228F740031228BA7844E270317840E2C8
:1011E600FE08E24E7028783EE27023784AE2701ECE
:1011F60020851B7854E2FE08E24E7012780504F250
:101206001231397B1E7A00E4FD7F041238387847A4
:10121600E270547836F2C2847851F27844F2783E1D
:10122600F27848F208F2780CF208F2C2857838F2C1
:1012360070357840E2FE08E24E702C783EE2702768
:10124600784AE2702220851F7854E2FE08E24E704A
:1012560016780504F21231397B107A0EE4FDFF127E
:1012660038387F0112388078401228F74003122858
:10127600BA785412290C9414EE94004002801BD3C1
:10128600EF9405EE9400400778551228BA8012D3E1
:10129600EF9400EE9400400978551228BA43D8031B
:0412A6002253D8FCFB
:1012AA00227846E2FF7843E2FD1237977875EFF22B
:1012BA00784BE2FD3395E0FCC3ED9F7480F86C989F
:1012CA00227846E2FF7843E2FD1237977875EFF20B
:1012DA00784BE2FD3395E0FCC3ED9F7480F86C987F
:1012EA0022FA08E2FB7C007D0AFFAE0212200C788B
:1012FA0073EFF27C007D0AAF03AE0212200C787401
:10130A00EDF218E2FD7C007F071234607874E2FD8A
:10131A007C00227846E2FF7843E2FD12379778751F
:10132A00EFF2784BE2FD3395E0FC227846E2FF7853
:10133A0043E2FD1237977875EFF2784BE2FD339569
:10134A00E0FCC3ED9F7480F86C98227846E2FF783F
:10135A0043E2FD784BE2FB122BF67845EFF2227856
:10136A0074E2FD7C00123460227873E2FD7C001284
:0D137A003460227874E2FD7C0012346022A1
:10383800EFC43354E04DF5A9EAF5ACAF038FAB22E2
:0400160075AAA52200
:10376200A3E004F0E075F01484E5F0F0E02458F8EA
:0B37720022249FF582E43401F583223D
:052E920078731221829B
:102E97009080197403F0908018F0E49001D1F0A3AA
:102EA700F090019DF0A3F0C20AC2097F20FEFDFC4D
:102EB7007873122175122058A804A905AA06AB0732
:102EC700E4FFFE7DE1FC1220E3C3E49FFFE49EAD37
:102ED7000775C824F5CBAE058ECAF5CD8ECCD2CEFC
:052EE700759850D2AC0B
:012EEC0022C3
:1032F6009001D2E0FD9001D1E0FCC39D5006C3EDE4
:103306009CFE800DED2414FE9001D1E0FDC3EE9DE0
:10331600FEEED3940140D9C2AC9001D1123763EFCF
:10332600F2200A0BD2AC123762E2F599D20A22D207
:01333600ACEA
:013337002273
:03002300022CE7C5
:102CE700C0E0C0F0C083C082C0D075D000C000C0B3
:102CF70007309836C29890019DE075F03284E5F070
:102D0700F0E0FF123773E599F0749E2FF582E434F3
:102D170001F583E0B40D0D90019DE0123773E0B427
:102D27000A02D20990019DE004F0309918C29990E7
:102D370001D2E0FF9001D1E06F6008123762E2F53F
:102D4700998002C20AD007D000D0D0D082D083D0D9
:042D5700F0D0E032A6
:1036A30078881221B3788812219A121F8C601278BD
:1036B30088E475F0011221A3121F8CFF1232F680E9
:0236C300E422FF
:05342A0078731221B3CC
:10342F007BFE7A00797678851221B3787312219A10
:10343F0078881221B3788512219A788B1221B37B69
:10344F00017A00799D1233B77B017A00799D02369C
:01345F00A3C9
:03000000022A5C75
:0C2A5C00787FE4F6D8FD758121022AA3E2
:102A680002247BE493A3F8E493A34003F68001F2E5
:102A780008DFF48029E493A3F85407240CC8C3336F
:102A8800C4540F4420C8834004F456800146F6DF3E
:102A9800E4800B01020408102040809032B3E47EE9
:102AA800019360BCA3FF543F30E509541FFEE49333
:102AB800A360010ECF54C025E060A840B8E493A3FA
:102AC800FAE493A3F8E493A3C8C582C8CAC583CA25
:102AD800F0A3C8C582C8CAC583CADFE9DEE780BEDD
:0132F50000D8
:101F6A00C2D530F707B2D563F0FF05F030E70CB2FF
:101F7A00D5F4048463F0FF05F080018430D502F4BF
:021F8A0004222F
:101F8C00BB010689828A83E0225002E722BBFE0253
:091F9C00E32289828A83E4932286
:101FA500EF8DF0A4A8F0CF8CF0A428CE8DF0A42E50
:021FB500FE220A
:101FB700BC000BBE0029EF8DF084FFADF022E4CC0E
:101FC700F875F008EF2FFFEE33FEEC33FCEE9DECD7
:101FD700984005FCEE9DFE0FD5F0E9E4CEFD22ED1D
:101FE700F8F5F0EE8420D21CFEADF075F008EF2F67
:101FF700FFED33FD4007985006D5F0F222C398FD58
:052007000FD5F0EA22F4
:10200C00C2D5EC30E709B2D5E4C39DFDE49CFCEEEF
:10201C0030E715B2D5E4C39FFFE49EFE121FB7C391
:10202C00E49DFDE49CFC8003121FB730D507C3E48C
:06203C009FFFE49EFE225E
:10204200C5F0F8A3E028F0C5F0F8E5821582700229
:062052001583E038F022C6
:10205800E88FF0A4CC8BF0A42CFCE98EF0A42CFC27
:102068008AF0EDA42CFCEA8EF0A4CDA8F08BF0A4A5
:102078002DCC3825F0FDE98FF0A42CCD35F0FCEB04
:102088008EF0A4FEA9F0EB8FF0A4CFC5F02ECD39C9
:0F209800FEE43CFCEAA42DCE35F0FDE43CFC2236
:1020A70075F008758200EF2FFFEE33FECD33CDCCF0
:1020B70033CCC58233C5829BED9AEC99E582984073
:1020C7000CF582EE9BFEED9AFDEC99FC0FD5F0D650
:1020D700E4CEFBE4CDFAE4CCF9A88222B800C1B97A
:1020E7000059BA002DEC8BF084CFCECDFCE5F0CBB8
:1020F700F97818EF2FFFEE33FEED33FDEC33FCEBF1
:1021070033FB10D703994004EB99FB0FD8E5E4F9AB
:10211700FA227818EF2FFFEE33FEED33FDEC33FC98
:10212700C933C910D7059BE99A4007EC9BFCE99A8C
:10213700F90FD8E0E4C9FAE4CCFB2275F010EF2FD1
:10214700FFEE33FEED33FDCC33CCC833C810D707D1
:102157009BEC9AE899400AED9BFDEC9AFCE899F80C
:0E2167000FD5F0DAE4CDFBE4CCFAE4C8F9229F
:0D217500E2FB08E2F908E2FA08E2CBF822EA
:0C218200ECF208EDF208EEF208EFF22299
:0C218E00A42582F582E5F03583F583225C
:09219A00E2FB08E2FA08E2F92276
:1021A300FAE2FB0808E2F925F0F218E2CA3AF22251
:0921B300EBF208EAF208E9F2225D
:1021BC00D083D082F8E4937012740193700DA3A3B2
:1021CC0093F8740193F5828883E4737402936860C6
:0621DC00EFA3A3A380DFC6
:1021E200EC8EF0A4CCC5F0CCCDF8EFA4CEC5F02D8A
:1021F200FDE43CFCE8A42EC8C5F03DFDE43CFCEF48
:0D220200A4FFE5F028FEE43DFDE43CFC22D5
:1033B7007888E2FF08E2FE08E2CF7891F208EEF2A1
:1033C70008EFF2788BE2CBF208E2CAF208E2C9F220
:1033D7007F097894121F8CF20809E970010ADFF45B
:0D33E700788BE2FB08E2FA08E2F9021C6BA9
:101C0F00E5082491F8E2050822788E3007027891D2
:101C1F00E475F0011221A3021F8C2000EB7F2ED25E
:101C2F00008018EF540F2490D43440D4FF30040BAD
:101C3F00EF24BFB41A0050032461FFE509600215B9
:101C4F0009050CE50C7002050B30070D788EE47555
:101C5F00F0011221A3EF02223C02367C7403D2075B
:101C6F008003E4C207F508788E1221B3E4F509F575
:101C7F000BF50CE50960077F20121C4A80F5750AE9
:101C8F00FFC201C200C202C203C205C206C20812CD
:101C9F001C18FF700D3007057F00121C5BAF0CAED8
:101CAF000B22B4255FC2D5C204121C18FF24D0B476
:101CBF000A00501A75F00A780930D50508B6FF01E9
:101CCF0006C6A426F620D5047002D20380D924CFED
:101CDF00B41A00EF5004C2E5D204021E5AD201809A
:101CEF00C6D20080C0D20280BCD2D580BAD20580C5
:101CFF00B47F20121C4A2002077401B5090040F17D
:101D0F00121C0FFF121C4A021C82D208D2068095A9
:101D1F00121C0FFB121C0FFA121C0FF94A4B700604
:101D2F00792B7A1F7BFF20022EE509602A7E008E19
:101D3F008275830012220F60060EEE650A70F0C2E4
:101D4F00D5EBC0E0EAC0E0E9C0E0EE121EA1D0E0A2
:101D5F00F9D0E0FAD0E0FB121F8CFF60AAEBC0E0D5
:101D6F00EAC0E0E9C0E0121C4AD0E02401F9D0E05B
:101D7F003400FAD0E0FBE50A0460DCD50AD980878D
:101D8F007BFF7A1E799DD202809C791080027908A0
:101D9F00C206C2088008D2D5790A8004790AC2D552
:101DAF00E50A047002F50AE4FAFDFEFF121C0FFCAF
:101DBF007B08200113121C0FFD7B1030000A121C30
:101DCF000FFE121C0FFF7B20EC3382D592D55013E0
:101DDF00C3E43000069FFFE49EFEE42001039DFD57
:101DEF00E49CFCE4CBF8C201EC700CCFCECDCCE878
:101DFF0024F8F870F38017C3EF33FFEE33FEED33A3
:101E0F00FDEC33FCEB33FB994002FB0FD8E9EB30D1
:101E1F000105F8D0E0C448B201C0E00AEC4D4E4FC6
:101E2F0078207B0070C2EAB50A0040BCC0E0121EE9
:101E3F00A3D0F0D0E0200104C4C0E0C4B201C0F0D0
:101E4F00121C33D0F0D5F0EB021C821221BC1D1FE7
:101E5F00531D99581CF04C1CEC421D9D4F1DA54461
:101E6F001DA5491D05431DAB551D8F461D8F451DD6
:011E7F008FD3
:101E8000471F4B501CF42D1CF82E1D1B2B1CFC2334
:101E90001D19201F342A1CB44800001D133F3F3F6A
:101EA00000790AA2D5200314300509B910020404F0
:101EB000B9080104A2D5200602500104200268924C
:101EC00002B509005034C0E07F203003197F30A2F2
:101ED0000272067205500F121EFAC202C206C20535
:101EE000C2087F30800F300503E9C0E0121C4A3081
:101EF0000503D0E0F9D0E0B509CC3005177F30B943
:101F0000100C121C4A7F583004077F788003B908F0
:101F100003121C4A3002057F2D021C4A7F20200834
:101F2000F87F2B2006F322920280CF286E756C6C0E
:101F30002900D201121C0F3001F8C201780930D5F6
:101F40000108F6021CB42D50434958121C0F2403FB
:101F5000B405004001E4901F4693121C3B743A12F2
:0A1F60001C3BD203750904021D9911
:10220F00BB010CE58229F582E5833AF583E0225084
:10221F0006E92582F8E622BBFE06E92582F8E222CE
:0D222F00E58229F582E5833AF583E49322E8
:10223C00BB010689828A83F0225002F722BBFE0181
:02224C00F3227B
:10367C00EFB40A07740D123687740A309811A899A2
:10368C00B8130CC2983098FDA899C298B811F630AE
:07369C0099FDC299F5992286
:00000001FF
