:0D2B7200810E00810000820100008103003F
:10278400D390008BE0940090008AE0940022785764
:1027940008E2FF24FFF218E2FE34FFF2EF4E22D3E8
:1027A400900087E0940A900086E0940022F2E47896
:1027B40007F27805F222E475F001121D94D390001B
:1027C4008BE022E2247AF582E43400F58322780354
:0827D400E2FF7806E2FE6F222D
:0E2F4600758911758CCF758AFFD2A9D28C22A5
:03000B00022DFBC8
:102DFB00C0E0C0D075D000C000758CCF758AFF784D
:102E0B0006E204F2E2B4FF02E4F2D000D0D0D0E04C
:012E1B003284
:0C2FC000758F1FD2A8D289D288D2B82207
:0C2FCC00758E1ED2AAD28BD28AC2BA2205
:0C2FD800E4F5C075FB9DD2E843F901222E
:0E2F5400D2A8D289D2AAD28BD2E843F90122A8
:0E2F6200C2A8C289C2AAC28BC2E853F9FE22DD
:102505007F041226CC9080007402F0A3F0A3F0A300
:10251500F090800D7406F0A3F0908006F0A3F01201
:1025250025F3122F62E4FF122F7ED2A9D28CD28519
:10253500D284D293E490008AF0A3F078437428F211
:1025450078447401F2E47833F2783EF27816F208B2
:10255500F2781AF27811F27847F2780E7402F2786E
:102565004014F20874F41227B1780CF208F2784D91
:09257500F27850F2087405F2221C
:03000300022A1BB3
:102A1B00C0E0C0F0C083C082C0D075D000C000C081
:102A2B0001C002C003C004C005C006C00775AAA53B
:102A3B00C2A8C289E4FF122F7E780A7401F2D00774
:102A4B00D006D005D004D003D002D001D000D0D016
:092A5B00D082D083D0F0D0E0322B
:03001300022A645A
:102A6400C0E0C0F0C083C082C0D075D000C000C038
:102A740001C002C003C004C005C006C00775AAA5F2
:102A8400C2AAC28B780A7401F2E4FF122F7ED00727
:102A9400D006D005D004D003D002D001D000D0D0CD
:092AA400D082D083D0F0D0E032E2
:03003B000228890F
:10288900C0E0C0F0C083C082C0D075D000C000C015
:1028990001C002C003C004C005C006C00775AAA5CF
:1028A900E5FA30E01275FA01780A7401F2E4FF12D0
:1028B9002F7EC2E853F9FED007D006D005D004D048
:1028C90003D002D001D000D0D0D082D083D0F0D0B4
:0228D900E032EB
:1028DB007847E26045309227C390008BE094321228
:1028EB00278B503D1227BA943112278B4033780E29
:1028FB00E26401702C7402F2E4780CF208F22212FA
:10290B002784400774FFF5F0121D9490008AE07045
:10291B0002A3E0700C780E04F2227843E27002C23C
:02292B00852203
:10292D0030922BC390008BE0941412278B504012E1
:10293D0027BA941312278B4036780EE26402602F6B
:10294D001227B2780E7402F21225057F012212278A
:10295D0084400774FFF5F0121D94D390008BE09422
:10296D000112278B5009780E7401F2E4F0A3F07F69
:02297D00002236
:03006300022F8CDD
:0D2F8C00C0E0E5AA30E10375AAA5D0E0324F
:102CA9007806E2FF7800E26F6022EFF220B60C129C
:102CB90027A35018E475F001021D941227A34005BB
:0C2CC900780BE204F2E4900086F0A3F027
:012CD50022DC
:10216D00122EF0900072E04401122208900072E0ED
:10217D004408122208900072E04404122212E478FE
:10218D005BF2785BE2FFC3943C50127D011212208A
:10219D0012221C121220785BE204F280E5E4785BD7
:1021AD00F2785BE2FFC3943C50127D01121664126B
:1021BD00221C121664785BE204F280E5E4785BF28F
:1021CD00E4785CF2785CE2FFC39408502218122781
:1021DD00C7E0FE7401A807088002C333D8FC4E1275
:1021ED002212785B1227C7E4F008E204F280D5785A
:0A21FD005BE204F2E2C3940A40C65C
:1022070022F012297F7F14122EDB22F012297F7F02
:1022170014122EDB2212297F7F14122EDB785BE249
:04222700FFE4FD22B1
:101ED7007F041226CC7F01122F16122660E4FBFD29
:101EE7007F011229CEE4FB7D0FFF122FF0E4FF12D2
:101EF7002F7ED2857F0A122EDB1222E0D284122196
:101F07006D122EAE12297F7F01122F16122F461245
:101F17002FC0122FCC122FD81225F37B4B7A00E457
:101F2700FD7F04122F36120016D2ED785274FFF29D
:101F37000814F27850E4F2087405F2784374281212
:101F470027B1D2AFD2937805E2703C7807E270F6FA
:101F57001227D2602A7803EEF218E22401F218E27F
:101F67003400F2122EF0120076D37802E2940A18A7
:101F7700E29400400AE4F208F21222E012297F12EA
:101F870028DB12001680BF122DD5C2847844E26088
:101F970042780AE2601EE4F2D285C2847857740759
:101FA700F20874D0F21227926004D28580F71225C6
:101FB70005022057C284D285D2937857E4F2087479
:101FC70028F2122792600612292DEF60F575AAA54F
:081FD700022057780AE2607055
:101FDF00E4F27F041226CC7F01122EDB122F62D285
:101FEF00A9D28CE4780BF2900088F0A3F07859F224
:101FFF000874C8F2785AE2700218E260201227D2F1
:10200F00600F7803EEF2785AE224FFF218E234FF01
:10201F00F220B709122CA9780BE2B403D7780BE2A0
:10202F00B4030CD2857F01122EDB12250580081216
:0E203F002F547F01122F7EE4900088F0A3F052
:10204D00800812001E7F01122F7E12001E021F4DEE
:102BAD00E4F5B1F5A190FC00E04440F0E58654F069
:102BBD004404F586122F70EF60FAA2AF9201D2AFE6
:102BCD0078077401F2123003E58654F0440BF58654
:052BDD0075AAA5D2AFAE
:012BE20022D0
:0730030043870200000022D8
:0E2F7000E5FF7004E5FE60037F00227F012272
:10205D000E690E640E5E0E570E4F0E450E3A0E2D86
:10206D000E200E100DFF0DEC0DD80DC10DA90D8E0E
:10207D000D700D500D2F0D0D0CF00CD20CB50C98E4
:10208D000C7A0C5F0C4D0C3C0C1F0C070BEE0BD59A
:10209D000BAF0B880B600B380B4A0B210AF70ACDDF
:1020AD000AA10A760A4A0A1E09F209C50998096B9E
:1020BD00093D091008E308B50888085A082D0800DD
:1020CD0007D307A7077A074F072306F806CD06A300
:1020DD00067A06510628060005D905B2058C056756
:1020ED000542051E04FB04D904B704960475045675
:1020FD00043A041803FB03DE03C203A7038C037227
:10210D00035903400328031002FA02E402CE02B978
:10211D0002A50291027E026C025902480237022684
:10212D000216020701F801E901DB01CD01C001B37F
:10213D0001A6019A018F01830178016D0163015997
:10214D00014F0145013C0133012B0122011A0112FE
:10215D00010B010300FD00F500EF00E800E200DCDB
:0A2B7F0082160000811A0081110087
:10272A007916E3C4F854F0C868FF09E3C4540F48A3
:10273A007818CFF208EFF2E408F27816F208F27885
:10274A0011E204F22212000E12003E7817E22FF272
:10275A0018E23EF2781AE204F2E2C39410227C00F4
:10276A007D64021CF77C00121D09C3227811E2D392
:0A277A009402227C00121D09C32204
:102CD600EDC4333354C0441C4FF5B975BAF0EBB4A8
:102CE600010E7869E2C4333354C04423F5BB800334
:0D2CF60075BB23EDB40102D2E843B92022E2
:082FFB00E5BA54F04FF5BA22CB
:04000E0043B9802250
:10003E00E5B930E5FB43B920AFBDEFFEADBC7C00AA
:10004E00E42DFFEC3EC4F854F0C868FEEFC4540F24
:02005E0048FF59
:01006000227D
:10257E00E4FF75F002EF90205D121E78E493FC7478
:10258E000193FDC37819E29D18E29C4050EF24E2BE
:10259E00784AF2E434FF18F27852E2FC08E2FD7851
:1025AE004AE22DF218E23CF2E2FC08E2FDD394E29C
:1025BE00EC6480947F400BD3ED9463EC6480948044
:1025CE00400D784EE2FD08E27849CDF208EDF27842
:1025DE0049E2FF08E2784ECFF208EFF2220FEFD376
:0425EE009482408E05
:0125F20022C6
:102D2F007F02122FFB1F122EDB12274F4003122799
:102D3F002A1227764014E4F212257E783E7401F2AF
:0A2D4F00E47869F2FBFDFF122CD6B8
:012D59002257
:102AF3007F05122FFB12274F400312272A12277636
:102B0300402DE4F27818E2FF08E27814CFF208EFE0
:102B1300F278387401F2308412783E04F243D830EC
:0F2B2300E47869F2FBFD7F01022CD6E4783EF2E4
:012B32002280
:041AA8007856EDF28D
:101AAC00C3EF9488EE941340077A007BC8021BF3B3
:101ABC00C3EF9428EE940A40097D3012276F7430DE
:101ACC00805CC3EF9414EE940540097D1A12276FC5
:101ADC00745E804AC3EF9476EE940240117C007DD4
:101AEC000A121CF77D86121D09C3748D8030C3EF5A
:101AFC009436EE940140177C007D0A121CF7EF78A7
:101B0C0006CEC313CE13D8F9FFC374C08010C3EF35
:101B1C0094A0EE940040107D0312277D74F79FFB78
:101B2C0074019EFA021BF3C3EF9457EE9400400D20
:101B3C001227687D92121D09C374308040C3EF9444
:101B4C0031EE9400400D1227687D4C121D09C374B0
:101B5C0066802AC3EF941FEE9400400D1227687D17
:101B6C0024121D09C374AE8014C3EF9414EE9400B8
:101B7C0040131227687D16121D09C374E59FFB7470
:101B8C00029EFA8062C3EF940DEE9400400D122772
:101B9C00687D0E121D09C374198046C3EF9408EEBC
:101BAC00940040107C037DE8121CF77D5C12277DAD
:101BBC007449802DC3EF9406EE940040137C037D92
:101BCC00E8121CF77C007D36121D09C3748A801143
:101BDC00122768EF7802CEC313CE13D8F9FFC37463
:101BEC00CA9FFB74039EFA7856E2FFD394285014D4
:101BFC00EF75F002A4FFEB2432FDE43ACDC39FFB5A
:101C0C00ED95F0FA784BE2FE08E2FFD394C8EE941F
:101C1C0000400BEF2BFBEE3AC313FAEB13FBC3EBB9
:101C2C0094B6EA9403400CEB94E7EA9403500474E2
:101C3C00CF803DC3EB9484EA9403400CEB94B5EA5B
:101C4C0094035004749D8028C3EB9452EA9403408F
:101C5C000CEB9483EA94035004746B8013C3EB94E1
:101C6C0020EA94034015EB9451EA9403500D743917
:101C7C002BFB74033AC313FAEB13FB74052BFBE435
:101C8C003AFAC3EB94E7EA940340047A037BE778CF
:101C9C001BE2FE08E2FFD39BEE9A400B780F74FF19
:101CAC00F20874FBF28017C3EF9BEE9A500A780F80
:101CBC00E4F2087407F28006E4780FF208F2781B5D
:081CCC00EAF208EBF2FFAE02A0
:011CD40022ED
:1023FF0012274F400312272A122776407CE4F278E7
:10240F0018E2FF08E27812CFF208EFF218E2FE08A6
:10241F00E2FFE49FFF74109EFE7C017DD6121EAA80
:10242F00C006C0077812E2FE08E2FBAA06E4F9F83C
:10243F00D007D006121DE674052FFFE43EFE7C0088
:10244F007D0A121D097849E2FC08E2FDC3EC6480A5
:10245F0094805008E47854F208F280077854ECF234
:10246F0008EDF2785408E2FD121AA8784BEEF20844
:09247F00EFF253D8CFE4783EF2ED
:012488002231
:03001B00022B3382
:102B3300C0E0C0F0C083C082C0D075D000C000C068
:102B430001C002C003C004C005C006C007C2ABC2B7
:102B53008E1223FFD007D006D005D004D003D002B5
:0F2B6300D001D000D0D0D082D083D0F0D0E032DB
:03007300022C4913
:102C4900C0E0C0D075D000C000C007E5D430E1189D
:102C590075D402783EE2B4020F7F01122FFB758D05
:102C6900FF758BE7D2ABD28ED007D000D0D0D0E0A1
:012C79003228
:102E1C00EF7802C333CE33CED8F9FFEF1FAA06707A
:102E2C00011E4A600BE4FDEDC3940F50EE0D80F7CC
:012E3C002273
:102EDB00AC07AF041CEF60097F507E00122E1C80E4
:052EEB00F175AAA5220B
:102F1600AB07AF031BEF60077FF4122EDB80F322B3
:102E5E00781DF2087408F2122DB4740E781DF20863
:0E2E6E007404F222D281EEC313781DF20F22FB
:072DAD00781DF2087408F222
:102DB400C280E4FF781EE2FEEFC39E5013C2811866
:102DC400E2FE30E004D2828002C282122E7280E4DB
:012DD40022DC
:0E2C7A00122C88D2837401781DF2087408F2BF
:102C8800C283E4FF781EE2FEEFC39E5013C2811890
:102C9800E2FE30E004D2828002C282122E7280E408
:012CA8002209
:1022E0009080007402F0908001F0908002F0908065
:1022F00003F0D280D28174C1122E5E122DB4D2802E
:102300007401122DAD740C122E6A122DB4D2807489
:1023100001122E5E122DB4D280781D74A1122E608F
:10232000122DB4D280781D7439122E60122DB4D2C1
:1023300080D283D28174C1122C81122E68122C7A21
:10234000781D740CF2087404F2122C7A122E6812A2
:102350002C88D283781D74A1122C83122E68122C23
:1023600088D283781D7439122C83122E68122C881F
:03237000D28322F3
:10297F007405122DADE4781DF20804F2122DB4E4A3
:10298F00FD746A2DF582E43400F583E0122DAD0D50
:10299F00EDB410EDD280781D7405122C83E4781DF0
:1029AF00F20804F2122C88E4FD747A2DF582E434D7
:0E29BF0000F583E0122C810DEDB40AEDD283F9
:0129CD0022E7
:102EC500785E7401F2E408F2082233333354F8FFD4
:062ED500E5DB54F04F2282
:102D5A008FC0EF30E00BED122ECFFF7860E24F808C
:102D6A0007AF05EF122ECF4BF5DB785EE2C43333A3
:0A2D7A00335480FF08E24FF5DC221D
:102F05008FC0ECF5DEAF058FDDEAF5D1AF038FDFBE
:012F15002299
:030066008FD9220D
:05000600E5D970FC22A9
:102C17008FC0AF05EFC43333335480FFE5DB540F68
:102C27004FFFAE03EEC4333354C04FFF785EE2C4A8
:102C37003354E04FFF08E2C454F04FF5DB08E2F5E8
:022C4700DA228F
:1025F300122EC5F27B017D0112265204F2122652DD
:10260300F27F04122D5A122EC504F27F05122D5AA1
:102613007B2C7A017D587C02E4FF122F057F031285
:1026230000661200067B9A7A037D337C070F122F14
:10263300057F3012006612000643D830785E122EF2
:10264300C77419F2E4FBFD7F04122C17D2EF22FFAB
:0D265300122D5A785E7401F2E408F208229C
:0D2FA600001F1C1F1E1F1E1F1F1E1F1E1FB1
:102B8900812717812608812100811F008124128154
:052B9900220781251553
:0D2FB3007824E2FF7822E2FD7825E2FB227F
:03006B0002283434
:10283400C0E0C0F0C083C082C0D075D000C000C06A
:1028440001C002C003C004C005C006C007E5EE30E5
:10285400E10343EE02E5FA30E60343FA08E5EE301D
:10286400E00843EE01E4FF122F7ED007D006D00526
:10287400D004D003D002D001D000D0D0D082D083F5
:05288400D0F0D0E032AD
:1029CE0043A108E5A130E2FBEFC43333335480FF5B
:1029DE00E5F1541F4FFFAE05EEC4333354C04FFF25
:1029EE00AE03EEC43354E04FF5F17F17122D037F83
:1029FE003B122E3D7F1E122F2675F21E75F33B7570
:0D2A0E00F417122FB31224897823EFF2225F
:0B2FF0008FECAF058FEBAF038FEA22E0
:0E2F7E00EF64016003C2EE2243F11CD2EE228A
:102F260043F1028FF27F647E00122E1C53F1FD22C4
:102E3D007866EFF243F102122E5043F102786612DA
:102E4D002E5022E2F5F37F647E00122E1C53F1FD0D
:012E5D002252
:102D03007866EFF243F102E5F454E0FF122D20431D
:102D1300F102E5F454E0FF7866122D2022E24FF52C
:0C2D2300F47F647E00122E1C53F1FD2290
:0D2F9900EF24D0FFEF54037002D322C322B7
:102E9600EDB4020D122F995008ED902FA69304FF62
:082EA60022ED902FA693FF22FC
:062489007866EBF2A905E4
:10248F007E14E9D39402500FEF75F06484E5F07079
:10249F00011E1F740C29F9EF1313543FFDEF2DFD8F
:1024AF00E433FCEE1313543F7A002DFDEA3CFCAFEE
:1024BF0006EF75F002A4FFC3ED9FFBEC95F0FAE970
:1024CF002401FFE433FE7C007D1A121CF77D0A12F3
:1024DF001D09EF2BFFEE3AFE7866E27C002FFFEC32
:1024EF003ECF24C2CF3409FE7D07121D09AF05EF81
:0524FF006001227F07CF
:0125040022B4
:1027DC007826E2FF08F2EF704E7825E204F218E258
:1027EC00FF7822E2FD122E967825E2FED3EF64806C
:1027FC00F8EE64809840267822E204F27825740181
:10280C00F27822E2D36480948C40127401F2782422
:10281C00E204F2E2D3648094E34002E4F2122FB3B8
:08282C001224897823EFF22247
:10001E00781FE5F2F27821E5F3F2E5F4541F782625
:0C002E00F2E2FF08E26F60031227DC2200
:022B9E00C180F4
:0C2FE40043A180E5A254F84401F5A222AC
:1026CC00EFC394024057EFD39408505130002BAE17
:1026DC00A143A1E0759306759240759188E59154DC
:1026EC00C070FA859795859694E5A254F84405F543
:1026FC00A27591C8E59154C070FAEF24FE333333C0
:10270C0054F84480F5ADE5AD30E0FBE5A254F84457
:0D271C0004F5A2300007EE4440F5A1C20014
:01272900228D
:102E7C005F066B2F363D7D077F3F208058F560B68F
:0A2E8C00F263D3D770F7F302088554
:0C2BA0008A28090807060405030201004A
:102EF0007F1090006AE4F0A3DFFC7F0A90007AE480
:042F0000F0A3DFFC5F
:012F040022AA
:102EAE007F1090006A74FFF0A3DFFC7F0A90007A17
:062EBE0074FFF0A3DFFC2D
:012EC40022EB
:102BE300EF142428F8E2FBEF64056004EFB4060950
:102BF30074892DF582742E8007747C2DF582742ED2
:102C03003CF583E493FE747A2BF582E43400F58378
:032C1300E04EF0A0
:012C1600229B
:102D8400EF142428F8E2FDEF64056004EFB40605AF
:102D9400902E948003902E87E493FE747A2DF5820E
:082DA400E43400F583E05EF069
:012DAC002204
:10122000A907ED7003021446E9121E8412E40012AD
:10123000EA0112F00212F60312FC0413020513086D
:1012400006130E07131408131A0913200A13260B8A
:10125000132C0C13320D13380E133E0F13441013BE
:101260004A11135012135613135C141362151368AA
:1012700016136E17137418137A1913801A13861B1A
:10128000138C1C13911D13961E139B1F13A1201367
:10129000A62113AB2213B02313B52413BB2513C00F
:1012A0002613C52713CA2813CF2913D42A13D92BE1
:1012B00013DE2C13E32D13E82E13ED2F13F230134E
:1012C000F73113FC32140133140634140E3514169E
:1012D00036141E37142638142E3914363A143E3B71
:1012E00000001663900076021441900076021439D3
:1012F0009000760214319000760214299000770253
:101300001441900077021439900077021431900054
:1013100077021429900077021421900077021419A3
:10132000900077021411900077021409900079025E
:101330001441900079021439900079021431900020
:10134000790214299000790214219000790214196D
:10135000900079021411900079021409900074022F
:101360001409900074021411900074021419900072
:101370007402142190007402142990007402143134
:10138000900074021439900074021441900072802D
:1013900078900072807B900072807E9000720214C0
:1013A00021900071807B900071806E90007180614F
:1013B000900071805490006F02144190006F80790A
:1013C00090006F806C90006F805F90006F805290F3
:1013D000006F804590006F803890006F802B9000E8
:1013E0006A805E90006A805190006A804490006A32
:1013F000803790006A802A90006A801D90006A8081
:101400001090006A800390006CE04410F02290007D
:101410006CE04420F02290006CE04440F022900008
:101420006CE04480F02290006CE04408F0229000D0
:101430006CE04404F02290006CE04402F022900042
:101440006CE04401F022E9121E8415020015080127
:10145000150E02151403151A041520051526061578
:101460002C07153208153809153E0A15440B154A84
:101470000C15500D15560E155C0F156210156811E0
:10148000156E12157413157A141580151586161518
:101490008C17159218159819159E1A15A41B15AAC4
:1014A0001C15AF1D15B41E15B91F15BF2015C4217D
:1014B00015C92215CE2315D32415D92515DE2615D9
:1014C000E32715E82815ED2915F22A15F72B15FC49
:1014D0002C16012D16062E160B2F16103016153150
:1014E000161A32161F33162434162C3516343616B7
:1014F0003C37164438164C3916543A165C3B0000FB
:10150000166390007602165F9000760216579000E0
:101510007602164F90007602164790007702165F0B
:1015200090007702165790007702164F90007702CE
:10153000164790007702163F90007702163790000A
:101540007702162F90007702162790007902165F17
:1015500090007902165790007902164F9000790298
:10156000164790007902163F9000790216379000D6
:101570007902162F90007902162790007402162720
:1015800090007402162F90007402163790007402B7
:10159000163F90007402164790007402164F900098
:1015A0007402165790007402165F90007280789053
:1015B0000072807B900072807E90007202163F90D5
:1015C0000071807B900071806E900071806190004E
:1015D00071805490006F02165F90006F80799000C8
:1015E0006F806C90006F805F90006F805290006FF2
:1015F000804590006F803890006F802B90006A804B
:101600005E90006A805190006A804490006A803742
:1016100090006A802A90006A801D90006A80109075
:10162000006A800390006CE054EFF02290006CE0C0
:1016300054DFF02290006CE054BFF02290006CE088
:10164000547FF02290006CE054F7F02290006CE0A0
:1016500054FBF02290006CE054FDF02290006CE00E
:0416600054FEF02222
:10166400A907ED700302188AE9121E8417280017CF
:101674002E01173402173A03174004174605174C76
:1016840006175207175808175E0917640A176A0BDA
:1016940017700C17760D177C0E17820F178810170A
:1016A4008E11179412179A1317A01417A61517ACB6
:1016B4001617B21717B81817BE1917C41A17CA1B6A
:1016C40017D01C17D51D17DA1E17DF1F17E52017B3
:1016D400EA2117EF2217F42317F92417FF2518041A
:1016E40026180927180E2818132918182A181D2B2C
:1016F40018222C18272D182C2E18312F1836301894
:101704003B31184032184533184A34185235185AA8
:1017140036186237186A38187239187A3A18823BC0
:1017240000001AA790006B02184D90006B02185528
:1017340090006B02185D90006B02186590007602B1
:10174400188590007602187D900076021875900036
:101754007602186D90007802186590007802185D82
:1017640090007802185590007802184D9000780285
:10177400188590007802187D900078021875900002
:101784007802186D90007502186D90007502187536
:1017940090007502187D90007502188590007502FE
:1017A400184D90007502185590007502185D900050
:1017B4007502186590007302186D90007302187515
:1017C40090007302187D9000730218859000738056
:1017D40078900073807B900073807E900073021871
:1017E40065900071807B900071806E9000718061C3
:1017F400900071805490006E02188590006E80797C
:1018040090006E806C90006E805F900070805290AB
:10181400007080459000708038900070802B90009C
:1018240070805E90007080519000708044900070D1
:10183400803790006D803290006D803590006D800F
:101844003890006D803B90006DE04401F0229000E0
:101854006DE04402F02290006DE04404F022900018
:101864006DE04408F02290006BE04480F022900088
:101874006BE04440F02290006BE04420F0229000A2
:101884006BE04410F022E9121E84194600194C0141
:10189400195202195803195E04196405196A0619C4
:1018A4007007197608197C0919820A19880B198E90
:1018B4000C19940D199A0E19A00F19A61019AC1130
:1018C40019B21219B81319BE1419C41519CA161964
:1018D400D01719D61819DC1919E21A19E81B19EED0
:1018E4001C19F31D19F81E19FD1F1A03201A0821CB
:1018F4001A0D221A12231A17241A1D251A22261A1F
:1019040027271A2C281A31291A362A1A3B2B1A404F
:101914002C1A452D1A4A2E1A4F2F1A54301A59319F
:101924001A5E321A63331A68341A70351A78361A02
:1019340080371A88381A90391A983A1AA03B00004E
:101944001AA790006B021A6B90006B021A73900036
:101954006B021A7B90006B021A83900076021AA322
:10196400900076021A9B900076021A9390007602F9
:101974001A8B900078021A83900078021A7B9000E8
:1019840078021A73900078021A6B900078021AA3F6
:10199400900078021A9B900078021A9390007802C3
:1019A4001A8B900075021A8B900075021A9390009E
:1019B40075021A9B900075021AA3900075021A6BA7
:1019C400900075021A73900075021A7B90007502DC
:1019D4001A83900073021A8B900073021A9390007A
:1019E40073021A9B900073021AA39000738078907C
:1019F4000073807B900073807E900073021A839042
:101A04000071807B900071806E9000718061900005
:101A140071805490006E021AA390006E8079900039
:101A24006E806C90006E805F9000708052900070A9
:101A340080459000708038900070802B90007080FA
:101A44005E900070805190007080449000708037E8
:101A540090006D803290006D803590006D803890DC
:101A6400006D803B90006DE054FEF02290006DE02C
:101A740054FDF02290006DE054FBF02290006DE0E4
:101A840054F7F02290006BE0547FF02290006BE05A
:101A940054BFF02290006BE054DFF02290006BE022
:041AA40054EFF022E9
:10222B00E2FF75F00A121CD5785BF2EF75F00A121B
:10223B001CD5AFF0785CEFF222900084E0FEA3E0B7
:10224B00D3940AEE940022785EE2FFC3940C2278BA
:10225B005EE2C3942422785EE2C394302290009015
:10226B00E0FEA3E0D39432EE940022E475F0010279
:10227B001D947850E4F2087405F222E224FFF21860
:10228B00E234FFF2227848E2D364809480229000FB
:10229B008EE0FEA3E0D39490EE94012290801DF08B
:1022AB0090801EF090801FF022784DE2C3940422A0
:1022BB00785B740CF208F2227850E2FE08E24E22B0
:1022CB00E2FE08E2D39400EE94002278437428F2E5
:0522DB00E4783FF2224F
:1026600074011222A790800AF074811222A7908030
:102670001A7403F090801BF09080087405F090802D
:1026800009F090800CF090800D04F090800EF09096
:102690008006F0908007F09080047402F09080052E
:1026A000F090800BF0784414F2C284C293C285E4A7
:1026B0007836F2783EF2784DF2784004F20874F4FD
:0C26C000F2E47833F27838F2783FF2222E
:102AAD00122EF012297FE4908000F0908001F090BA
:102ABD008002F0908003F053D8FC90800D7402F0EA
:102ACD0090800EF0C295C29653D8CF908006F090AC
:102ADD008007F0C287C28690800FF090801CF0C2F4
:062AED0097C2B4022F5451
:102DD500C284C293C285C2A9C28CC2ABC28EE4783A
:102DE50038F2783FF27836F2F5D8122FE4E4F5ADF3
:062DF50075AAA5022BAD3A
:1000760020B73D12224450069000841222761222A6
:1000860099500690008E1222761222995003020190
:1000960065900094E0700B7844E2B40102E4F21239
:1000A600227D9000947401F078437428F202016571
:1000B600122244500302015490008EE0FEA3E09405
:1000C60090EE940140030201547844E2606F30845C
:1000D6006C783FE270677836E204F2E2FFB4010E14
:1000E6007826E27848F27821E2783DF2804FEF6494
:1000F60004702D1211EFFD3395E0FCC3ED9F748063
:10010600F86C984006785DE27825F27824E2FF786C
:1001160022E2FD7825E2FB1224897823EFF2801D86
:100126007836E2D394054015E4F27848E2FF122DC2
:1001360003783DE2FF122E3DE4FF122F267844E2BB
:10014600600812227D78437428F2E4783FF2E49046
:100156000084F0A3F0900094F090008EF0A3F030AD
:10016600B60302025490008612224750069000867B
:1001760012227690008612224750030202629000F5
:1001860095E060030202177836E224FE601F1460D1
:100196002C14604B146054240470737824E2C364F6
:1001A6008094E35002805EE47824F280617822E253
:1001B600C36480948C5002804C7822801D1211EF0B
:1001C600FD3395E0FCED2401FDE43CFCD3ED9F748A
:1001D60080F86C9878255002802B7401F2802F7875
:1001E60048E2C3648094975021801A783DE2C36444
:1001F6008094BB5002800EE4783DF27848E2C364F6
:100206008094975005E204F28004E47848F21222C2
:100216007D9000957401F0122268500690009012AD
:10022600227612226840227835E294325004E22483
:1002360002F27835E2FF900090E4F0A3EFF0E4904C
:100246000095F0900086F0A3F01222D6800EE4907E
:100256000086F0A3F0900095F07835F230B50302F1
:100266000344900088122247500690008812227696
:100276009000881222475003020352900096E070C5
:100286007A7836E224FE60161460261460461460FE
:100296004A240470637824122292405C80507822AB
:1002A600E2D364809481400280447822740CF28008
:1002B600477824E2FF7822E2FD122E96785DEFF26F
:1002C6007825E2D36480948140028022785DE278CA
:1002D60025F28024122290401A8013783D12229231
:1002E6004002800A783D743BF21222904005E214E7
:1002F600F2800578487417F212227D9000967401F8
:10030600F090009212226B50069000921222769084
:10031600009212226B40227842E294325004E22488
:1003260002F27842E2FF900092E4F0A3EFF0E4904C
:100336000096F0900088F0A3F01222D6800EE478A2
:1003460042F2900088F0A3F0900096F0900083E0CF
:100356004480F0900080E04480F090007CE044808F
:10036600F0A3E04480F0900072E04401F04408F00D
:100376004404F07837E204F2E2D394324015E4F212
:100386007820E26004E4F2800578207401F2783483
:100396007401F212001E7833E260051222B440079F
:1003A600782412222B80031222BB7F0112120C7FAB
:1003B600021212027833E260051222B44007782254
:1003C60012222B80031222BB785BE2B40102800763
:1003D600900082E04480F0900081E04480F07F034A
:1003E6001212027833E260051222B4400778251211
:1003F600222B80031222BB7F0412120C7F051212DD
:10040600167823E2FD3395E0FC7F06122BE378365F
:10041600E2FF70127826E2FEC36480948C4002806C
:10042600107826E2800E7848E2FEC36480948C4001
:1004360008EE24F47860F2800D7848E27860F29055
:100446000072E054FBF0EF700478218002783DE200
:10045600785EF27836E2B40408B404097820E260E3
:10046600047F0180027F00AB077860E2121E8404DD
:100476009D0004E601052F0205740305B90405FE77
:100486000506430606880706CD0807120907570A18
:1004960007A20B000007F1785EE2FEC3940C500938
:1004A600EB600690006B02077FEEC394185009EBD1
:1004B600600690006B02079012225A5009EB600604
:1004C60090006B02079C1222615009EB60069000B7
:1004D6006B0207ADEB70030207F19000760207EDA1
:1004E600785EE2FEC3940C5009EB6006900076023B
:1004F60007E1EEC394185009EB60069000760207F8
:10050600D012225A5009EB60069000760207BF12FD
:1005160022615009EB60069000780207ADEB70038C
:100526000207F190007802079C1222525009EB60F4
:1005360006900078020790EFC394185009EB600606
:1005460090007802077F12225A5009EB600690004D
:10055600780207ED1222615009EB600690007802DE
:1005660007E1EB70030207F19000780207D0122230
:10057600525009EB60069000780207BFEFC394184B
:100586005009EB60069000750207BF12225A500907
:10059600EB60069000750207D01222615009EB60ED
:1005A600069000750207E1EB70030207F1900075F3
:1005B6000207ED1222525009EB6006900075020701
:1005C6007FEFC394185009EB600690007502079000
:1005D60012225A5009EB600690007502079C1222FF
:1005E600615009EB60069000750207ADEB700302DF
:1005F60007F19000730207BF1222525009EB600602
:100606009000730207D0EFC394185009EB60069070
:1006160000730207E112225A5009EB60069000733C
:100626000207ED1222615009EB6006900073020783
:100636007FEB70030207F1900073020790122252BB
:100646005009EB600690007302079CEFC3941850A4
:1006560009EB60069000730207AD12225A5009EBAF
:1006660060069000710207AD1222615009EB600628
:1006760090007102079CEB70030207F19000710273
:1006860007901222525009EB600690007102077F14
:10069600EFC394185009EB600690006E0207ED1246
:1006A600225A5009EB600690006E0207E1122261A1
:1006B6005009EB600690006E0207D0EB700302074C
:1006C600F190006E0207BF1222525009EB600690AD
:1006D60000700207ADEFC394185009EB6006900056
:1006E6007002079C12225A5009EB600690007002B5
:1006F60007901222615009EB600690007002077F96
:10070600EB70030207F19000700207ED12225250BF
:1007160009EB60069000700207E1EFC394185009D8
:10072600EB60069000700207D012225A5009EB6067
:10073600069000700207BF1222615009EB60069016
:10074600006D0207BFEB70030207F190006D020710
:10075600D01222525009EB600690006D0207E1EFBD
:10076600C394185009EB600690006D0207ED122243
:100776005A500CEB600990006DE04401F0806C1259
:100786002261500CEB600990006DE04402F0805B42
:10079600EB605890006DE04404F0804F12225250F6
:1007A6000CEB600990006DE04408F0803EEFC394C6
:1007B60018500CEB600990006BE04480F0802C121E
:1007C600225A500CEB600990006BE04440F0801B0D
:1007D600122261500CEB600990006BE04420F0801F
:1007E6000AEB600790006BE04410F07836E2B4053F
:1007F60008B405097820E260047F0180027F00AB1F
:1008060007785EE2121E8408C50008D80108EB02CC
:1008160008FE0309110409220509330609440709DC
:100826005508096809097B0A098E0B09A10C09B24A
:100836000D09C30E09D40F09E51009F8110A0B12A8
:100846000A1E130A31140A44150A57160A6A170AA9
:100856007D180A8E190A9F1A0AB01B0AC11C0AD4EF
:100866001D0AE71E0AFA1F0B0D200B1D210B2D2258
:100876000B3D230B4D240B5E250B6F260B80270BA0
:1008860091280BA5290BB92A0BCD2B0BE12C0BF4C8
:100896002D0C072E0C1A2F0C2D300C41310C543216
:1008A6000C67330C7A340C90350CA3360CB6370C27
:1008B600C9380CDA390CEB3A0CFC3B00000D0BEB9B
:1008C6007003020D0B90006BE04401F0900076027D
:1008D6000D07EB7003020D0B90006BE04402F090E5
:1008E6000076020CF6EB7003020D0B90006BE044F1
:1008F60004F0900076020CE5EB7003020D0B9000FD
:100906006BE04408F0900076020CD4EB7003020D05
:100916000B900076E04410F0A3020D07EB70030283
:100926000D0B900076E04420F0A3020CF6EB70036A
:10093600020D0B900076E04440F0A3020CE5EB704C
:1009460003020D0B900076E04480F0A3020CD4EB7A
:100956007003020D0B900078E04408F090007702D7
:100966000BA1EB7003020D0B900078E04404F090AD
:100976000077020BB5EB7003020D0B900078E04494
:1009860002F0900077020BC9EB7003020D0B90008A
:1009960078E04401F0900077020BDDEB7003020D66
:1009A6000B900078E04410F0A3020D07EB700302F1
:1009B6000D0B900078E04420F0A3020CF6EB7003D8
:1009C600020D0B900078E04440F0A3020CE5EB70BA
:1009D60003020D0B900078E04480F0A3020CD4EBE8
:1009E6007003020D0B900075E04480F090007902D0
:1009F6000BA1EB7003020D0B900075E04440F090E4
:100A06000079020BB5EB7003020D0B900075E04404
:100A160020F0900079020BC9EB7003020D0B9000D9
:100A260075E04410F0900079020BDDEB7003020DC7
:100A36000B900075E04401F0900074020BDDEB7042
:100A460003020D0B900075E04402F0900074020B57
:100A5600C9EB7003020D0B900075E04404F09000A2
:100A660074020BB5EB7003020D0B900075E04408A1
:100A7600F0900074020BA1EB7003020D0B90007353
:100A8600E04480F0A3020CD4EB7003020D0B90003F
:100A960073E04440F0A3020CE5EB7003020D0B90EB
:100AA6000073E04420F0A3020CF6EB7003020D0B7A
:100AB600900073E04410F0A3020D07EB7003020DE3
:100AC6000B900073E04401F0900072020BDDEB70B6
:100AD60003020D0B900073E04402F0900072020BCB
:100AE600C9EB7003020D0B900073E04404F0900014
:100AF60072020BB5EB7003020D0B900073E0440815
:100B0600F0900072020BA1EB7003020D0B900071C6
:100B1600E04408F0020CC4EB7003020D0B90007168
:100B2600E04404F0020CB1EB7003020D0B9000716F
:100B3600E04402F0020C9EEB7003020D0B90007174
:100B4600E04401F0020C8BEB7003020D0B90006E7B
:100B5600E04410F0A3020D07EB7003020D0B9000AA
:100B66006EE04420F0A3020CF6EB7003020D0B902E
:100B7600006EE04440F0A3020CE5EB7003020D0B9F
:100B860090006EE04480F0A3020CD4EB7003020DDB
:100B96000B900070E04408F090006FE0020CC4EB8C
:100BA6007003020D0B900070E04404F090006FE0BB
:100BB600020CB1EB7003020D0B900070E04402F0E2
:100BC60090006FE0020C9EEB7003020D0B9000701C
:100BD600E04401F090006FE0020C8BEB7003020D15
:100BE6000B900070E04410F090006A020D07EB7065
:100BF60003020D0B900070E04420F090006A020C96
:100C0600F6EB7003020D0B900070E04440F090008C
:100C16006A020CE5EB7003020D0B900070E0448055
:100C2600F090006A020CD4EB7003020D0B90006D7D
:100C3600E04480F090006AE0020CC4EB7003020D01
:100C46000B90006DE04440F090006AE0805DEB7030
:100C560003020D0B90006DE04420F090006AE080E6
:100C660037EB7003020D0B90006DE04410F090001E
:100C76006AE08011EB7003020D0B90006DE04401F9
:100C8600F090006CE04410F0807BEB607890006D93
:100C9600E04402F090006CE04420F08068EB606570
:100CA60090006DE04404F090006CE04440F0805504
:100CB600EB605290006DE04408F090006CE04480D8
:100CC600F08042EB603F90006BE04480F0A3E0448C
:100CD60008F08031EB602E90006BE04440F0A3E01A
:100CE6004404F08020EB601D90006BE04420F0A3EC
:100CF600E04402F0800FEB600C90006BE04410F0D3
:100D0600A3E04401F07836E27005781FE28001E442
:100D1600785FF2785FE2121E840DD7000DDD010DBB
:100D2600E3020DE9030DEF040DF5050DFB060E01BB
:100D3600070E07080E0D090E130A0E190B0E1F0CCF
:100D46000E250D0E2B0E0E310F0E37100E3D110E09
:100D560043120E49130E4F140E55150E5B160E61F7
:100D6600170E67180E6D190E731A0E791B0E7F1C5F
:100D76000E841D0E8A1E0E901F0E96200E9C210EAE
:100D8600A1220EA6230EAB240EB1250EB7260EBC4D
:100D9600270EC1280EC6290ECB2A0ED02B0ED52C17
:100DA6000EDA2D0EDF2E0EE42F0EE9300EEE310E8A
:100DB600F3320EF8330EFD340F06350F0F360F18CB
:100DC600370F21380F2A390F333A0F3C3B00000FFB
:100DD60043900076020F3F900076020F3690007621
:100DE600020F2D900076020F24900077020F3F909D
:100DF6000077020F36900077020F2D900077020FD2
:100E060024900077020F1B900077020F1290007754
:100E1600020F09900077020F00900079020F3F90B1
:100E26000079020F36900079020F2D900079020F9B
:100E360024900079020F1B900079020F129000791E
:100E4600020F09900079020F00900074020F0090C3
:100E56000074020F09900074020F12900074020FC2
:100E66001B900074020F24900074020F2D900074E2
:100E7600020F36900074020F3F900072807C900043
:100E860072020F09900072020F12900072020F1B7D
:100E9600900071020F1B9000718071900071806349
:100EA600900071805590006F020F3F90006F020F07
:100EB6003690006F807190006F806390006F805550
:100EC60090006F804790006F803990006F802B9064
:100ED600006A806590006A805790006A8049900099
:100EE6006A803B90006A802D90006A801F90006A9D
:100EF600801190006A800390006CE04410F0803D01
:100F060090006CE04420F0803490006CE04440F0A7
:100F1600802B90006CE04480F0802290006CE044CE
:100F260008F0801990006CE04404F0801090006C8A
:100F3600E04402F0800790006CE04401F07849E25A
:100F4600FE08E2FF7863EEF2FE08EFF2C3EE64807D
:100F56009480505218E2FE08E2FFC3E49FFFE49E2D
:100F6600FE7861F208EFF2C39409EE648094805033
:100F7600137D0A7C007F07122BE37861E2FC08E20E
:100F8600FD020FDA7861E2FE08E2D3941EEE648079
:100F96009480500E90007FE04408F018E21211BDD4
:100FA6008032786580127863E2FE08E2FFD39463AC
:100FB600EE648094804006087401F2801CD3EF949E
:100FC60009EE648094807863E240051211BD8004C6
:100FD600FC08E2FD7F08122BE3784BE2FE08E2FFF5
:100FE6007C007D0A121D09785DEFF2E2FF75F00ABA
:100FF60084FE785BF2EF75F00A8408E5F0F2EEFD08
:101006007C007F09122BE37F0A121216783EE21447
:101016006008047008122D2F8003122AF37820E24C
:1010260060337836E224FE601014601F24027025B7
:101036007F01122D847F028019900082E0547FF098
:10104600900081E0547FF07F0380077F04122D8497
:101056007F05122D847838E26401703B7814E2FE35
:1010660008E2FFD3949EEE94074006E47833F280BC
:1010760026D3EF947CEE9407500FEF9416EE940768
:10108600400778337401F2800ED3EF94F4EE9406A1
:10109600500578337402F27834E26070E4F218E2B4
:1010A600FF70028012EFB4010D1222B4500CE2045C
:1010B600F212227D8004E4784DF2780EE2B4010546
:1010C600E4F27843F27843E2D394004007E214F264
:1010D600D284D2857843E27002C2847846E2240143
:1010E600F218E23400F23084107847E26004E4F249
:1010F600801A78477401F28013E47847F27840F258
:1011060008F2783EF27850F208F2C285780C122284
:10111600CB40031222867843E2702D7840E2FE0827
:10112600E24E7024783EE2701F7847E2701A2085FE
:10113600171222C37012780504F2122AAD7B1E7AAA
:1011460000E4FD7F04122F367844E270507836F2C0
:10115600C284784DF27843F2783EF27845F208F28E
:10116600780CF208F2C2857838F270317840E2FEE7
:1011760008E24E7028783EE270237847E2701E201F
:10118600851B1222C37016780504F2122AAD7B1055
:101196007A0EE4FDFF122F367F01122F7E78401261
:1011A60022CB40031222861222C3600712228643F4
:0611B600D8032253D8FC0F
:1011BC0022FA08E2FB7C007D0AFFAE02121D5E786B
:1011CC005BEFF27C007D0AAF03AE02121D5E785C11
:1011DC00EDF218E2FD7C007F07122BE3785CE2FD58
:1011EC007C00227824E2FF7822E2FD122E96785DB4
:1011FC00EFF27825E222785CE2FD7C00122BE322F0
:10120C00785BE2FD7C00122BE322785CE2FD7C0033
:04121C00122BE3228C
:102F3600EFC43354E04DF5A9EAF5ACAF038FAB22ED
:0400160075AAA52200
:0300000002237365
:0C237300787FE4F6D8FD7581200223BAC3
:10237F00021ED7E493A3F8E493A34003F68001F27F
:10238F0008DFF48029E493A3F85407240CC8C3335F
:10239F00C4540F4420C8834004F456800146F6DF2E
:1023AF00E4800B0102040810204080902B72E47E21
:1023BF00019360BCA3FF543F30E509541FFEE49323
:1023CF00A360010ECF54C025E060A840B8E493A3EA
:1023DF00FAE493A3F8E493A3C8C582C8CAC583CA15
:1023EF00F0A3C8C582C8CAC583CADFE9DEE780BECD
:012BAC000028
:101CD500C2D530F707B2D563F0FF05F030E70CB297
:101CE500D5F4048463F0FF05F080018430D502F457
:021CF5000422C7
:101CF700EF8DF0A4A8F0CF8CF0A428CE8DF0A42E01
:021D0700FE22BA
:101D0900BC000BBE0029EF8DF084FFADF022E4CCBE
:101D1900F875F008EF2FFFEE33FEEC33FCEE9DEC87
:101D2900984005FCEE9DFE0FD5F0E9E4CEFD22EDCD
:101D3900F8F5F0EE8420D21CFEADF075F008EF2F17
:101D4900FFED33FD4007985006D5F0F222C398FD08
:051D59000FD5F0EA22A5
:101D5E00C2D5EC30E709B2D5E4C39DFDE49CFCEEA0
:101D6E0030E715B2D5E4C39FFFE49EFE121D09C3F2
:101D7E00E49DFDE49CFC8003121D0930D507C3E4ED
:061D8E009FFFE49EFE220F
:101D9400C5F0F8A3E028F0C5F0F8E58215827002DA
:061DA4001583E038F02277
:101DAA0075F008758200EF2FFFEE33FECD33CDCCF0
:101DBA0033CCC58233C5829BED9AEC99E582984073
:101DCA000CF582EE9BFEED9AFDEC99FC0FD5F0D650
:101DDA00E4CEFBE4CDFAE4CCF9A88222B800C1B97A
:101DEA000059BA002DEC8BF084CFCECDFCE5F0CBB8
:101DFA00F97818EF2FFFEE33FEED33FDEC33FCEBF1
:101E0A0033FB10D703994004EB99FB0FD8E5E4F9AB
:101E1A00FA227818EF2FFFEE33FEED33FDEC33FC98
:101E2A00C933C910D7059BE99A4007EC9BFCE99A8C
:101E3A00F90FD8E0E4C9FAE4CCFB2275F010EF2FD1
:101E4A00FFEE33FEED33FDCC33CCC833C810D707D1
:101E5A009BEC9AE899400AED9BFDEC9AFCE899F80C
:0E1E6A000FD5F0DAE4CDFBE4CCFAE4C8F9229F
:0C1E7800A42582F582E5F03583F5832275
:101E8400D083D082F8E4937012740193700DA3A3ED
:101E940093F8740193F5828883E473740293686001
:061EA400EFA3A3A380DF01
:101EAA00EC8EF0A4CCC5F0CCCDF8EFA4CEC5F02DC5
:101EBA00FDE43CFCE8A42EC8C5F03DFDE43CFCEF83
:0D1ECA00A4FFE5F028FEE43DFDE43CFC2211
:00000001FF
